{
  "_format": "hh-sol-artifact-1",
  "contractName": "OdinMarketplace",
  "sourceName": "contracts/OdinMarketplace.sol",
  "abi": [
    {
      "inputs": [
        {
          "internalType": "address",
          "name": "nftContract_",
          "type": "address"
        },
        {
          "internalType": "address",
          "name": "adminRecoveryAddress_",
          "type": "address"
        },
        {
          "internalType": "address",
          "name": "bcPaymentAddress_",
          "type": "address"
        },
        {
          "internalType": "address",
          "name": "bcTokenAddress_",
          "type": "address"
        },
        {
          "internalType": "address",
          "name": "developmentAddress_",
          "type": "address"
        }
      ],
      "stateMutability": "nonpayable",
      "type": "constructor"
    },
    {
      "anonymous": false,
      "inputs": [
        {
          "indexed": true,
          "internalType": "uint256",
          "name": "tokenId",
          "type": "uint256"
        },
        {
          "indexed": false,
          "internalType": "address",
          "name": "nftContractAddress",
          "type": "address"
        },
        {
          "indexed": false,
          "internalType": "address",
          "name": "sender",
          "type": "address"
        },
        {
          "indexed": false,
          "internalType": "uint256",
          "name": "value",
          "type": "uint256"
        }
      ],
      "name": "AuctionBid",
      "type": "event"
    },
    {
      "anonymous": false,
      "inputs": [
        {
          "indexed": true,
          "internalType": "uint256",
          "name": "tokenId",
          "type": "uint256"
        },
        {
          "indexed": false,
          "internalType": "address",
          "name": "nftContractAddress",
          "type": "address"
        },
        {
          "indexed": false,
          "internalType": "address",
          "name": "Creator",
          "type": "address"
        }
      ],
      "name": "AuctionCanceled",
      "type": "event"
    },
    {
      "anonymous": false,
      "inputs": [
        {
          "indexed": true,
          "internalType": "uint256",
          "name": "tokenId",
          "type": "uint256"
        },
        {
          "indexed": false,
          "internalType": "uint256",
          "name": "auctionStart",
          "type": "uint256"
        },
        {
          "indexed": false,
          "internalType": "uint256",
          "name": "duration",
          "type": "uint256"
        },
        {
          "indexed": false,
          "internalType": "uint256",
          "name": "reservePrice",
          "type": "uint256"
        },
        {
          "indexed": false,
          "internalType": "string",
          "name": "paymentType",
          "type": "string"
        },
        {
          "indexed": false,
          "internalType": "address",
          "name": "Creator",
          "type": "address"
        }
      ],
      "name": "AuctionCreated",
      "type": "event"
    },
    {
      "anonymous": false,
      "inputs": [
        {
          "indexed": true,
          "internalType": "uint256",
          "name": "tokenId",
          "type": "uint256"
        },
        {
          "indexed": false,
          "internalType": "address",
          "name": "nftContractAddress",
          "type": "address"
        },
        {
          "indexed": false,
          "internalType": "address",
          "name": "Creator",
          "type": "address"
        },
        {
          "indexed": false,
          "internalType": "address",
          "name": "winner",
          "type": "address"
        },
        {
          "indexed": false,
          "internalType": "uint256",
          "name": "amount",
          "type": "uint256"
        },
        {
          "indexed": false,
          "internalType": "address",
          "name": "nftCreator",
          "type": "address"
        }
      ],
      "name": "AuctionEnded",
      "type": "event"
    },
    {
      "anonymous": false,
      "inputs": [
        {
          "indexed": false,
          "internalType": "uint256",
          "name": "nftID",
          "type": "uint256"
        }
      ],
      "name": "Burned",
      "type": "event"
    },
    {
      "anonymous": false,
      "inputs": [
        {
          "indexed": true,
          "internalType": "uint256",
          "name": "tokenId",
          "type": "uint256"
        },
        {
          "indexed": false,
          "internalType": "address",
          "name": "Creator",
          "type": "address"
        },
        {
          "indexed": false,
          "internalType": "uint256",
          "name": "amount",
          "type": "uint256"
        }
      ],
      "name": "CreatorFeePercentTransfer",
      "type": "event"
    },
    {
      "anonymous": false,
      "inputs": [
        {
          "indexed": true,
          "internalType": "address",
          "name": "sender",
          "type": "address"
        },
        {
          "indexed": true,
          "internalType": "address",
          "name": "receiver",
          "type": "address"
        },
        {
          "indexed": false,
          "internalType": "uint256",
          "name": "tokenId",
          "type": "uint256"
        }
      ],
      "name": "Giveaway",
      "type": "event"
    },
    {
      "anonymous": false,
      "inputs": [
        {
          "indexed": true,
          "internalType": "address",
          "name": "minter",
          "type": "address"
        },
        {
          "indexed": false,
          "internalType": "uint256",
          "name": "nftID",
          "type": "uint256"
        },
        {
          "indexed": false,
          "internalType": "bool",
          "name": "status",
          "type": "bool"
        }
      ],
      "name": "Minted",
      "type": "event"
    },
    {
      "anonymous": false,
      "inputs": [
        {
          "indexed": true,
          "internalType": "address",
          "name": "owner",
          "type": "address"
        },
        {
          "indexed": false,
          "internalType": "uint256",
          "name": "nftID",
          "type": "uint256"
        },
        {
          "indexed": false,
          "internalType": "bool",
          "name": "isListed",
          "type": "bool"
        }
      ],
      "name": "NftListStatus",
      "type": "event"
    },
    {
      "anonymous": false,
      "inputs": [
        {
          "indexed": true,
          "internalType": "address",
          "name": "previousOwner",
          "type": "address"
        },
        {
          "indexed": true,
          "internalType": "address",
          "name": "newOwner",
          "type": "address"
        }
      ],
      "name": "OwnershipTransferred",
      "type": "event"
    },
    {
      "anonymous": false,
      "inputs": [
        {
          "indexed": false,
          "internalType": "address",
          "name": "account",
          "type": "address"
        }
      ],
      "name": "Paused",
      "type": "event"
    },
    {
      "anonymous": false,
      "inputs": [
        {
          "indexed": true,
          "internalType": "address",
          "name": "owner",
          "type": "address"
        },
        {
          "indexed": false,
          "internalType": "uint256",
          "name": "oldPrice",
          "type": "uint256"
        },
        {
          "indexed": false,
          "internalType": "uint256",
          "name": "newPrice",
          "type": "uint256"
        },
        {
          "indexed": false,
          "internalType": "uint256",
          "name": "nftID",
          "type": "uint256"
        }
      ],
      "name": "PriceUpdate",
      "type": "event"
    },
    {
      "anonymous": false,
      "inputs": [
        {
          "indexed": true,
          "internalType": "address",
          "name": "previousOwner",
          "type": "address"
        },
        {
          "indexed": true,
          "internalType": "address",
          "name": "newOwner",
          "type": "address"
        },
        {
          "indexed": false,
          "internalType": "uint256",
          "name": "price",
          "type": "uint256"
        },
        {
          "indexed": false,
          "internalType": "uint256",
          "name": "nftID",
          "type": "uint256"
        }
      ],
      "name": "Purchase",
      "type": "event"
    },
    {
      "anonymous": false,
      "inputs": [
        {
          "indexed": false,
          "internalType": "address",
          "name": "",
          "type": "address"
        },
        {
          "indexed": false,
          "internalType": "uint256",
          "name": "",
          "type": "uint256"
        }
      ],
      "name": "Received",
      "type": "event"
    },
    {
      "anonymous": false,
      "inputs": [
        {
          "indexed": false,
          "internalType": "uint256",
          "name": "amount",
          "type": "uint256"
        },
        {
          "indexed": false,
          "internalType": "address",
          "name": "wallet",
          "type": "address"
        }
      ],
      "name": "TokensWithdrawn",
      "type": "event"
    },
    {
      "anonymous": false,
      "inputs": [
        {
          "indexed": false,
          "internalType": "address",
          "name": "account",
          "type": "address"
        }
      ],
      "name": "Unpaused",
      "type": "event"
    },
    {
      "anonymous": false,
      "inputs": [
        {
          "indexed": false,
          "internalType": "uint256",
          "name": "amount",
          "type": "uint256"
        },
        {
          "indexed": false,
          "internalType": "address",
          "name": "wallet",
          "type": "address"
        }
      ],
      "name": "Withdrawn",
      "type": "event"
    },
    {
      "inputs": [],
      "name": "MIN_BID_INCREMENT_PERCENT",
      "outputs": [
        {
          "internalType": "uint8",
          "name": "",
          "type": "uint8"
        }
      ],
      "stateMutability": "view",
      "type": "function"
    },
    {
      "inputs": [],
      "name": "TIME_BUFFER",
      "outputs": [
        {
          "internalType": "uint16",
          "name": "",
          "type": "uint16"
        }
      ],
      "stateMutability": "view",
      "type": "function"
    },
    {
      "inputs": [
        {
          "internalType": "uint256[]",
          "name": "_newtokenIds",
          "type": "uint256[]"
        },
        {
          "internalType": "address[]",
          "name": "_creators",
          "type": "address[]"
        },
        {
          "internalType": "uint256[]",
          "name": "_prices",
          "type": "uint256[]"
        },
        {
          "internalType": "address[]",
          "name": "_owners",
          "type": "address[]"
        },
        {
          "internalType": "uint256[]",
          "name": "_royalties",
          "type": "uint256[]"
        },
        {
          "internalType": "bool[]",
          "name": "_listedMap",
          "type": "bool[]"
        }
      ],
      "name": "addCreatorMap",
      "outputs": [],
      "stateMutability": "nonpayable",
      "type": "function"
    },
    {
      "inputs": [],
      "name": "adminRecoveryAddress",
      "outputs": [
        {
          "internalType": "address",
          "name": "",
          "type": "address"
        }
      ],
      "stateMutability": "view",
      "type": "function"
    },
    {
      "inputs": [],
      "name": "adminRecoveryEnabled",
      "outputs": [
        {
          "internalType": "bool",
          "name": "",
          "type": "bool"
        }
      ],
      "stateMutability": "view",
      "type": "function"
    },
    {
      "inputs": [
        {
          "internalType": "uint256",
          "name": "",
          "type": "uint256"
        }
      ],
      "name": "auctions",
      "outputs": [
        {
          "internalType": "uint256",
          "name": "amount",
          "type": "uint256"
        },
        {
          "internalType": "uint256",
          "name": "duration",
          "type": "uint256"
        },
        {
          "internalType": "uint256",
          "name": "firstBidTime",
          "type": "uint256"
        },
        {
          "internalType": "uint256",
          "name": "reservePrice",
          "type": "uint256"
        },
        {
          "internalType": "string",
          "name": "paymentType",
          "type": "string"
        },
        {
          "internalType": "uint8",
          "name": "CreatorFeePercent",
          "type": "uint8"
        },
        {
          "internalType": "address",
          "name": "Creator",
          "type": "address"
        },
        {
          "internalType": "address payable",
          "name": "bidder",
          "type": "address"
        },
        {
          "internalType": "address payable",
          "name": "fundsRecipient",
          "type": "address"
        }
      ],
      "stateMutability": "view",
      "type": "function"
    },
    {
      "inputs": [
        {
          "internalType": "uint256",
          "name": "_id",
          "type": "uint256"
        }
      ],
      "name": "burn",
      "outputs": [],
      "stateMutability": "nonpayable",
      "type": "function"
    },
    {
      "inputs": [
        {
          "internalType": "uint256",
          "name": "_id",
          "type": "uint256"
        },
        {
          "internalType": "uint256",
          "name": "_price",
          "type": "uint256"
        },
        {
          "internalType": "string",
          "name": "paymentType",
          "type": "string"
        }
      ],
      "name": "buy",
      "outputs": [],
      "stateMutability": "payable",
      "type": "function"
    },
    {
      "inputs": [
        {
          "internalType": "uint256",
          "name": "tokenId",
          "type": "uint256"
        }
      ],
      "name": "cancelAuction",
      "outputs": [],
      "stateMutability": "nonpayable",
      "type": "function"
    },
    {
      "inputs": [
        {
          "internalType": "uint256",
          "name": "_id",
          "type": "uint256"
        }
      ],
      "name": "closeTrade",
      "outputs": [],
      "stateMutability": "nonpayable",
      "type": "function"
    },
    {
      "inputs": [
        {
          "internalType": "uint256",
          "name": "tokenId",
          "type": "uint256"
        },
        {
          "internalType": "uint256",
          "name": "duration",
          "type": "uint256"
        },
        {
          "internalType": "uint256",
          "name": "reservePrice",
          "type": "uint256"
        },
        {
          "internalType": "string",
          "name": "paymentType",
          "type": "string"
        },
        {
          "internalType": "address",
          "name": "Creator",
          "type": "address"
        }
      ],
      "name": "createAuction",
      "outputs": [],
      "stateMutability": "nonpayable",
      "type": "function"
    },
    {
      "inputs": [
        {
          "internalType": "uint256",
          "name": "tokenId",
          "type": "uint256"
        },
        {
          "internalType": "string",
          "name": "paymentType",
          "type": "string"
        },
        {
          "internalType": "uint256",
          "name": "amount",
          "type": "uint256"
        }
      ],
      "name": "createBid",
      "outputs": [],
      "stateMutability": "payable",
      "type": "function"
    },
    {
      "inputs": [
        {
          "internalType": "uint256",
          "name": "",
          "type": "uint256"
        }
      ],
      "name": "creatorMap",
      "outputs": [
        {
          "internalType": "address",
          "name": "",
          "type": "address"
        }
      ],
      "stateMutability": "view",
      "type": "function"
    },
    {
      "inputs": [],
      "name": "developmentAddress",
      "outputs": [
        {
          "internalType": "address",
          "name": "",
          "type": "address"
        }
      ],
      "stateMutability": "view",
      "type": "function"
    },
    {
      "inputs": [
        {
          "internalType": "uint256",
          "name": "tokenId",
          "type": "uint256"
        }
      ],
      "name": "endAuction",
      "outputs": [],
      "stateMutability": "nonpayable",
      "type": "function"
    },
    {
      "inputs": [
        {
          "internalType": "uint256",
          "name": "_id",
          "type": "uint256"
        }
      ],
      "name": "getIsListed",
      "outputs": [
        {
          "internalType": "bool",
          "name": "",
          "type": "bool"
        }
      ],
      "stateMutability": "view",
      "type": "function"
    },
    {
      "inputs": [
        {
          "internalType": "address",
          "name": "owner",
          "type": "address"
        }
      ],
      "name": "getLimitAmountForPromoter",
      "outputs": [
        {
          "internalType": "uint256",
          "name": "",
          "type": "uint256"
        }
      ],
      "stateMutability": "view",
      "type": "function"
    },
    {
      "inputs": [
        {
          "internalType": "address",
          "name": "owner",
          "type": "address"
        }
      ],
      "name": "getMintAmountForPromoter",
      "outputs": [
        {
          "internalType": "uint256",
          "name": "",
          "type": "uint256"
        }
      ],
      "stateMutability": "view",
      "type": "function"
    },
    {
      "inputs": [
        {
          "internalType": "uint256",
          "name": "_tokenId",
          "type": "uint256"
        }
      ],
      "name": "getSalePrice",
      "outputs": [
        {
          "internalType": "uint256",
          "name": "",
          "type": "uint256"
        }
      ],
      "stateMutability": "view",
      "type": "function"
    },
    {
      "inputs": [
        {
          "internalType": "uint256",
          "name": "_tokenId",
          "type": "uint256"
        }
      ],
      "name": "getTokenPaymentType",
      "outputs": [
        {
          "internalType": "string",
          "name": "",
          "type": "string"
        }
      ],
      "stateMutability": "view",
      "type": "function"
    },
    {
      "inputs": [
        {
          "internalType": "uint256",
          "name": "_tokenId",
          "type": "uint256"
        }
      ],
      "name": "getTokenPrice",
      "outputs": [
        {
          "internalType": "uint256",
          "name": "",
          "type": "uint256"
        }
      ],
      "stateMutability": "view",
      "type": "function"
    },
    {
      "inputs": [],
      "name": "getVersion",
      "outputs": [
        {
          "internalType": "uint256",
          "name": "version",
          "type": "uint256"
        }
      ],
      "stateMutability": "pure",
      "type": "function"
    },
    {
      "inputs": [
        {
          "internalType": "address",
          "name": "_to",
          "type": "address"
        },
        {
          "internalType": "uint256",
          "name": "_id",
          "type": "uint256"
        }
      ],
      "name": "giveaway",
      "outputs": [],
      "stateMutability": "nonpayable",
      "type": "function"
    },
    {
      "inputs": [
        {
          "internalType": "address",
          "name": "owner",
          "type": "address"
        }
      ],
      "name": "isPromoter",
      "outputs": [
        {
          "internalType": "bool",
          "name": "",
          "type": "bool"
        }
      ],
      "stateMutability": "view",
      "type": "function"
    },
    {
      "inputs": [
        {
          "internalType": "address",
          "name": "",
          "type": "address"
        }
      ],
      "name": "limitAmountForPromoter",
      "outputs": [
        {
          "internalType": "uint256",
          "name": "",
          "type": "uint256"
        }
      ],
      "stateMutability": "view",
      "type": "function"
    },
    {
      "inputs": [
        {
          "internalType": "uint256",
          "name": "",
          "type": "uint256"
        }
      ],
      "name": "listedMap",
      "outputs": [
        {
          "internalType": "bool",
          "name": "",
          "type": "bool"
        }
      ],
      "stateMutability": "view",
      "type": "function"
    },
    {
      "inputs": [],
      "name": "marketFeeForBNB",
      "outputs": [
        {
          "internalType": "uint256",
          "name": "",
          "type": "uint256"
        }
      ],
      "stateMutability": "view",
      "type": "function"
    },
    {
      "inputs": [],
      "name": "marketFeeForToken",
      "outputs": [
        {
          "internalType": "uint256",
          "name": "",
          "type": "uint256"
        }
      ],
      "stateMutability": "view",
      "type": "function"
    },
    {
      "inputs": [
        {
          "internalType": "uint256",
          "name": "number",
          "type": "uint256"
        },
        {
          "internalType": "uint256[]",
          "name": "_level",
          "type": "uint256[]"
        }
      ],
      "name": "mint",
      "outputs": [],
      "stateMutability": "payable",
      "type": "function"
    },
    {
      "inputs": [
        {
          "internalType": "address",
          "name": "",
          "type": "address"
        }
      ],
      "name": "mintAmountForPromoter",
      "outputs": [
        {
          "internalType": "uint256",
          "name": "",
          "type": "uint256"
        }
      ],
      "stateMutability": "view",
      "type": "function"
    },
    {
      "inputs": [
        {
          "internalType": "uint256",
          "name": "number",
          "type": "uint256"
        },
        {
          "internalType": "uint256[]",
          "name": "_level",
          "type": "uint256[]"
        }
      ],
      "name": "mintForPromoter",
      "outputs": [],
      "stateMutability": "nonpayable",
      "type": "function"
    },
    {
      "inputs": [],
      "name": "mintPrice",
      "outputs": [
        {
          "internalType": "uint256",
          "name": "",
          "type": "uint256"
        }
      ],
      "stateMutability": "view",
      "type": "function"
    },
    {
      "inputs": [],
      "name": "nftContract",
      "outputs": [
        {
          "internalType": "address",
          "name": "",
          "type": "address"
        }
      ],
      "stateMutability": "view",
      "type": "function"
    },
    {
      "inputs": [
        {
          "internalType": "uint256",
          "name": "_id",
          "type": "uint256"
        },
        {
          "internalType": "uint256",
          "name": "_price",
          "type": "uint256"
        },
        {
          "internalType": "string",
          "name": "paymentType",
          "type": "string"
        }
      ],
      "name": "openTrade",
      "outputs": [],
      "stateMutability": "nonpayable",
      "type": "function"
    },
    {
      "inputs": [],
      "name": "owner",
      "outputs": [
        {
          "internalType": "address",
          "name": "",
          "type": "address"
        }
      ],
      "stateMutability": "view",
      "type": "function"
    },
    {
      "inputs": [
        {
          "internalType": "uint256",
          "name": "",
          "type": "uint256"
        }
      ],
      "name": "ownerMap",
      "outputs": [
        {
          "internalType": "address",
          "name": "",
          "type": "address"
        }
      ],
      "stateMutability": "view",
      "type": "function"
    },
    {
      "inputs": [],
      "name": "pauseContract",
      "outputs": [],
      "stateMutability": "nonpayable",
      "type": "function"
    },
    {
      "inputs": [],
      "name": "paused",
      "outputs": [
        {
          "internalType": "bool",
          "name": "",
          "type": "bool"
        }
      ],
      "stateMutability": "view",
      "type": "function"
    },
    {
      "inputs": [
        {
          "internalType": "uint256",
          "name": "",
          "type": "uint256"
        }
      ],
      "name": "paymentTokenMap",
      "outputs": [
        {
          "internalType": "string",
          "name": "",
          "type": "string"
        }
      ],
      "stateMutability": "view",
      "type": "function"
    },
    {
      "inputs": [
        {
          "internalType": "string",
          "name": "",
          "type": "string"
        }
      ],
      "name": "payoutAddressMap",
      "outputs": [
        {
          "internalType": "address",
          "name": "",
          "type": "address"
        }
      ],
      "stateMutability": "view",
      "type": "function"
    },
    {
      "inputs": [
        {
          "internalType": "uint256",
          "name": "",
          "type": "uint256"
        }
      ],
      "name": "price",
      "outputs": [
        {
          "internalType": "uint256",
          "name": "",
          "type": "uint256"
        }
      ],
      "stateMutability": "view",
      "type": "function"
    },
    {
      "inputs": [
        {
          "internalType": "address",
          "name": "",
          "type": "address"
        }
      ],
      "name": "promoterAddressMap",
      "outputs": [
        {
          "internalType": "bool",
          "name": "",
          "type": "bool"
        }
      ],
      "stateMutability": "view",
      "type": "function"
    },
    {
      "inputs": [
        {
          "internalType": "uint256",
          "name": "amount",
          "type": "uint256"
        }
      ],
      "name": "recoverBNB",
      "outputs": [
        {
          "internalType": "bool",
          "name": "success",
          "type": "bool"
        }
      ],
      "stateMutability": "nonpayable",
      "type": "function"
    },
    {
      "inputs": [
        {
          "internalType": "uint256",
          "name": "tokenId",
          "type": "uint256"
        }
      ],
      "name": "recoverNFT",
      "outputs": [],
      "stateMutability": "nonpayable",
      "type": "function"
    },
    {
      "inputs": [
        {
          "internalType": "address",
          "name": "_new",
          "type": "address"
        },
        {
          "internalType": "uint256",
          "name": "amount",
          "type": "uint256"
        }
      ],
      "name": "registerPromoter",
      "outputs": [],
      "stateMutability": "nonpayable",
      "type": "function"
    },
    {
      "inputs": [],
      "name": "renounceOwnership",
      "outputs": [],
      "stateMutability": "nonpayable",
      "type": "function"
    },
    {
      "inputs": [],
      "name": "royaltyFee",
      "outputs": [
        {
          "internalType": "uint256",
          "name": "",
          "type": "uint256"
        }
      ],
      "stateMutability": "view",
      "type": "function"
    },
    {
      "inputs": [
        {
          "internalType": "uint256",
          "name": "",
          "type": "uint256"
        }
      ],
      "name": "royaltyMap",
      "outputs": [
        {
          "internalType": "uint256",
          "name": "",
          "type": "uint256"
        }
      ],
      "stateMutability": "view",
      "type": "function"
    },
    {
      "inputs": [
        {
          "internalType": "uint256",
          "name": "",
          "type": "uint256"
        }
      ],
      "name": "salePrice",
      "outputs": [
        {
          "internalType": "uint256",
          "name": "",
          "type": "uint256"
        }
      ],
      "stateMutability": "view",
      "type": "function"
    },
    {
      "inputs": [
        {
          "internalType": "uint256",
          "name": "_newMarketFeeForBNB",
          "type": "uint256"
        }
      ],
      "name": "setMarketFeeForBNB",
      "outputs": [],
      "stateMutability": "nonpayable",
      "type": "function"
    },
    {
      "inputs": [
        {
          "internalType": "uint256",
          "name": "_newMarketFeeForToken",
          "type": "uint256"
        }
      ],
      "name": "setMarketFeeForToken",
      "outputs": [],
      "stateMutability": "nonpayable",
      "type": "function"
    },
    {
      "inputs": [
        {
          "internalType": "address",
          "name": "owner",
          "type": "address"
        },
        {
          "internalType": "uint256",
          "name": "amount",
          "type": "uint256"
        }
      ],
      "name": "setMintAmountForPromoter",
      "outputs": [],
      "stateMutability": "nonpayable",
      "type": "function"
    },
    {
      "inputs": [
        {
          "internalType": "string",
          "name": "_paymentToken",
          "type": "string"
        },
        {
          "internalType": "address",
          "name": "_tokenAddress",
          "type": "address"
        },
        {
          "internalType": "address",
          "name": "_payoutAddress",
          "type": "address"
        }
      ],
      "name": "setTokenAddress",
      "outputs": [],
      "stateMutability": "nonpayable",
      "type": "function"
    },
    {
      "inputs": [],
      "name": "stakingPool",
      "outputs": [
        {
          "internalType": "address",
          "name": "",
          "type": "address"
        }
      ],
      "stateMutability": "view",
      "type": "function"
    },
    {
      "inputs": [
        {
          "internalType": "string",
          "name": "",
          "type": "string"
        }
      ],
      "name": "tokenAddressMap",
      "outputs": [
        {
          "internalType": "address",
          "name": "",
          "type": "address"
        }
      ],
      "stateMutability": "view",
      "type": "function"
    },
    {
      "inputs": [
        {
          "internalType": "address",
          "name": "newOwner",
          "type": "address"
        }
      ],
      "name": "transferOwnership",
      "outputs": [],
      "stateMutability": "nonpayable",
      "type": "function"
    },
    {
      "inputs": [],
      "name": "turnOffAdminRecovery",
      "outputs": [],
      "stateMutability": "nonpayable",
      "type": "function"
    },
    {
      "inputs": [],
      "name": "unpauseContract",
      "outputs": [],
      "stateMutability": "nonpayable",
      "type": "function"
    },
    {
      "inputs": [
        {
          "internalType": "address",
          "name": "_new",
          "type": "address"
        }
      ],
      "name": "unregisterPromoter",
      "outputs": [],
      "stateMutability": "nonpayable",
      "type": "function"
    },
    {
      "inputs": [
        {
          "internalType": "uint256",
          "name": "_tokenId",
          "type": "uint256"
        },
        {
          "internalType": "bool",
          "name": "shouldBeListed",
          "type": "bool"
        }
      ],
      "name": "updateListingStatus",
      "outputs": [
        {
          "internalType": "bool",
          "name": "",
          "type": "bool"
        }
      ],
      "stateMutability": "nonpayable",
      "type": "function"
    },
    {
      "inputs": [
        {
          "internalType": "uint256",
          "name": "_tokenId",
          "type": "uint256"
        },
        {
          "internalType": "uint256",
          "name": "_price",
          "type": "uint256"
        },
        {
          "internalType": "string",
          "name": "paymentType",
          "type": "string"
        }
      ],
      "name": "updatePrice",
      "outputs": [
        {
          "internalType": "bool",
          "name": "",
          "type": "bool"
        }
      ],
      "stateMutability": "nonpayable",
      "type": "function"
    },
    {
      "inputs": [],
      "name": "withdraw",
      "outputs": [],
      "stateMutability": "nonpayable",
      "type": "function"
    },
    {
      "inputs": [
        {
          "internalType": "string",
          "name": "_tokenName",
          "type": "string"
        },
        {
          "internalType": "uint256",
          "name": "_amount",
          "type": "uint256"
        }
      ],
      "name": "withdrawToken",
      "outputs": [],
      "stateMutability": "nonpayable",
      "type": "function"
    },
    {
      "stateMutability": "payable",
      "type": "receive"
    }
  ],
  "bytecode": "0x608060405260016000556046600355604660045560058055600f6006553480156200002957600080fd5b5060405162005356380380620053568339810160408190526200004c91620002a2565b620000573362000233565b6040516301ffc9a760e01b81526380ac58cd60e01b60048201526001600160a01b038616906301ffc9a79060240160206040518083038186803b1580156200009e57600080fd5b505afa158015620000b3573d6000803e3d6000fd5b505050506040513d601f19601f82011682018060405250810190620000d9919062000312565b620001505760405162461bcd60e51b815260206004820152603f60248201527f436f6e7472616374206174206e6674436f6e74726163745f206164647265737360448201527f20646f6573206e6f7420737570706f7274204e465420696e7465726661636500606482015260840160405180910390fd5b600780546001600160a01b038088166001600160a01b031992831617909255600880549287169290911691909117905560405183906014906200019d906327a224a760e11b815260040190565b90815260405190819003602001812080546001600160a01b03939093166001600160a01b0319909316929092179091556327a224a760e11b8152829060129060040190815260405190819003602001902080546001600160a01b039283166001600160a01b0319909116179055600a80546001600160b01b0319169290911691909117600160a01b179055506200033d92505050565b600180546001600160a01b038381166001600160a01b0319831681179093556040519116919082907f8be0079c531659141344cd1fd0a4f28419497f9722a3daafe3b4186f6b6457e090600090a35050565b80516001600160a01b03811681146200029d57600080fd5b919050565b600080600080600060a08688031215620002bb57600080fd5b620002c68662000285565b9450620002d66020870162000285565b9350620002e66040870162000285565b9250620002f66060870162000285565b9150620003066080870162000285565b90509295509295909350565b6000602082840312156200032557600080fd5b815180151581146200033657600080fd5b9392505050565b615009806200034d6000396000f3fe6080604052600436106103bc5760003560e01c80638da5cb5b116101f2578063ba8a12b41161010d578063d56d229d116100a0578063f603939b1161006f578063f603939b14610c2a578063f8eb5fc514610c4a578063faa22adb14610c77578063fafe0d1f14610ca757600080fd5b8063d56d229d14610b9d578063edf85f5114610bbd578063f27da5e514610bea578063f2fde38b14610c0a57600080fd5b8063c457fb37116100dc578063c457fb3714610b10578063c97a413a14610b3d578063ca1ce2af14610b5d578063d10bfeed14610b7d57600080fd5b8063ba8a12b414610a79578063bb7adeb414610a99578063bc8ba28f14610ab9578063bc99681914610ae957600080fd5b80639a8bfa2b11610185578063b33712c511610154578063b33712c514610a01578063b35e516114610a16578063b8997a9714610a43578063b9a2de3a14610a5957600080fd5b80639a8bfa2b14610945578063a39cea841461097b578063a6e9d5461461099b578063acfa3c67146109c857600080fd5b806396b5a755116101c157806396b5a755146108dd57806398214bcb146108fd57806398c055911461091d57806399331fdf1461093257600080fd5b80638da5cb5b146108485780639037bab214610866578063941d66db1461087c5780639486e0a4146108bd57600080fd5b80634c78106f116102e25780636817c76c1161027557806379695af71161024457806379695af7146107c5578063808d6d29146107e557806382b465b714610812578063892d5d941461083257600080fd5b80636817c76c1461075b578063715018a6146107715780637215361e146107865780637788a387146107a657600080fd5b806359cef85b116102b157806359cef85b146106bb5780635c975abb146106db578063638b1b14146106fa5780636749b0ba1461071a57600080fd5b80634c78106f14610610578063536531311461063d57806353a636dd14610666578063571a26a01461068657600080fd5b806327cfc8a91161035a5780633ccfd60b116103295780633ccfd60b146105a657806342966c68146105bb578063439766ce146105db5780634b42d658146105f057600080fd5b806327cfc8a91461052a5780632d69044f1461054a57806333209e651461055d57806338a4cb5b1461057057600080fd5b80630d8e6e2c116103965780630d8e6e2c1461047f57806317aa7f031461049d578063194a9716146104bd57806326a49e37146104fd57600080fd5b8063050225ea146104005780630c56ae3b146104225780630d6b33781461045f57600080fd5b366103fb57604080513381523460208201527f88a5966d370b9919b20f3e2c13ff65706f196a4e32cc2c12bf57088f88525874910160405180910390a1005b600080fd5b34801561040c57600080fd5b5061042061041b36600461474f565b610cc7565b005b34801561042e57600080fd5b50600954610442906001600160a01b031681565b6040516001600160a01b0390911681526020015b60405180910390f35b34801561046b57600080fd5b5061042061047a366004614973565b610e5c565b34801561048b57600080fd5b5060015b604051908152602001610456565b3480156104a957600080fd5b506104206104b8366004614973565b610edb565b3480156104c957600080fd5b506104ed6104d8366004614973565b6000908152600d602052604090205460ff1690565b6040519015158152602001610456565b34801561050957600080fd5b5061048f610518366004614973565b600b6020526000908152604090205481565b34801561053657600080fd5b5061048f610545366004614715565b610f5a565b6104206105583660046149a5565b610fae565b61042061056b366004614a1c565b611213565b34801561057c57600080fd5b5061044261058b366004614973565b600f602052600090815260409020546001600160a01b031681565b3480156105b257600080fd5b506104206118fb565b3480156105c757600080fd5b506104206105d6366004614973565b611958565b3480156105e757600080fd5b506104206119fa565b3480156105fc57600080fd5b5061042061060b36600461474f565b611a82565b34801561061c57600080fd5b5061048f61062b366004614715565b60166020526000908152604090205481565b34801561064957600080fd5b5061065361038481565b60405161ffff9091168152602001610456565b34801561067257600080fd5b506104ed610681366004614a6c565b611b72565b34801561069257600080fd5b506106a66106a1366004614973565b611c5b565b60405161045699989796959493929190614dc3565b3480156106c757600080fd5b506104206106d636600461474f565b611d3f565b3480156106e757600080fd5b50600a54600160a81b900460ff166104ed565b34801561070657600080fd5b50600a54610442906001600160a01b031681565b34801561072657600080fd5b5061044261073536600461488d565b80516020818301810180516014825292820191909301209152546001600160a01b031681565b34801561076757600080fd5b5061048f60065481565b34801561077d57600080fd5b50610420611d85565b34801561079257600080fd5b506104206107a13660046149a5565b611dbb565b3480156107b257600080fd5b50600a54600160a01b900460ff166104ed565b3480156107d157600080fd5b506104206107e0366004614715565b612023565b3480156107f157600080fd5b50610805610800366004614973565b612083565b6040516104569190614c33565b34801561081e57600080fd5b5061042061082d36600461477b565b612125565b34801561083e57600080fd5b5061048f60035481565b34801561085457600080fd5b506001546001600160a01b0316610442565b34801561087257600080fd5b5061048f60045481565b34801561088857600080fd5b5061044261089736600461488d565b80516020818301810180516012825292820191909301209152546001600160a01b031681565b3480156108c957600080fd5b506104206108d8366004614973565b612536565b3480156108e957600080fd5b506104206108f8366004614973565b6125e3565b34801561090957600080fd5b506104ed6109183660046149ec565b612872565b34801561092957600080fd5b506104206129af565b610420610940366004614a6c565b6129fd565b34801561095157600080fd5b50610442610960366004614973565b6011602052600090815260409020546001600160a01b031681565b34801561098757600080fd5b50610420610996366004614973565b61323a565b3480156109a757600080fd5b5061048f6109b6366004614973565b60106020526000908152604090205481565b3480156109d457600080fd5b506104ed6109e3366004614715565b6001600160a01b031660009081526015602052604090205460ff1690565b348015610a0d57600080fd5b506104206133e0565b348015610a2257600080fd5b5061048f610a31366004614715565b60176020526000908152604090205481565b348015610a4f57600080fd5b5061048f60055481565b348015610a6557600080fd5b50610420610a74366004614973565b61345c565b348015610a8557600080fd5b50610420610a943660046148ca565b613bc1565b348015610aa557600080fd5b50610420610ab4366004614abc565b613c73565b348015610ac557600080fd5b506104ed610ad4366004614973565b600d6020526000908152604090205460ff1681565b348015610af557600080fd5b50610afe600a81565b60405160ff9091168152602001610456565b348015610b1c57600080fd5b5061048f610b2b366004614973565b6000908152600b602052604090205490565b348015610b4957600080fd5b50610420610b5836600461492e565b613eb6565b348015610b6957600080fd5b50610805610b78366004614973565b61407b565b348015610b8957600080fd5b5061048f610b98366004614715565b614115565b348015610ba957600080fd5b50600754610442906001600160a01b031681565b348015610bc957600080fd5b5061048f610bd8366004614973565b600c6020526000908152604090205481565b348015610bf657600080fd5b50610420610c05366004614a6c565b614169565b348015610c1657600080fd5b50610420610c25366004614715565b614292565b348015610c3657600080fd5b506104ed610c45366004614973565b61432a565b348015610c5657600080fd5b5061048f610c65366004614973565b6000908152600c602052604090205490565b348015610c8357600080fd5b506104ed610c92366004614715565b60156020526000908152604090205460ff1681565b348015610cb357600080fd5b50600854610442906001600160a01b031681565b6000818152600d602052604090205460ff16610d48576007546040516323b872dd60e01b81526001600160a01b03909116906323b872dd90610d1190339086908690600401614c0f565b600060405180830381600087803b158015610d2b57600080fd5b505af1158015610d3f573d6000803e3d6000fd5b50505050610df8565b6000818152601160205260409020546001600160a01b03163314610d875760405162461bcd60e51b8152600401610d7e90614ca1565b60405180910390fd5b6007546040516323b872dd60e01b81526001600160a01b03909116906323b872dd90610dbb90309086908690600401614c0f565b600060405180830381600087803b158015610dd557600080fd5b505af1158015610de9573d6000803e3d6000fd5b505050600082905250600d6020525b60008181526011602090815260409182902080546001600160a01b0319166001600160a01b038616908117909155915183815233917f4abe537933cf6821c78fd52b40560aa40ad6f997168b53f9ea55a9b34420069b910160405180910390a35050565b6001546001600160a01b03163314610e865760405162461bcd60e51b8152600401610d7e90614c6c565b60018111610ed65760405162461bcd60e51b815260206004820152601b60248201527f496e76616c6964204d61726b657446656520466f7220546f6b656e00000000006044820152606401610d7e565b600455565b6001546001600160a01b03163314610f055760405162461bcd60e51b8152600401610d7e90614c6c565b60018111610f555760405162461bcd60e51b815260206004820152601960248201527f496e76616c6964204d61726b657446656520466f7220424e42000000000000006044820152606401610d7e565b600355565b6001600160a01b03811660009081526015602052604081205460ff16610f925760405162461bcd60e51b8152600401610d7e90614c46565b506001600160a01b031660009081526017602052604090205490565b610fe06064610fda670de0b6b3a7640000610fd48660065461438890919063ffffffff16565b90614388565b9061439b565b34101561102f5760405162461bcd60e51b815260206004820152601960248201527f4e6f206861766520656e6f7567682073756666696369656e74000000000000006044820152606401610d7e565b60005b828110156111d457600061104560025490565b6000818152600f602090815260408083208054336001600160a01b031991821681179092556011845282852080549091169091179055600d8252808320805460ff191690556005546010909252909120556006549091506110b590606490610fda90670de0b6b3a7640000614388565b6000828152600b602052604090205560075483516001600160a01b03909116906394bf804d908590859081106110ed576110ed614f84565b6020026020010151336040518363ffffffff1660e01b81526004016111259291909182526001600160a01b0316602082015260400190565b602060405180830381600087803b15801561113f57600080fd5b505af1158015611153573d6000803e3d6000fd5b505050506040513d601f19601f82011682018060405250810190611177919061498c565b50611186600280546001019055565b604080518281526000602082015233917f53ad8893610de0fa6656f026deb942f5cde3d84f4c68f80c8b376f70c1a0f389910160405180910390a250806111cc81614f53565b915050611032565b506008546040516001600160a01b03909116903480156108fc02916000818181858888f1935050505015801561120e573d6000803e3d6000fd5b505050565b60016000808282546112259190614e7c565b9091555050600054600a54600160a81b900460ff16156112575760405162461bcd60e51b8152600401610d7e90614d58565b83611280816000908152600e602052604090206005015461010090046001600160a01b03161590565b156112c55760405162461bcd60e51b8152602060048201526015602482015274105d58dd1a5bdb88191bd95cdb89dd08195e1a5cdd605a1b6044820152606401610d7e565b6000858152600e6020526040902060020154859015806112ec57506112e9816143a7565b42105b61132a5760405162461bcd60e51b815260206004820152600f60248201526e105d58dd1a5bdb88195e1c1a5c9959608a1b6044820152606401610d7e565b6000841161137a5760405162461bcd60e51b815260206004820152601d60248201527f416d6f756e74206d7573742062652067726561746572207468616e20300000006044820152606401610d7e565b6000868152600e6020908152604091829020915161139c926004019101614b73565b60405160208183030381529060405280519060200120856040516020016113c39190614b57565b60405160208183030381529060405280519060200120146114265760405162461bcd60e51b815260206004820152601d60248201527f5061796d656e7454797065206973206e6f74206d69736d6174636865640000006044820152606401610d7e565b6040516221272160e91b6020820152602301604051602081830303815290604052805190602001208560405160200161145f9190614b57565b6040516020818303038152906040528051906020012014156114cf573484146114ca5760405162461bcd60e51b815260206004820152601e60248201527f416d6f756e7420646f65736e277420657175616c206d73672e76616c756500006044820152606401610d7e565b6115b1565b6012856040516114df9190614b57565b908152604051908190036020018120546370a0823160e01b82523360048301526001600160a01b0316906370a082319060240160206040518083038186803b15801561152a57600080fd5b505afa15801561153e573d6000803e3d6000fd5b505050506040513d601f19601f82011682018060405250810190611562919061498c565b8410156115b15760405162461bcd60e51b815260206004820152601a60248201527f496e73756666696369656e7420746f6b656e2062616c616e63650000000000006044820152606401610d7e565b6000868152600e602052604090205461162a576000868152600e60205260409020600301548410156116255760405162461bcd60e51b815260206004820152601d60248201527f4d7573742062696420726573657276655072696365206f72206d6f72650000006044820152606401610d7e565b611818565b6000868152600e60205260409020546116649061164f90606490610fda90600a614388565b6000888152600e6020526040902054906143c5565b8410156116d95760405162461bcd60e51b815260206004820152603f60248201527f4d75737420626964206d6f7265207468616e206c61737420626964206279204d60448201527f494e5f4249445f494e4352454d454e545f50455243454e5420616d6f756e74006064820152608401610d7e565b6040516221272160e91b602082015260230160405160208183030381529060405280519060200120856040516020016117129190614b57565b60405160208183030381529060405280519060200120141561175c576000868152600e6020526040902060068101549054611756916001600160a01b0316906143d1565b50611818565b60128560405161176c9190614b57565b90815260408051602092819003830181205460008a8152600e909452919092206006810154905463a9059cbb60e01b84526001600160a01b0391821660048501526024840152169063a9059cbb90604401602060405180830381600087803b1580156117d757600080fd5b505af11580156117eb573d6000803e3d6000fd5b505050506040513d601f19601f8201168201806040525081019061180f9190614870565b61181857600080fd5b6000868152600e6020526040902084815560060180546001600160a01b03191633179055611848426103846143c5565b611851876143a7565b101561189c57611875611863876143a7565b61186f426103846143c5565b90614434565b6000878152600e602052604081206001018054909190611896908490614e7c565b90915550505b60075460405187917f3bb6f40a8aeb5dda33c401527cd8f6bd335757d2b1ed2827f0321a090c66b824916118dd916001600160a01b03169033908990614c0f565b60405180910390a2505060005481146118f557600080fd5b50505050565b6001546001600160a01b031633146119255760405162461bcd60e51b8152600401610d7e90614c6c565b6040514790339082156108fc029083906000818181858888f19350505050158015611954573d6000803e3d6000fd5b5050565b600754604051630852cd8d60e31b8152600481018390526001600160a01b03909116906342966c6890602401600060405180830381600087803b15801561199e57600080fd5b505af11580156119b2573d6000803e3d6000fd5b505050600091825250600f6020908152604080832080546001600160a01b0319908116909155601083528184208490556011835281842080549091169055600b909152812055565b6008546001600160a01b031633148015611a1d5750600a54600160a01b900460ff165b611a395760405162461bcd60e51b8152600401610d7e90614cce565b600a805460ff60a81b1916600160a81b1790556040513381527f62e78cea01bee320cd4e420270b5ea74000d11b0c9f74754ebdbfc544b05a258906020015b60405180910390a1565b6001546001600160a01b03163314611aac5760405162461bcd60e51b8152600401610d7e90614c6c565b60008111611af05760405162461bcd60e51b81526020600482015260116024820152701cd95d08189a59d9d95c88185b5bdd5b9d607a1b6044820152606401610d7e565b6001546001600160a01b0383811691161415611b415760405162461bcd60e51b815260206004820152601060248201526f31b0b73737ba1039b2ba1037bbb732b960811b6044820152606401610d7e565b6001600160a01b039091166000908152601560209081526040808320805460ff191660011790556016909152902055565b6000838152600b602090815260408083205460119092528220546001600160a01b03163314611be35760405162461bcd60e51b815260206004820152601c60248201527f4572726f722c20796f7520617265206e6f7420746865206f776e6572000000006044820152606401610d7e565b6000858152600b60209081526040808320879055601382529091208451611c0c92860190614492565b50604080518281526020810186905290810186905233907f8647dab5101cbe18afb171756e9753802f9d66725bf2346b079b8b1a275e01169060600160405180910390a2506001949350505050565b600e60205260009081526040902080546001820154600283015460038401546004850180549495939492939192611c9190614f18565b80601f0160208091040260200160405190810160405280929190818152602001828054611cbd90614f18565b8015611d0a5780601f10611cdf57610100808354040283529160200191611d0a565b820191906000526020600020905b815481529060010190602001808311611ced57829003601f168201915b50505060058401546006850154600790950154939460ff8216946001600160a01b036101009093048316945090821692501689565b6001546001600160a01b03163314611d695760405162461bcd60e51b8152600401610d7e90614c6c565b6001600160a01b03909116600090815260176020526040902055565b6001546001600160a01b03163314611daf5760405162461bcd60e51b8152600401610d7e90614c6c565b611db96000614440565b565b3360009081526015602052604090205460ff16611dea5760405162461bcd60e51b8152600401610d7e90614c46565b6000611df533614115565b90506000611e0233610f5a565b9050611e0e81856143c5565b821015611e535760405162461bcd60e51b815260206004820152601360248201527243616e6e6f74206d696e7420616e796d6f726560681b6044820152606401610d7e565b60005b84811015611ff8576000611e6960025490565b6000818152600f602090815260408083208054336001600160a01b031991821681179092556011845282852080549091169091179055600d8252808320805460ff19169055600554601090925290912055600654909150611ed990606490610fda90670de0b6b3a7640000614388565b6000828152600b602052604090205560075485516001600160a01b03909116906394bf804d90879085908110611f1157611f11614f84565b6020026020010151336040518363ffffffff1660e01b8152600401611f499291909182526001600160a01b0316602082015260400190565b602060405180830381600087803b158015611f6357600080fd5b505af1158015611f77573d6000803e3d6000fd5b505050506040513d601f19601f82011682018060405250810190611f9b919061498c565b50611faa600280546001019055565b604080518281526000602082015233917f53ad8893610de0fa6656f026deb942f5cde3d84f4c68f80c8b376f70c1a0f389910160405180910390a25080611ff081614f53565b915050611e56565b503360009081526017602052604081208054869290612018908490614e7c565b909155505050505050565b6001546001600160a01b0316331461204d5760405162461bcd60e51b8152600401610d7e90614c6c565b6001600160a01b03166000908152601560209081526040808320805460ff19169055601682528083208390556017909152812055565b60008181526013602052604090208054606091906120a090614f18565b80601f01602080910402602001604051908101604052809291908181526020018280546120cc90614f18565b80156121195780601f106120ee57610100808354040283529160200191612119565b820191906000526020600020905b8154815290600101906020018083116120fc57829003601f168201915b50505050509050919050565b6001546001600160a01b0316331461214f5760405162461bcd60e51b8152600401610d7e90614c6c565b84518651146121b15760405162461bcd60e51b815260206004820152602860248201527f746f6b656e49447320616e642063726561746f727320617265206e6f74206d696044820152671cdb585d18da195960c21b6064820152608401610d7e565b83518651146122125760405162461bcd60e51b815260206004820152602760248201527f746f6b656e49447320616e64205f70726963657320617265206e6f74206d69736044820152661b585d18da195960ca1b6064820152608401610d7e565b82518651146122735760405162461bcd60e51b815260206004820152602760248201527f746f6b656e49447320616e64205f6f776e65727320617265206e6f74206d69736044820152661b585d18da195960ca1b6064820152608401610d7e565b81518651146122d75760405162461bcd60e51b815260206004820152602a60248201527f746f6b656e49447320616e64205f726f79616c7469657320617265206e6f74206044820152691b5a5cdb585d18da195960b21b6064820152608401610d7e565b805186511461233b5760405162461bcd60e51b815260206004820152602a60248201527f746f6b656e49447320616e64205f6c69737465644d617020617265206e6f74206044820152691b5a5cdb585d18da195960b21b6064820152608401610d7e565b60005b865181101561252d57612355600280546001019055565b85818151811061236757612367614f84565b6020026020010151600f600089848151811061238557612385614f84565b6020026020010151815260200190815260200160002060006101000a8154816001600160a01b0302191690836001600160a01b031602179055508481815181106123d1576123d1614f84565b6020026020010151600b60008984815181106123ef576123ef614f84565b602002602001015181526020019081526020016000208190555083818151811061241b5761241b614f84565b60200260200101516011600089848151811061243957612439614f84565b6020026020010151815260200190815260200160002060006101000a8154816001600160a01b0302191690836001600160a01b0316021790555082818151811061248557612485614f84565b6020026020010151601060008984815181106124a3576124a3614f84565b60200260200101518152602001908152602001600020819055508181815181106124cf576124cf614f84565b6020026020010151600d60008984815181106124ed576124ed614f84565b6020026020010151815260200190815260200160002060006101000a81548160ff021916908315150217905550808061252590614f53565b91505061233e565b50505050505050565b6008546001600160a01b0316331480156125595750600a54600160a01b900460ff165b6125755760405162461bcd60e51b8152600401610d7e90614cce565b6007546008546040516323b872dd60e01b81526001600160a01b03928316926323b872dd926125ae923092909116908690600401614c0f565b600060405180830381600087803b1580156125c857600080fd5b505af11580156125dc573d6000803e3d6000fd5b5050505050565b60016000808282546125f59190614e7c565b909155505060005481612626816000908152600e602052604090206005015461010090046001600160a01b03161590565b1561266b5760405162461bcd60e51b8152602060048201526015602482015274105d58dd1a5bdb88191bd95cdb89dd08195e1a5cdd605a1b6044820152606401610d7e565b6000838152600e6020526040902060050154839061010090046001600160a01b031633146126ab5760405162461bcd60e51b8152600401610d7e90614d13565b6000848152600e6020526040902054156127075760405162461bcd60e51b815260206004820152601760248201527f41756374696f6e20616c726561647920737461727465640000000000000000006044820152606401610d7e565b6000848152600e60205260408120600581015482825560018201839055600282018390556003820183905561010090046001600160a01b03169161274e6004830182614516565b506005810180546001600160a81b03191690556006810180546001600160a01b0319908116909155600791820180549091169055546040516323b872dd60e01b81526001600160a01b03909116906323b872dd906127b490309085908a90600401614c0f565b600060405180830381600087803b1580156127ce57600080fd5b505af11580156127e2573d6000803e3d6000fd5b5050506000868152600d60209081526040808320805460ff19169055601182529182902080546001600160a01b0319166001600160a01b03868116918217909255600754845192168252918101919091528792507f31e46b3372adff8978a18a1c543a6b3a925ee693bdf7a7c54df36f30f87d290e910160405180910390a2505050600054811461195457600080fd5b6007546040516331a9108f60e11b8152600481018490526000916001600160a01b031690636352211e9060240160206040518083038186803b1580156128b757600080fd5b505afa1580156128cb573d6000803e3d6000fd5b505050506040513d601f19601f820116820180604052508101906128ef9190614732565b6001600160a01b0316336001600160a01b03161461294f5760405162461bcd60e51b815260206004820152601c60248201527f4572726f722c20796f7520617265206e6f7420746865206f776e6572000000006044820152606401610d7e565b6000838152600d6020908152604091829020805460ff191685151590811790915582518681529182015233917f3fd63d9ca8dc693a1b9911e664951294721009a4f6239c862d6719a160a1edfc910160405180910390a250600192915050565b6008546001600160a01b0316331480156129d25750600a54600160a01b900460ff165b6129ee5760405162461bcd60e51b8152600401610d7e90614cce565b600a805460ff60a01b19169055565b6000838152600d602052604090205460ff16612a5b5760405162461bcd60e51b815260206004820152601960248201527f4974656d206e6f74206c69737465642063757272656e746c79000000000000006044820152606401610d7e565b6007546040516331a9108f60e11b8152600481018590526001600160a01b0390911690636352211e9060240160206040518083038186803b158015612a9f57600080fd5b505afa158015612ab3573d6000803e3d6000fd5b505050506040513d601f19601f82011682018060405250810190612ad79190614732565b6001600160a01b0316336001600160a01b03161415612b385760405162461bcd60e51b815260206004820152601860248201527f43616e206e6f7420627579207768617420796f75206f776e00000000000000006044820152606401610d7e565b6000838152600c60205260409020548214612b955760405162461bcd60e51b815260206004820152601960248201527f4572726f722c207072696365206973206e6f74206d61746368000000000000006044820152606401610d7e565b6000838152601360209081526040918290209151612bb4929101614b73565b6040516020818303038152906040528051906020012081604051602001612bdb9190614b57565b6040516020818303038152906040528051906020012014612c3e5760405162461bcd60e51b815260206004820181905260248201527f4572726f722c205061796d656e742054797065206973206e6f74206d617463686044820152606401610d7e565b6000838152601160209081526040918290205491516001600160a01b0390921691612c7391016221272160e91b815260030190565b6040516020818303038152906040528051906020012082604051602001612c9a9190614b57565b604051602081830303815290604052805190602001201415612dc5576000848152600c6020526040902054341015612d275760405162461bcd60e51b815260206004820152602a60248201527f6d73672e76616c75652073686f756c6420626520657175616c20746f2074686560448201526908189d5e505b5bdd5b9d60b21b6064820152608401610d7e565b6003546000858152600c60205260408120549091612d4d916103e891610fda9190614388565b6000868152600c602052604081205491925090612d6a9083614434565b9050612d7683826143d1565b50600854612d9c906001600160a01b0316612d976007610fda866005614388565b6143d1565b50600a54612dbd906001600160a01b0316612d976007610fda866002614388565b505050613143565b6000848152600c602052604090819020549051601290612de6908590614b57565b908152604051908190036020018120546370a0823160e01b82523360048301526001600160a01b0316906370a082319060240160206040518083038186803b158015612e3157600080fd5b505afa158015612e45573d6000803e3d6000fd5b505050506040513d601f19601f82011682018060405250810190612e69919061498c565b1015612ed25760405162461bcd60e51b815260206004820152603260248201527f746f6b656e2062616c616e63652073686f756c642062652067726561746572206044820152711d1a185b881d1a1948189d5e505b5bdd5b9d60721b6064820152608401610d7e565b6004546000858152600c60205260408120549091612ef8916103e891610fda9190614388565b6000868152600c602052604081205491925090612f159083614434565b9050601284604051612f279190614b57565b908152604051908190036020018120546323b872dd60e01b82526001600160a01b0316906323b872dd90612f6390339087908690600401614c0f565b602060405180830381600087803b158015612f7d57600080fd5b505af1158015612f91573d6000803e3d6000fd5b505050506040513d601f19601f82011682018060405250810190612fb59190614870565b612fbe57600080fd5b601284604051612fce9190614b57565b908152604051908190036020019020546008546001600160a01b03918216916323b872dd913391166130066005610fd488600761439b565b6040518463ffffffff1660e01b815260040161302493929190614c0f565b602060405180830381600087803b15801561303e57600080fd5b505af1158015613052573d6000803e3d6000fd5b505050506040513d601f19601f820116820180604052508101906130769190614870565b61307f57600080fd5b60128460405161308f9190614b57565b90815260405190819003602001902054600a546001600160a01b03918216916323b872dd913391166130c76002610fd488600761439b565b6040518463ffffffff1660e01b81526004016130e593929190614c0f565b602060405180830381600087803b1580156130ff57600080fd5b505af1158015613113573d6000803e3d6000fd5b505050506040513d601f19601f820116820180604052508101906131379190614870565b61314057600080fd5b50505b6007546040516323b872dd60e01b81526001600160a01b03909116906323b872dd9061317790309033908990600401614c0f565b600060405180830381600087803b15801561319157600080fd5b505af11580156131a5573d6000803e3d6000fd5b505050600085815260116020908152604080832080546001600160a01b03191633908117909155600d8352818420805460ff19169055600b8352818420889055600c83529281902087905580518781529182018890529192506001600160a01b038416917f46661dab58311a6838247afecbee792192b4f27fc8b3e7168c66bc55ec2e404e910160405180910390a350505050565b6000818152601160205260409020546001600160a01b031633146132705760405162461bcd60e51b8152600401610d7e90614ca1565b6000818152600d602052604090205460ff1615156001146132c45760405162461bcd60e51b815260206004820152600e60248201526d105b1c9958591e4818dbdb1cd95960921b6044820152606401610d7e565b6007546040516323b872dd60e01b81526001600160a01b03909116906323b872dd906132f890309033908690600401614c0f565b600060405180830381600087803b15801561331257600080fd5b505af1158015613326573d6000803e3d6000fd5b5050506000828152600d60209081526040808320805460ff19169055600b825280832054600c835281842055600e90915290206005015461010090046001600160a01b031633141590506133dd576000818152600e60205260408120818155600181018290556002810182905560038101829055906133a86004830182614516565b506005810180546001600160a81b03191690556006810180546001600160a01b03199081169091556007909101805490911690555b50565b6008546001600160a01b0316331480156134035750600a54600160a01b900460ff165b61341f5760405162461bcd60e51b8152600401610d7e90614cce565b600a805460ff60a81b191690556040513381527f5db9ee0a495bf2e6ff9c91a7834c1ba4fdd244a5e8aa4e537bd38aeae4b073aa90602001611a78565b600160008082825461346e9190614e7c565b9091555050600054600a54600160a81b900460ff16156134a05760405162461bcd60e51b8152600401610d7e90614d58565b6000828152600e60205260409020600201548290158015906134ca57506134c6816143a7565b4210155b6135165760405162461bcd60e51b815260206004820152601860248201527f41756374696f6e206861736e277420636f6d706c6574656400000000000000006044820152606401610d7e565b6000838152600e6020526040902060050154839061010090046001600160a01b031633148061355e57506000818152600e60205260409020600601546001600160a01b031633145b61357a5760405162461bcd60e51b8152600401610d7e90614d13565b6000848152600e60205260408120600681015481546005830154600490930180546001600160a01b039384169592946101009004909316926135bb90614f18565b80601f01602080910402602001604051908101604052809291908181526020018280546135e790614f18565b80156136345780601f1061360957610100808354040283529160200191613634565b820191906000526020600020905b81548152906001019060200180831161361757829003601f168201915b50505060008b8152600e60205260408120818155600181018290556002810182905560038101829055939450915061367190506004830182614516565b506005810180546001600160a81b03191690556006810180546001600160a01b03199081169091556007909101805490911690556001600160a01b038416613745576007546040516323b872dd60e01b81526001600160a01b03909116906323b872dd906136e790309086908d90600401614c0f565b600060405180830381600087803b15801561370157600080fd5b505af1158015613715573d6000803e3d6000fd5b505050600089815260116020526040902080546001600160a01b0319166001600160a01b03851617905550613b29565b6007546040516323b872dd60e01b81526001600160a01b03909116906323b872dd9061377990309088908d90600401614c0f565b600060405180830381600087803b15801561379357600080fd5b505af11580156137a7573d6000803e3d6000fd5b505050506040516020016137c4906221272160e91b815260030190565b60405160208183030381529060405280519060200120816040516020016137eb9190614b57565b60405160208183030381529060405280519060200120141561387d5760006138246103e8610fda6003548761438890919063ffffffff16565b905061383483612d978684614434565b50600854613855906001600160a01b0316612d976007610fda856005614388565b50600a54613876906001600160a01b0316612d976007610fda856002614388565b5050613b01565b600061389a6103e8610fda6004548761438890919063ffffffff16565b90506012826040516138ac9190614b57565b908152604051908190036020019020546001600160a01b031663a9059cbb846138d58785614434565b6040516001600160e01b031960e085901b1681526001600160a01b0390921660048301526024820152604401602060405180830381600087803b15801561391b57600080fd5b505af115801561392f573d6000803e3d6000fd5b505050506040513d601f19601f820116820180604052508101906139539190614870565b61395c57600080fd5b60128260405161396c9190614b57565b908152604051908190036020019020546008546001600160a01b039182169163a9059cbb91166139a26007610fda866005614388565b6040516001600160e01b031960e085901b1681526001600160a01b0390921660048301526024820152604401602060405180830381600087803b1580156139e857600080fd5b505af11580156139fc573d6000803e3d6000fd5b505050506040513d601f19601f82011682018060405250810190613a209190614870565b613a2957600080fd5b600a546040516001600160a01b039091169063a9059cbb90601490613a4f908690614b57565b908152604051908190036020019020546001600160a01b0316613a786007610fda866002614388565b6040516001600160e01b031960e085901b1681526001600160a01b0390921660048301526024820152604401602060405180830381600087803b158015613abe57600080fd5b505af1158015613ad2573d6000803e3d6000fd5b505050506040513d601f19601f82011682018060405250810190613af69190614870565b613aff57600080fd5b505b600088815260116020526040902080546001600160a01b0319166001600160a01b0386161790555b6000888152600d60209081526040808320805460ff19169055600754600f8352928190205481516001600160a01b039485168152868516938101939093528784168383015260608301879052929092166080820152905189917f28e48213ce86ac133ca69274548aa4243a6e2433eee55213af64b46a2e719caf919081900360a00190a2505050505050600054811461195457600080fd5b6001546001600160a01b03163314613beb5760405162461bcd60e51b8152600401610d7e90614c6c565b81601284604051613bfc9190614b57565b908152602001604051809103902060006101000a8154816001600160a01b0302191690836001600160a01b0316021790555080601484604051613c3f9190614b57565b90815260405190819003602001902080546001600160a01b03929092166001600160a01b0319909216919091179055505050565b6001600080828254613c859190614e7c565b9091555050600054600a54600160a81b900460ff1615613cb75760405162461bcd60e51b8152600401610d7e90614d58565b85613ce0816000908152600e602052604090206005015461010090046001600160a01b03161590565b613d255760405162461bcd60e51b815260206004820152601660248201527541756374696f6e20616c72656164792065786973747360501b6044820152606401610d7e565b6001600160a01b038316613d3857600080fd5b600087815260116020526040902080546001600160a01b03191633179055613d61878686614169565b6040805161012081018252600080825260208083018a815242848601818152606086018c8152608087018c8152603260a08901526001600160a01b03808d1660c08a015260e08901889052600854166101008901528f8752600e86529790952086518155925160018401555160028301559251600382015593518051929492613df09260048501920190614492565b5060a082015160058201805460c085015160ff9093166001600160a81b0319909116176101006001600160a01b0393841681029190911790915560e08401516006840180546001600160a01b031990811692851692909217905593015160079092018054909316911617905560405188907faf28756bc1e562d40cb95e5867314a58926ea413130138ca11b3b2d6db787c6190613e969084908b908b908b908b90614d84565b60405180910390a250506000548114613eae57600080fd5b505050505050565b6001546001600160a01b03163314613ee05760405162461bcd60e51b8152600401610d7e90614c6c565b6000601283604051613ef29190614b57565b908152604051908190036020018120546370a0823160e01b82523060048301526001600160a01b0316906370a082319060240160206040518083038186803b158015613f3d57600080fd5b505afa158015613f51573d6000803e3d6000fd5b505050506040513d601f19601f82011682018060405250810190613f75919061498c565b905080821115613fd65760405162461bcd60e51b815260206004820152602660248201527f496e73756666696369656e7420746f6b656e2062616c616e636520746f20776960448201526574686472617760d01b6064820152608401610d7e565b601283604051613fe69190614b57565b9081526040519081900360200181205463a9059cbb60e01b8252336004830152602482018390526001600160a01b03169063a9059cbb90604401602060405180830381600087803b15801561403a57600080fd5b505af115801561404e573d6000803e3d6000fd5b505050506040513d601f19601f820116820180604052508101906140729190614870565b61120e57600080fd5b6013602052600090815260409020805461409490614f18565b80601f01602080910402602001604051908101604052809291908181526020018280546140c090614f18565b801561410d5780601f106140e25761010080835404028352916020019161410d565b820191906000526020600020905b8154815290600101906020018083116140f057829003601f168201915b505050505081565b6001600160a01b03811660009081526015602052604081205460ff1661414d5760405162461bcd60e51b8152600401610d7e90614c46565b506001600160a01b031660009081526016602052604090205490565b6000838152601160205260409020546001600160a01b0316331461419f5760405162461bcd60e51b8152600401610d7e90614ca1565b6000838152600d602052604090205460ff16156141ef5760405162461bcd60e51b815260206004820152600e60248201526d105b1c9958591e481bdc195b995960921b6044820152606401610d7e565b6007546040516323b872dd60e01b81526001600160a01b03909116906323b872dd9061422390339030908890600401614c0f565b600060405180830381600087803b15801561423d57600080fd5b505af1158015614251573d6000803e3d6000fd5b5050506000848152600d60209081526040808320805460ff19166001179055600c82528083208690556013825290912083516118f593509091840190614492565b6001546001600160a01b031633146142bc5760405162461bcd60e51b8152600401610d7e90614c6c565b6001600160a01b0381166143215760405162461bcd60e51b815260206004820152602660248201527f4f776e61626c653a206e6577206f776e657220697320746865207a65726f206160448201526564647265737360d01b6064820152608401610d7e565b6133dd81614440565b6008546000906001600160a01b0316331480156143505750600a54600160a01b900460ff165b61436c5760405162461bcd60e51b8152600401610d7e90614cce565b600854614382906001600160a01b0316836143d1565b92915050565b60006143948284614eb6565b9392505050565b60006143948284614e94565b6000818152600e602052604081206001810154600290910154614382915b60006143948284614e7c565b600080836001600160a01b03168361753090604051600060405180830381858888f193505050503d8060008114614424576040519150601f19603f3d011682016040523d82523d6000602084013e614429565b606091505b509095945050505050565b60006143948284614ed5565b600180546001600160a01b038381166001600160a01b0319831681179093556040519116919082907f8be0079c531659141344cd1fd0a4f28419497f9722a3daafe3b4186f6b6457e090600090a35050565b82805461449e90614f18565b90600052602060002090601f0160209004810192826144c05760008555614506565b82601f106144d957805160ff1916838001178555614506565b82800160010185558215614506579182015b828111156145065782518255916020019190600101906144eb565b5061451292915061454c565b5090565b50805461452290614f18565b6000825580601f10614532575050565b601f0160209004906000526020600020908101906133dd91905b5b80821115614512576000815560010161454d565b600082601f83011261457257600080fd5b8135602061458761458283614e58565b614e27565b80838252828201915082860187848660051b89010111156145a757600080fd5b60005b858110156145cf5781356145bd81614fb0565b845292840192908401906001016145aa565b5090979650505050505050565b600082601f8301126145ed57600080fd5b813560206145fd61458283614e58565b80838252828201915082860187848660051b890101111561461d57600080fd5b60005b858110156145cf57813561463381614fc5565b84529284019290840190600101614620565b600082601f83011261465657600080fd5b8135602061466661458283614e58565b80838252828201915082860187848660051b890101111561468657600080fd5b60005b858110156145cf57813584529284019290840190600101614689565b600082601f8301126146b657600080fd5b813567ffffffffffffffff8111156146d0576146d0614f9a565b6146e3601f8201601f1916602001614e27565b8181528460208386010111156146f857600080fd5b816020850160208301376000918101602001919091529392505050565b60006020828403121561472757600080fd5b813561439481614fb0565b60006020828403121561474457600080fd5b815161439481614fb0565b6000806040838503121561476257600080fd5b823561476d81614fb0565b946020939093013593505050565b60008060008060008060c0878903121561479457600080fd5b863567ffffffffffffffff808211156147ac57600080fd5b6147b88a838b01614645565b975060208901359150808211156147ce57600080fd5b6147da8a838b01614561565b965060408901359150808211156147f057600080fd5b6147fc8a838b01614645565b9550606089013591508082111561481257600080fd5b61481e8a838b01614561565b9450608089013591508082111561483457600080fd5b6148408a838b01614645565b935060a089013591508082111561485657600080fd5b5061486389828a016145dc565b9150509295509295509295565b60006020828403121561488257600080fd5b815161439481614fc5565b60006020828403121561489f57600080fd5b813567ffffffffffffffff8111156148b657600080fd5b6148c2848285016146a5565b949350505050565b6000806000606084860312156148df57600080fd5b833567ffffffffffffffff8111156148f657600080fd5b614902868287016146a5565b935050602084013561491381614fb0565b9150604084013561492381614fb0565b809150509250925092565b6000806040838503121561494157600080fd5b823567ffffffffffffffff81111561495857600080fd5b614964858286016146a5565b95602094909401359450505050565b60006020828403121561498557600080fd5b5035919050565b60006020828403121561499e57600080fd5b5051919050565b600080604083850312156149b857600080fd5b82359150602083013567ffffffffffffffff8111156149d657600080fd5b6149e285828601614645565b9150509250929050565b600080604083850312156149ff57600080fd5b823591506020830135614a1181614fc5565b809150509250929050565b600080600060608486031215614a3157600080fd5b83359250602084013567ffffffffffffffff811115614a4f57600080fd5b614a5b868287016146a5565b925050604084013590509250925092565b600080600060608486031215614a8157600080fd5b8335925060208401359150604084013567ffffffffffffffff811115614aa657600080fd5b614ab2868287016146a5565b9150509250925092565b600080600080600060a08688031215614ad457600080fd5b853594506020860135935060408601359250606086013567ffffffffffffffff811115614b0057600080fd5b614b0c888289016146a5565b9250506080860135614b1d81614fb0565b809150509295509295909350565b60008151808452614b43816020860160208601614eec565b601f01601f19169290920160200192915050565b60008251614b69818460208701614eec565b9190910192915050565b600080835481600182811c915080831680614b8f57607f831692505b6020808410821415614baf57634e487b7160e01b86526022600452602486fd5b818015614bc35760018114614bd457614c01565b60ff19861689528489019650614c01565b60008a81526020902060005b86811015614bf95781548b820152908501908301614be0565b505084890196505b509498975050505050505050565b6001600160a01b039384168152919092166020820152604081019190915260600190565b6020815260006143946020830184614b2b565b6020808252600c908201526b2737ba10383937b6b7ba32b960a11b604082015260600190565b6020808252818101527f4f776e61626c653a2063616c6c6572206973206e6f7420746865206f776e6572604082015260600190565b60208082526013908201527239b2b73232b91034b9903737ba1037bbb732b960691b604082015260600190565b60208082526025908201527f43616c6c657220646f6573206e6f7420686176652061646d696e2070726976696040820152646c6567657360d81b606082015260800190565b60208082526025908201527f43616e206f6e6c792062652063616c6c65642062792061756374696f6e20437260408201526432b0ba37b960d91b606082015260800190565b60208082526012908201527110dbdb9d1c9858dd081a5cc81c185d5cd95960721b604082015260600190565b85815284602082015283604082015260a060608201526000614da960a0830185614b2b565b905060018060a01b03831660808301529695505050505050565b60006101208b83528a6020840152896040840152886060840152806080840152614def81840189614b2b565b60ff9790971660a084015250506001600160a01b0393841660c082015291831660e08301529091166101009091015295945050505050565b604051601f8201601f1916810167ffffffffffffffff81118282101715614e5057614e50614f9a565b604052919050565b600067ffffffffffffffff821115614e7257614e72614f9a565b5060051b60200190565b60008219821115614e8f57614e8f614f6e565b500190565b600082614eb157634e487b7160e01b600052601260045260246000fd5b500490565b6000816000190483118215151615614ed057614ed0614f6e565b500290565b600082821015614ee757614ee7614f6e565b500390565b60005b83811015614f07578181015183820152602001614eef565b838111156118f55750506000910152565b600181811c90821680614f2c57607f821691505b60208210811415614f4d57634e487b7160e01b600052602260045260246000fd5b50919050565b6000600019821415614f6757614f67614f6e565b5060010190565b634e487b7160e01b600052601160045260246000fd5b634e487b7160e01b600052603260045260246000fd5b634e487b7160e01b600052604160045260246000fd5b6001600160a01b03811681146133dd57600080fd5b80151581146133dd57600080fdfea2646970667358221220fe8c38fc58ae48c37c3888f22c52a7ff077e23152b5678c75beb2f11526f6a2064736f6c63430008070033",
  "linkReferences": {},
  "deployedLinkReferences": {}
}