{
  "_format": "hh-sol-artifact-1",
  "contractName": "BCNFT",
  "sourceName": "contracts/BCNFT.sol",
  "abi": [
    {
      "inputs": [],
      "stateMutability": "nonpayable",
      "type": "constructor"
    },
    {
      "anonymous": false,
      "inputs": [
        {
          "indexed": true,
          "internalType": "address",
          "name": "owner",
          "type": "address"
        },
        {
          "indexed": true,
          "internalType": "address",
          "name": "approved",
          "type": "address"
        },
        {
          "indexed": true,
          "internalType": "uint256",
          "name": "tokenId",
          "type": "uint256"
        }
      ],
      "name": "Approval",
      "type": "event"
    },
    {
      "anonymous": false,
      "inputs": [
        {
          "indexed": true,
          "internalType": "address",
          "name": "owner",
          "type": "address"
        },
        {
          "indexed": true,
          "internalType": "address",
          "name": "operator",
          "type": "address"
        },
        {
          "indexed": false,
          "internalType": "bool",
          "name": "approved",
          "type": "bool"
        }
      ],
      "name": "ApprovalForAll",
      "type": "event"
    },
    {
      "anonymous": false,
      "inputs": [
        {
          "indexed": true,
          "internalType": "address",
          "name": "previousOwner",
          "type": "address"
        },
        {
          "indexed": true,
          "internalType": "address",
          "name": "newOwner",
          "type": "address"
        }
      ],
      "name": "OwnershipTransferred",
      "type": "event"
    },
    {
      "anonymous": false,
      "inputs": [
        {
          "indexed": true,
          "internalType": "address",
          "name": "from",
          "type": "address"
        },
        {
          "indexed": true,
          "internalType": "address",
          "name": "to",
          "type": "address"
        },
        {
          "indexed": true,
          "internalType": "uint256",
          "name": "tokenId",
          "type": "uint256"
        }
      ],
      "name": "Transfer",
      "type": "event"
    },
    {
      "inputs": [
        {
          "internalType": "address",
          "name": "to",
          "type": "address"
        },
        {
          "internalType": "uint256",
          "name": "tokenId",
          "type": "uint256"
        }
      ],
      "name": "approve",
      "outputs": [],
      "stateMutability": "nonpayable",
      "type": "function"
    },
    {
      "inputs": [
        {
          "internalType": "address",
          "name": "_owner",
          "type": "address"
        }
      ],
      "name": "balanceOf",
      "outputs": [
        {
          "internalType": "uint256",
          "name": "",
          "type": "uint256"
        }
      ],
      "stateMutability": "view",
      "type": "function"
    },
    {
      "inputs": [
        {
          "internalType": "uint256",
          "name": "tokenId",
          "type": "uint256"
        }
      ],
      "name": "burn",
      "outputs": [],
      "stateMutability": "nonpayable",
      "type": "function"
    },
    {
      "inputs": [
        {
          "internalType": "address",
          "name": "_account",
          "type": "address"
        }
      ],
      "name": "checkAccountLevel",
      "outputs": [
        {
          "internalType": "uint256",
          "name": "",
          "type": "uint256"
        }
      ],
      "stateMutability": "view",
      "type": "function"
    },
    {
      "inputs": [
        {
          "internalType": "address",
          "name": "_account",
          "type": "address"
        }
      ],
      "name": "checkAccountLevels",
      "outputs": [
        {
          "internalType": "uint256[]",
          "name": "",
          "type": "uint256[]"
        }
      ],
      "stateMutability": "view",
      "type": "function"
    },
    {
      "inputs": [
        {
          "internalType": "uint256",
          "name": "tokenId",
          "type": "uint256"
        }
      ],
      "name": "getApproved",
      "outputs": [
        {
          "internalType": "address",
          "name": "",
          "type": "address"
        }
      ],
      "stateMutability": "view",
      "type": "function"
    },
    {
      "inputs": [
        {
          "internalType": "uint256",
          "name": "_id",
          "type": "uint256"
        }
      ],
      "name": "getTokenLevel",
      "outputs": [
        {
          "internalType": "uint256",
          "name": "",
          "type": "uint256"
        }
      ],
      "stateMutability": "view",
      "type": "function"
    },
    {
      "inputs": [
        {
          "internalType": "address",
          "name": "_owner",
          "type": "address"
        }
      ],
      "name": "getTokensOfOwner",
      "outputs": [
        {
          "internalType": "uint256[]",
          "name": "",
          "type": "uint256[]"
        }
      ],
      "stateMutability": "view",
      "type": "function"
    },
    {
      "inputs": [
        {
          "internalType": "address",
          "name": "owner",
          "type": "address"
        },
        {
          "internalType": "address",
          "name": "operator",
          "type": "address"
        }
      ],
      "name": "isApprovedForAll",
      "outputs": [
        {
          "internalType": "bool",
          "name": "",
          "type": "bool"
        }
      ],
      "stateMutability": "view",
      "type": "function"
    },
    {
      "inputs": [
        {
          "internalType": "uint256",
          "name": "_level",
          "type": "uint256"
        },
        {
          "internalType": "address",
          "name": "_to",
          "type": "address"
        }
      ],
      "name": "mint",
      "outputs": [
        {
          "internalType": "uint256",
          "name": "",
          "type": "uint256"
        }
      ],
      "stateMutability": "nonpayable",
      "type": "function"
    },
    {
      "inputs": [],
      "name": "name",
      "outputs": [
        {
          "internalType": "string",
          "name": "",
          "type": "string"
        }
      ],
      "stateMutability": "view",
      "type": "function"
    },
    {
      "inputs": [],
      "name": "owner",
      "outputs": [
        {
          "internalType": "address",
          "name": "",
          "type": "address"
        }
      ],
      "stateMutability": "view",
      "type": "function"
    },
    {
      "inputs": [
        {
          "internalType": "uint256",
          "name": "_id",
          "type": "uint256"
        }
      ],
      "name": "ownerOf",
      "outputs": [
        {
          "internalType": "address",
          "name": "",
          "type": "address"
        }
      ],
      "stateMutability": "view",
      "type": "function"
    },
    {
      "inputs": [],
      "name": "renounceOwnership",
      "outputs": [],
      "stateMutability": "nonpayable",
      "type": "function"
    },
    {
      "inputs": [
        {
          "internalType": "address",
          "name": "from",
          "type": "address"
        },
        {
          "internalType": "address",
          "name": "to",
          "type": "address"
        },
        {
          "internalType": "uint256",
          "name": "tokenId",
          "type": "uint256"
        }
      ],
      "name": "safeTransferFrom",
      "outputs": [],
      "stateMutability": "nonpayable",
      "type": "function"
    },
    {
      "inputs": [
        {
          "internalType": "address",
          "name": "from",
          "type": "address"
        },
        {
          "internalType": "address",
          "name": "to",
          "type": "address"
        },
        {
          "internalType": "uint256",
          "name": "tokenId",
          "type": "uint256"
        },
        {
          "internalType": "bytes",
          "name": "_data",
          "type": "bytes"
        }
      ],
      "name": "safeTransferFrom",
      "outputs": [],
      "stateMutability": "nonpayable",
      "type": "function"
    },
    {
      "inputs": [
        {
          "internalType": "address",
          "name": "operator",
          "type": "address"
        },
        {
          "internalType": "bool",
          "name": "approved",
          "type": "bool"
        }
      ],
      "name": "setApprovalForAll",
      "outputs": [],
      "stateMutability": "nonpayable",
      "type": "function"
    },
    {
      "inputs": [
        {
          "internalType": "string",
          "name": "_baseTokenURI",
          "type": "string"
        }
      ],
      "name": "setBaseTokenURI",
      "outputs": [],
      "stateMutability": "nonpayable",
      "type": "function"
    },
    {
      "inputs": [
        {
          "internalType": "uint256",
          "name": "_tokenId",
          "type": "uint256"
        },
        {
          "internalType": "string",
          "name": "_tokenURI",
          "type": "string"
        }
      ],
      "name": "setTokenURI",
      "outputs": [],
      "stateMutability": "nonpayable",
      "type": "function"
    },
    {
      "inputs": [
        {
          "internalType": "bytes4",
          "name": "interfaceId",
          "type": "bytes4"
        }
      ],
      "name": "supportsInterface",
      "outputs": [
        {
          "internalType": "bool",
          "name": "",
          "type": "bool"
        }
      ],
      "stateMutability": "view",
      "type": "function"
    },
    {
      "inputs": [],
      "name": "symbol",
      "outputs": [
        {
          "internalType": "string",
          "name": "",
          "type": "string"
        }
      ],
      "stateMutability": "view",
      "type": "function"
    },
    {
      "inputs": [
        {
          "internalType": "uint256",
          "name": "index",
          "type": "uint256"
        }
      ],
      "name": "tokenByIndex",
      "outputs": [
        {
          "internalType": "uint256",
          "name": "",
          "type": "uint256"
        }
      ],
      "stateMutability": "view",
      "type": "function"
    },
    {
      "inputs": [
        {
          "internalType": "address",
          "name": "owner",
          "type": "address"
        },
        {
          "internalType": "uint256",
          "name": "index",
          "type": "uint256"
        }
      ],
      "name": "tokenOfOwnerByIndex",
      "outputs": [
        {
          "internalType": "uint256",
          "name": "",
          "type": "uint256"
        }
      ],
      "stateMutability": "view",
      "type": "function"
    },
    {
      "inputs": [
        {
          "internalType": "uint256",
          "name": "tokenId",
          "type": "uint256"
        }
      ],
      "name": "tokenURI",
      "outputs": [
        {
          "internalType": "string",
          "name": "",
          "type": "string"
        }
      ],
      "stateMutability": "view",
      "type": "function"
    },
    {
      "inputs": [],
      "name": "totalSupply",
      "outputs": [
        {
          "internalType": "uint256",
          "name": "",
          "type": "uint256"
        }
      ],
      "stateMutability": "view",
      "type": "function"
    },
    {
      "inputs": [
        {
          "internalType": "address",
          "name": "from",
          "type": "address"
        },
        {
          "internalType": "address",
          "name": "to",
          "type": "address"
        },
        {
          "internalType": "uint256",
          "name": "tokenId",
          "type": "uint256"
        }
      ],
      "name": "transferFrom",
      "outputs": [],
      "stateMutability": "nonpayable",
      "type": "function"
    },
    {
      "inputs": [
        {
          "internalType": "address",
          "name": "newOwner",
          "type": "address"
        }
      ],
      "name": "transferOwnership",
      "outputs": [],
      "stateMutability": "nonpayable",
      "type": "function"
    }
  ],
  "bytecode": "0x60806040526000600d553480156200001657600080fd5b50604080518082018252600b81526a2129a7232a102a37b5b2b760a91b6020808301918252835180850190945260048452631094d39560e21b9084015281519192916200006691600091620000f5565b5080516200007c906001906020840190620000f5565b50505062000099620000936200009f60201b60201c565b620000a3565b620001d8565b3390565b600b80546001600160a01b038381166001600160a01b0319831681179093556040519116919082907f8be0079c531659141344cd1fd0a4f28419497f9722a3daafe3b4186f6b6457e090600090a35050565b82805462000103906200019b565b90600052602060002090601f01602090048101928262000127576000855562000172565b82601f106200014257805160ff191683800117855562000172565b8280016001018555821562000172579182015b828111156200017257825182559160200191906001019062000155565b506200018092915062000184565b5090565b5b8082111562000180576000815560010162000185565b600181811c90821680620001b057607f821691505b60208210811415620001d257634e487b7160e01b600052602260045260246000fd5b50919050565b6124d780620001e86000396000f3fe608060405234801561001057600080fd5b50600436106101a95760003560e01c80636352211e116100f9578063a22cb46511610097578063d011645c11610071578063d011645c1461038c578063df6110831461039f578063e985e9c5146103b2578063f2fde38b146103ee57600080fd5b8063a22cb46514610353578063b88d4fde14610366578063c87b56dd1461037957600080fd5b8063715018a6116100d3578063715018a61461031f5780638da5cb5b1461032757806394bf804d1461033857806395d89b411461034b57600080fd5b80636352211e146102e6578063664315e8146102f957806370a082311461030c57600080fd5b806323b872dd1161016657806342842e0e1161014057806342842e0e1461028d57806342966c68146102a05780634f6ccce7146102b35780635de6dc55146102c657600080fd5b806323b872dd146102545780632f745c591461026757806330176e131461027a57600080fd5b806301ffc9a7146101ae57806306fdde03146101d6578063081812fc146101eb578063095ea7b314610216578063162094c41461022b57806318160ddd1461023e575b600080fd5b6101c16101bc36600461208b565b610401565b60405190151581526020015b60405180910390f35b6101de610412565b6040516101cd9190612259565b6101fe6101f93660046120fa565b6104a4565b6040516001600160a01b0390911681526020016101cd565b610229610224366004612061565b61053e565b005b610229610239366004612136565b610654565b6102466106dc565b6040519081526020016101cd565b610229610262366004611f6d565b6106ec565b610246610275366004612061565b61071e565b6102296102883660046120c5565b6107b4565b61022961029b366004611f6d565b6107f5565b6102296102ae3660046120fa565b610810565b6102466102c13660046120fa565b61088a565b6102d96102d4366004611f1f565b61091d565b6040516101cd9190612215565b6101fe6102f43660046120fa565b6109bf565b6102d9610307366004611f1f565b6109ca565b61024661031a366004611f1f565b610abc565b610229610ac7565b600b546001600160a01b03166101fe565b610246610346366004612113565b610afd565b6101de610b37565b610229610361366004612025565b610b46565b610229610374366004611fa9565b610b51565b6101de6103873660046120fa565b610b89565b61024661039a3660046120fa565b610b94565b6102466103ad366004611f1f565b610bed565b6101c16103c0366004611f3a565b6001600160a01b03918216600090815260056020908152604080832093909416825291909152205460ff1690565b6102296103fc366004611f1f565b610de4565b600061040c82610e7c565b92915050565b606060008054610421906123b3565b80601f016020809104026020016040519081016040528092919081815260200182805461044d906123b3565b801561049a5780601f1061046f5761010080835404028352916020019161049a565b820191906000526020600020905b81548152906001019060200180831161047d57829003601f168201915b5050505050905090565b6000818152600260205260408120546001600160a01b03166105225760405162461bcd60e51b815260206004820152602c60248201527f4552433732313a20617070726f76656420717565727920666f72206e6f6e657860448201526b34b9ba32b73a103a37b5b2b760a11b60648201526084015b60405180910390fd5b506000908152600460205260409020546001600160a01b031690565b600061054982610ea1565b9050806001600160a01b0316836001600160a01b031614156105b75760405162461bcd60e51b815260206004820152602160248201527f4552433732313a20617070726f76616c20746f2063757272656e74206f776e656044820152603960f91b6064820152608401610519565b336001600160a01b03821614806105d357506105d381336103c0565b6106455760405162461bcd60e51b815260206004820152603860248201527f4552433732313a20617070726f76652063616c6c6572206973206e6f74206f7760448201527f6e6572206e6f7220617070726f76656420666f7220616c6c00000000000000006064820152608401610519565b61064f8383610f18565b505050565b61065d826109bf565b6001600160a01b0316336001600160a01b0316146106bd5760405162461bcd60e51b815260206004820152601760248201527f556e61626c6520746f2073657420746f6b656e205552490000000000000000006044820152606401610519565b6000828152600f60209081526040909120825161064f92840190611d9e565b60006106e760085490565b905090565b6106f7335b82610f86565b6107135760405162461bcd60e51b8152600401610519906122f3565b61064f83838361107d565b600061072983611224565b821061078b5760405162461bcd60e51b815260206004820152602b60248201527f455243373231456e756d657261626c653a206f776e657220696e646578206f7560448201526a74206f6620626f756e647360a81b6064820152608401610519565b506001600160a01b03919091166000908152600660209081526040808320938352929052205490565b600b546001600160a01b031633146107de5760405162461bcd60e51b8152600401610519906122be565b80516107f190600c906020840190611d9e565b5050565b61064f83838360405180602001604052806000815250610b51565b610819336106f1565b61087e5760405162461bcd60e51b815260206004820152603060248201527f4552433732314275726e61626c653a2063616c6c6572206973206e6f74206f7760448201526f1b995c881b9bdc88185c1c1c9bdd995960821b6064820152608401610519565b610887816112ab565b50565b600061089560085490565b82106108f85760405162461bcd60e51b815260206004820152602c60248201527f455243373231456e756d657261626c653a20676c6f62616c20696e646578206f60448201526b7574206f6620626f756e647360a01b6064820152608401610519565b6008828154811061090b5761090b61245f565b90600052602060002001549050919050565b6060600061092a83610abc565b905060008167ffffffffffffffff81111561094757610947612475565b604051908082528060200260200182016040528015610970578160200160208202803683370190505b50905060005b828110156109b757610988858261071e565b82828151811061099a5761099a61245f565b6020908102919091010152806109af816123ee565b915050610976565b509392505050565b600061040c82610ea1565b606060006109d783610abc565b11610a115760405162461bcd60e51b815260206004820152600a6024820152694e6f2062616c616e636560b01b6044820152606401610519565b6000610a1c83610abc565b905060008167ffffffffffffffff811115610a3957610a39612475565b604051908082528060200260200182016040528015610a62578160200160208202803683370190505b50905060005b828110156109b757600e6000610a7e878461071e565b815260200190815260200160002054828281518110610a9f57610a9f61245f565b602090810291909101015280610ab4816123ee565b915050610a68565b600061040c82611224565b600b546001600160a01b03163314610af15760405162461bcd60e51b8152600401610519906122be565b610afb60006112b4565b565b600d8054600091819083610b10836123ee565b90915550506000818152600e60205260409020849055610b308382611306565b9392505050565b606060018054610421906123b3565b6107f1338383611320565b610b5b3383610f86565b610b775760405162461bcd60e51b8152600401610519906122f3565b610b83848484846113ef565b50505050565b606061040c82611422565b6000600d548210610bda5760405162461bcd60e51b815260206004820152601060248201526f4e6f6e20657869737420746f6b656e2160801b6044820152606401610519565b506000908152600e602052604090205490565b60008080610bfa8461091d565b90506000806000806000805b8651811015610da75787600e6000898481518110610c2657610c2661245f565b60200260200101518152602001908152602001600020541115610c7357600e6000888381518110610c5957610c5961245f565b602002602001015181526020019081526020016000205497505b600e6000888381518110610c8957610c8961245f565b602002602001015181526020019081526020016000205460011415610cad57600195505b600e6000888381518110610cc357610cc361245f565b602002602001015181526020019081526020016000205460021415610ce757600194505b600e6000888381518110610cfd57610cfd61245f565b602002602001015181526020019081526020016000205460031415610d2157600193505b600e6000888381518110610d3757610d3761245f565b602002602001015181526020019081526020016000205460041415610d5b57600192505b600e6000888381518110610d7157610d7161245f565b602002602001015181526020019081526020016000205460051415610d9557600191505b80610d9f816123ee565b915050610c06565b50848015610db25750835b8015610dbb5750825b8015610dc45750815b8015610dcd5750805b15610dd757600696505b5094979650505050505050565b600b546001600160a01b03163314610e0e5760405162461bcd60e51b8152600401610519906122be565b6001600160a01b038116610e735760405162461bcd60e51b815260206004820152602660248201527f4f776e61626c653a206e6577206f776e657220697320746865207a65726f206160448201526564647265737360d01b6064820152608401610519565b610887816112b4565b60006001600160e01b0319821663780e9d6360e01b148061040c575061040c826115a1565b6000818152600260205260408120546001600160a01b03168061040c5760405162461bcd60e51b815260206004820152602960248201527f4552433732313a206f776e657220717565727920666f72206e6f6e657869737460448201526832b73a103a37b5b2b760b91b6064820152608401610519565b600081815260046020526040902080546001600160a01b0319166001600160a01b0384169081179091558190610f4d82610ea1565b6001600160a01b03167f8c5be1e5ebec7d5bd14f71427d1e84f3dd0314c0f7b2291e5b200ac8c7c3b92560405160405180910390a45050565b6000818152600260205260408120546001600160a01b0316610fff5760405162461bcd60e51b815260206004820152602c60248201527f4552433732313a206f70657261746f7220717565727920666f72206e6f6e657860448201526b34b9ba32b73a103a37b5b2b760a11b6064820152608401610519565b600061100a83610ea1565b9050806001600160a01b0316846001600160a01b031614806110455750836001600160a01b031661103a846104a4565b6001600160a01b0316145b8061107557506001600160a01b0380821660009081526005602090815260408083209388168352929052205460ff165b949350505050565b826001600160a01b031661109082610ea1565b6001600160a01b0316146110f45760405162461bcd60e51b815260206004820152602560248201527f4552433732313a207472616e736665722066726f6d20696e636f72726563742060448201526437bbb732b960d91b6064820152608401610519565b6001600160a01b0382166111565760405162461bcd60e51b8152602060048201526024808201527f4552433732313a207472616e7366657220746f20746865207a65726f206164646044820152637265737360e01b6064820152608401610519565b6111618383836115f1565b61116c600082610f18565b6001600160a01b0383166000908152600360205260408120805460019290611195908490612370565b90915550506001600160a01b03821660009081526003602052604081208054600192906111c3908490612344565b909155505060008181526002602052604080822080546001600160a01b0319166001600160a01b0386811691821790925591518493918716917fddf252ad1be2c89b69c2b068fc378daa952ba7f163c4a11628f55a4df523b3ef91a4505050565b60006001600160a01b03821661128f5760405162461bcd60e51b815260206004820152602a60248201527f4552433732313a2062616c616e636520717565727920666f7220746865207a65604482015269726f206164647265737360b01b6064820152608401610519565b506001600160a01b031660009081526003602052604090205490565b610887816115fc565b600b80546001600160a01b038381166001600160a01b0319831681179093556040519116919082907f8be0079c531659141344cd1fd0a4f28419497f9722a3daafe3b4186f6b6457e090600090a35050565b6107f182826040518060200160405280600081525061163c565b816001600160a01b0316836001600160a01b031614156113825760405162461bcd60e51b815260206004820152601960248201527f4552433732313a20617070726f766520746f2063616c6c6572000000000000006044820152606401610519565b6001600160a01b03838116600081815260056020908152604080832094871680845294825291829020805460ff191686151590811790915591519182527f17307eab39ab6107e8899845ad3d59bd9653f200f220920489ca2b5937696c31910160405180910390a3505050565b6113fa84848461107d565b6114068484848461166f565b610b835760405162461bcd60e51b81526004016105199061226c565b6000818152600260205260409020546060906001600160a01b03166114a35760405162461bcd60e51b815260206004820152603160248201527f45524337323155524953746f726167653a2055524920717565727920666f72206044820152703737b732bc34b9ba32b73a103a37b5b2b760791b6064820152608401610519565b6000828152600a6020526040812080546114bc906123b3565b80601f01602080910402602001604051908101604052809291908181526020018280546114e8906123b3565b80156115355780601f1061150a57610100808354040283529160200191611535565b820191906000526020600020905b81548152906001019060200180831161151857829003601f168201915b50505050509050600061155360408051602081019091526000815290565b9050805160001415611566575092915050565b8151156115985780826040516020016115809291906121a9565b60405160208183030381529060405292505050919050565b6110758461177c565b60006001600160e01b031982166380ac58cd60e01b14806115d257506001600160e01b03198216635b5e139f60e01b145b8061040c57506301ffc9a760e01b6001600160e01b031983161461040c565b61064f838383611863565b6116058161191b565b6000818152600a60205260409020805461161e906123b3565b159050610887576000818152600a6020526040812061088791611e22565b61164683836119c2565b611653600084848461166f565b61064f5760405162461bcd60e51b81526004016105199061226c565b60006001600160a01b0384163b1561177157604051630a85bd0160e11b81526001600160a01b0385169063150b7a02906116b39033908990889088906004016121d8565b602060405180830381600087803b1580156116cd57600080fd5b505af19250505080156116fd575060408051601f3d908101601f191682019092526116fa918101906120a8565b60015b611757573d80801561172b576040519150601f19603f3d011682016040523d82523d6000602084013e611730565b606091505b50805161174f5760405162461bcd60e51b81526004016105199061226c565b805181602001fd5b6001600160e01b031916630a85bd0160e11b149050611075565b506001949350505050565b6000818152600260205260409020546060906001600160a01b03166117fb5760405162461bcd60e51b815260206004820152602f60248201527f4552433732314d657461646174613a2055524920717565727920666f72206e6f60448201526e3732bc34b9ba32b73a103a37b5b2b760891b6064820152608401610519565b600061181260408051602081019091526000815290565b905060008151116118325760405180602001604052806000815250610b30565b8061183c84611b10565b60405160200161184d9291906121a9565b6040516020818303038152906040529392505050565b6001600160a01b0383166118be576118b981600880546000838152600960205260408120829055600182018355919091527ff3f7a9fe364faab93b216da50a3214154f22a0a2b415b23a84c8169e8b636ee30155565b6118e1565b816001600160a01b0316836001600160a01b0316146118e1576118e18382611c0e565b6001600160a01b0382166118f85761064f81611cab565b826001600160a01b0316826001600160a01b03161461064f5761064f8282611d5a565b600061192682610ea1565b9050611934816000846115f1565b61193f600083610f18565b6001600160a01b0381166000908152600360205260408120805460019290611968908490612370565b909155505060008281526002602052604080822080546001600160a01b0319169055518391906001600160a01b038416907fddf252ad1be2c89b69c2b068fc378daa952ba7f163c4a11628f55a4df523b3ef908390a45050565b6001600160a01b038216611a185760405162461bcd60e51b815260206004820181905260248201527f4552433732313a206d696e7420746f20746865207a65726f20616464726573736044820152606401610519565b6000818152600260205260409020546001600160a01b031615611a7d5760405162461bcd60e51b815260206004820152601c60248201527f4552433732313a20746f6b656e20616c7265616479206d696e746564000000006044820152606401610519565b611a89600083836115f1565b6001600160a01b0382166000908152600360205260408120805460019290611ab2908490612344565b909155505060008181526002602052604080822080546001600160a01b0319166001600160a01b03861690811790915590518392907fddf252ad1be2c89b69c2b068fc378daa952ba7f163c4a11628f55a4df523b3ef908290a45050565b606081611b345750506040805180820190915260018152600360fc1b602082015290565b8160005b8115611b5e5780611b48816123ee565b9150611b579050600a8361235c565b9150611b38565b60008167ffffffffffffffff811115611b7957611b79612475565b6040519080825280601f01601f191660200182016040528015611ba3576020820181803683370190505b5090505b841561107557611bb8600183612370565b9150611bc5600a86612409565b611bd0906030612344565b60f81b818381518110611be557611be561245f565b60200101906001600160f81b031916908160001a905350611c07600a8661235c565b9450611ba7565b60006001611c1b84611224565b611c259190612370565b600083815260076020526040902054909150808214611c78576001600160a01b03841660009081526006602090815260408083208584528252808320548484528184208190558352600790915290208190555b5060009182526007602090815260408084208490556001600160a01b039094168352600681528383209183525290812055565b600854600090611cbd90600190612370565b60008381526009602052604081205460088054939450909284908110611ce557611ce561245f565b906000526020600020015490508060088381548110611d0657611d0661245f565b6000918252602080832090910192909255828152600990915260408082208490558582528120556008805480611d3e57611d3e612449565b6001900381819060005260206000200160009055905550505050565b6000611d6583611224565b6001600160a01b039093166000908152600660209081526040808320868452825280832085905593825260079052919091209190915550565b828054611daa906123b3565b90600052602060002090601f016020900481019282611dcc5760008555611e12565b82601f10611de557805160ff1916838001178555611e12565b82800160010185558215611e12579182015b82811115611e12578251825591602001919060010190611df7565b50611e1e929150611e58565b5090565b508054611e2e906123b3565b6000825580601f10611e3e575050565b601f01602090049060005260206000209081019061088791905b5b80821115611e1e5760008155600101611e59565b600067ffffffffffffffff80841115611e8857611e88612475565b604051601f8501601f19908116603f01168101908282118183101715611eb057611eb0612475565b81604052809350858152868686011115611ec957600080fd5b858560208301376000602087830101525050509392505050565b80356001600160a01b0381168114611efa57600080fd5b919050565b600082601f830112611f1057600080fd5b610b3083833560208501611e6d565b600060208284031215611f3157600080fd5b610b3082611ee3565b60008060408385031215611f4d57600080fd5b611f5683611ee3565b9150611f6460208401611ee3565b90509250929050565b600080600060608486031215611f8257600080fd5b611f8b84611ee3565b9250611f9960208501611ee3565b9150604084013590509250925092565b60008060008060808587031215611fbf57600080fd5b611fc885611ee3565b9350611fd660208601611ee3565b925060408501359150606085013567ffffffffffffffff811115611ff957600080fd5b8501601f8101871361200a57600080fd5b61201987823560208401611e6d565b91505092959194509250565b6000806040838503121561203857600080fd5b61204183611ee3565b91506020830135801515811461205657600080fd5b809150509250929050565b6000806040838503121561207457600080fd5b61207d83611ee3565b946020939093013593505050565b60006020828403121561209d57600080fd5b8135610b308161248b565b6000602082840312156120ba57600080fd5b8151610b308161248b565b6000602082840312156120d757600080fd5b813567ffffffffffffffff8111156120ee57600080fd5b61107584828501611eff565b60006020828403121561210c57600080fd5b5035919050565b6000806040838503121561212657600080fd5b82359150611f6460208401611ee3565b6000806040838503121561214957600080fd5b82359150602083013567ffffffffffffffff81111561216757600080fd5b61217385828601611eff565b9150509250929050565b60008151808452612195816020860160208601612387565b601f01601f19169290920160200192915050565b600083516121bb818460208801612387565b8351908301906121cf818360208801612387565b01949350505050565b6001600160a01b038581168252841660208201526040810183905260806060820181905260009061220b9083018461217d565b9695505050505050565b6020808252825182820181905260009190848201906040850190845b8181101561224d57835183529284019291840191600101612231565b50909695505050505050565b602081526000610b30602083018461217d565b60208082526032908201527f4552433732313a207472616e7366657220746f206e6f6e20455243373231526560408201527131b2b4bb32b91034b6b83632b6b2b73a32b960711b606082015260800190565b6020808252818101527f4f776e61626c653a2063616c6c6572206973206e6f7420746865206f776e6572604082015260600190565b60208082526031908201527f4552433732313a207472616e736665722063616c6c6572206973206e6f74206f6040820152701ddb995c881b9bdc88185c1c1c9bdd9959607a1b606082015260800190565b600082198211156123575761235761241d565b500190565b60008261236b5761236b612433565b500490565b6000828210156123825761238261241d565b500390565b60005b838110156123a257818101518382015260200161238a565b83811115610b835750506000910152565b600181811c908216806123c757607f821691505b602082108114156123e857634e487b7160e01b600052602260045260246000fd5b50919050565b60006000198214156124025761240261241d565b5060010190565b60008261241857612418612433565b500690565b634e487b7160e01b600052601160045260246000fd5b634e487b7160e01b600052601260045260246000fd5b634e487b7160e01b600052603160045260246000fd5b634e487b7160e01b600052603260045260246000fd5b634e487b7160e01b600052604160045260246000fd5b6001600160e01b03198116811461088757600080fdfea2646970667358221220b19f2b005a024f5db0213794211b05fae321c795ba4e186a91655f5c6a6c9c1564736f6c63430008070033",
  "linkReferences": {},
  "deployedLinkReferences": {}
}