{
  "_format": "hh-sol-artifact-1",
  "contractName": "Odin",
  "sourceName": "contracts/Odin.sol",
  "abi": [
    {
      "inputs": [
        {
          "internalType": "address",
          "name": "_nftAddress",
          "type": "address"
        },
        {
          "internalType": "address payable",
          "name": "routerAddress",
          "type": "address"
        },
        {
          "internalType": "address",
          "name": "_usdtAddress",
          "type": "address"
        },
        {
          "internalType": "address",
          "name": "stakingAddress",
          "type": "address"
        },
        {
          "internalType": "uint256",
          "name": "_presaleEndsIn",
          "type": "uint256"
        }
      ],
      "stateMutability": "nonpayable",
      "type": "constructor"
    },
    {
      "anonymous": false,
      "inputs": [
        {
          "indexed": true,
          "internalType": "address",
          "name": "owner",
          "type": "address"
        },
        {
          "indexed": true,
          "internalType": "address",
          "name": "spender",
          "type": "address"
        },
        {
          "indexed": false,
          "internalType": "uint256",
          "name": "value",
          "type": "uint256"
        }
      ],
      "name": "Approval",
      "type": "event"
    },
    {
      "anonymous": false,
      "inputs": [
        {
          "indexed": true,
          "internalType": "address",
          "name": "previousOwner",
          "type": "address"
        },
        {
          "indexed": true,
          "internalType": "address",
          "name": "newOwner",
          "type": "address"
        }
      ],
      "name": "OwnershipTransferred",
      "type": "event"
    },
    {
      "anonymous": false,
      "inputs": [
        {
          "indexed": false,
          "internalType": "uint256",
          "name": "tokensSwapped",
          "type": "uint256"
        },
        {
          "indexed": false,
          "internalType": "uint256",
          "name": "usdtReceived",
          "type": "uint256"
        },
        {
          "indexed": false,
          "internalType": "uint256",
          "name": "tokensIntoLiqudity",
          "type": "uint256"
        }
      ],
      "name": "SwapAndLiquify",
      "type": "event"
    },
    {
      "anonymous": false,
      "inputs": [
        {
          "indexed": true,
          "internalType": "address",
          "name": "from",
          "type": "address"
        },
        {
          "indexed": true,
          "internalType": "address",
          "name": "to",
          "type": "address"
        },
        {
          "indexed": false,
          "internalType": "uint256",
          "name": "value",
          "type": "uint256"
        }
      ],
      "name": "Transfer",
      "type": "event"
    },
    {
      "inputs": [],
      "name": "_maxTxAmount",
      "outputs": [
        {
          "internalType": "uint256",
          "name": "",
          "type": "uint256"
        }
      ],
      "stateMutability": "view",
      "type": "function"
    },
    {
      "inputs": [],
      "name": "_rewardFee",
      "outputs": [
        {
          "internalType": "uint256",
          "name": "",
          "type": "uint256"
        }
      ],
      "stateMutability": "view",
      "type": "function"
    },
    {
      "inputs": [],
      "name": "_stakingFee",
      "outputs": [
        {
          "internalType": "uint256",
          "name": "",
          "type": "uint256"
        }
      ],
      "stateMutability": "view",
      "type": "function"
    },
    {
      "inputs": [],
      "name": "_taxFee",
      "outputs": [
        {
          "internalType": "uint256",
          "name": "",
          "type": "uint256"
        }
      ],
      "stateMutability": "view",
      "type": "function"
    },
    {
      "inputs": [],
      "name": "_taxNFTFee",
      "outputs": [
        {
          "internalType": "uint256",
          "name": "",
          "type": "uint256"
        }
      ],
      "stateMutability": "view",
      "type": "function"
    },
    {
      "inputs": [
        {
          "internalType": "address",
          "name": "owner",
          "type": "address"
        },
        {
          "internalType": "address",
          "name": "spender",
          "type": "address"
        }
      ],
      "name": "allowance",
      "outputs": [
        {
          "internalType": "uint256",
          "name": "",
          "type": "uint256"
        }
      ],
      "stateMutability": "view",
      "type": "function"
    },
    {
      "inputs": [
        {
          "internalType": "address",
          "name": "spender",
          "type": "address"
        },
        {
          "internalType": "uint256",
          "name": "amount",
          "type": "uint256"
        }
      ],
      "name": "approve",
      "outputs": [
        {
          "internalType": "bool",
          "name": "",
          "type": "bool"
        }
      ],
      "stateMutability": "nonpayable",
      "type": "function"
    },
    {
      "inputs": [],
      "name": "autoLiquidity",
      "outputs": [
        {
          "internalType": "uint256",
          "name": "",
          "type": "uint256"
        }
      ],
      "stateMutability": "view",
      "type": "function"
    },
    {
      "inputs": [
        {
          "internalType": "address",
          "name": "account",
          "type": "address"
        }
      ],
      "name": "balanceOf",
      "outputs": [
        {
          "internalType": "uint256",
          "name": "",
          "type": "uint256"
        }
      ],
      "stateMutability": "view",
      "type": "function"
    },
    {
      "inputs": [],
      "name": "charityMinimum",
      "outputs": [
        {
          "internalType": "uint256",
          "name": "",
          "type": "uint256"
        }
      ],
      "stateMutability": "view",
      "type": "function"
    },
    {
      "inputs": [],
      "name": "dailyAddress",
      "outputs": [
        {
          "internalType": "address",
          "name": "",
          "type": "address"
        }
      ],
      "stateMutability": "view",
      "type": "function"
    },
    {
      "inputs": [],
      "name": "decimals",
      "outputs": [
        {
          "internalType": "uint8",
          "name": "",
          "type": "uint8"
        }
      ],
      "stateMutability": "view",
      "type": "function"
    },
    {
      "inputs": [
        {
          "internalType": "address",
          "name": "spender",
          "type": "address"
        },
        {
          "internalType": "uint256",
          "name": "subtractedValue",
          "type": "uint256"
        }
      ],
      "name": "decreaseAllowance",
      "outputs": [
        {
          "internalType": "bool",
          "name": "",
          "type": "bool"
        }
      ],
      "stateMutability": "nonpayable",
      "type": "function"
    },
    {
      "inputs": [
        {
          "internalType": "address",
          "name": "account",
          "type": "address"
        }
      ],
      "name": "excludeFromFee",
      "outputs": [],
      "stateMutability": "nonpayable",
      "type": "function"
    },
    {
      "inputs": [
        {
          "internalType": "address",
          "name": "account",
          "type": "address"
        }
      ],
      "name": "excludeFromReward",
      "outputs": [],
      "stateMutability": "nonpayable",
      "type": "function"
    },
    {
      "inputs": [],
      "name": "getStakingAddress",
      "outputs": [
        {
          "internalType": "address",
          "name": "",
          "type": "address"
        }
      ],
      "stateMutability": "view",
      "type": "function"
    },
    {
      "inputs": [],
      "name": "hourlyAddress",
      "outputs": [
        {
          "internalType": "address",
          "name": "",
          "type": "address"
        }
      ],
      "stateMutability": "view",
      "type": "function"
    },
    {
      "inputs": [],
      "name": "iBCNFT",
      "outputs": [
        {
          "internalType": "contract IBCNFT",
          "name": "",
          "type": "address"
        }
      ],
      "stateMutability": "view",
      "type": "function"
    },
    {
      "inputs": [
        {
          "internalType": "address",
          "name": "account",
          "type": "address"
        }
      ],
      "name": "includeInFee",
      "outputs": [],
      "stateMutability": "nonpayable",
      "type": "function"
    },
    {
      "inputs": [
        {
          "internalType": "address",
          "name": "account",
          "type": "address"
        }
      ],
      "name": "includeInReward",
      "outputs": [],
      "stateMutability": "nonpayable",
      "type": "function"
    },
    {
      "inputs": [
        {
          "internalType": "address",
          "name": "spender",
          "type": "address"
        },
        {
          "internalType": "uint256",
          "name": "addedValue",
          "type": "uint256"
        }
      ],
      "name": "increaseAllowance",
      "outputs": [
        {
          "internalType": "bool",
          "name": "",
          "type": "bool"
        }
      ],
      "stateMutability": "nonpayable",
      "type": "function"
    },
    {
      "inputs": [
        {
          "internalType": "address",
          "name": "account",
          "type": "address"
        }
      ],
      "name": "isExcludedFromFee",
      "outputs": [
        {
          "internalType": "bool",
          "name": "",
          "type": "bool"
        }
      ],
      "stateMutability": "view",
      "type": "function"
    },
    {
      "inputs": [
        {
          "internalType": "address",
          "name": "account",
          "type": "address"
        }
      ],
      "name": "isExcludedFromReward",
      "outputs": [
        {
          "internalType": "bool",
          "name": "",
          "type": "bool"
        }
      ],
      "stateMutability": "view",
      "type": "function"
    },
    {
      "inputs": [
        {
          "internalType": "uint256",
          "name": "",
          "type": "uint256"
        }
      ],
      "name": "levelFees",
      "outputs": [
        {
          "internalType": "uint256",
          "name": "",
          "type": "uint256"
        }
      ],
      "stateMutability": "view",
      "type": "function"
    },
    {
      "inputs": [],
      "name": "lotteryDaily",
      "outputs": [
        {
          "internalType": "uint256",
          "name": "",
          "type": "uint256"
        }
      ],
      "stateMutability": "view",
      "type": "function"
    },
    {
      "inputs": [],
      "name": "lotteryHourly",
      "outputs": [
        {
          "internalType": "uint256",
          "name": "",
          "type": "uint256"
        }
      ],
      "stateMutability": "view",
      "type": "function"
    },
    {
      "inputs": [],
      "name": "lotteryLimitAmount",
      "outputs": [
        {
          "internalType": "uint256",
          "name": "",
          "type": "uint256"
        }
      ],
      "stateMutability": "view",
      "type": "function"
    },
    {
      "inputs": [
        {
          "internalType": "address",
          "name": "_winner",
          "type": "address"
        }
      ],
      "name": "lotteryTransfer",
      "outputs": [],
      "stateMutability": "nonpayable",
      "type": "function"
    },
    {
      "inputs": [],
      "name": "name",
      "outputs": [
        {
          "internalType": "string",
          "name": "",
          "type": "string"
        }
      ],
      "stateMutability": "view",
      "type": "function"
    },
    {
      "inputs": [],
      "name": "owner",
      "outputs": [
        {
          "internalType": "address",
          "name": "",
          "type": "address"
        }
      ],
      "stateMutability": "view",
      "type": "function"
    },
    {
      "inputs": [],
      "name": "pancakePair",
      "outputs": [
        {
          "internalType": "address",
          "name": "",
          "type": "address"
        }
      ],
      "stateMutability": "view",
      "type": "function"
    },
    {
      "inputs": [],
      "name": "pancakeRouter",
      "outputs": [
        {
          "internalType": "contract IPancakeRouter02",
          "name": "",
          "type": "address"
        }
      ],
      "stateMutability": "view",
      "type": "function"
    },
    {
      "inputs": [],
      "name": "pausedLottery",
      "outputs": [
        {
          "internalType": "bool",
          "name": "",
          "type": "bool"
        }
      ],
      "stateMutability": "view",
      "type": "function"
    },
    {
      "inputs": [],
      "name": "presaleEndsIn",
      "outputs": [
        {
          "internalType": "uint256",
          "name": "",
          "type": "uint256"
        }
      ],
      "stateMutability": "view",
      "type": "function"
    },
    {
      "inputs": [
        {
          "internalType": "uint256",
          "name": "tAmount",
          "type": "uint256"
        },
        {
          "internalType": "bool",
          "name": "deductTransferFee",
          "type": "bool"
        },
        {
          "internalType": "address",
          "name": "_account",
          "type": "address"
        }
      ],
      "name": "reflectionFromToken",
      "outputs": [
        {
          "internalType": "uint256",
          "name": "",
          "type": "uint256"
        }
      ],
      "stateMutability": "view",
      "type": "function"
    },
    {
      "inputs": [],
      "name": "renounceOwnership",
      "outputs": [],
      "stateMutability": "nonpayable",
      "type": "function"
    },
    {
      "inputs": [
        {
          "internalType": "uint256",
          "name": "seed",
          "type": "uint256"
        }
      ],
      "name": "selectWinner",
      "outputs": [
        {
          "internalType": "address",
          "name": "",
          "type": "address"
        }
      ],
      "stateMutability": "view",
      "type": "function"
    },
    {
      "inputs": [
        {
          "internalType": "address",
          "name": "_dailyAddress",
          "type": "address"
        },
        {
          "internalType": "address",
          "name": "_hourlyAddress",
          "type": "address"
        }
      ],
      "name": "setLotteryAddress",
      "outputs": [],
      "stateMutability": "nonpayable",
      "type": "function"
    },
    {
      "inputs": [
        {
          "internalType": "uint256",
          "name": "_lotteryLimit",
          "type": "uint256"
        }
      ],
      "name": "setLotteryLimit",
      "outputs": [],
      "stateMutability": "nonpayable",
      "type": "function"
    },
    {
      "inputs": [],
      "name": "setLotteryState",
      "outputs": [],
      "stateMutability": "nonpayable",
      "type": "function"
    },
    {
      "inputs": [
        {
          "internalType": "uint256",
          "name": "maxTxPercent",
          "type": "uint256"
        }
      ],
      "name": "setMaxTxPercent",
      "outputs": [],
      "stateMutability": "nonpayable",
      "type": "function"
    },
    {
      "inputs": [
        {
          "internalType": "address",
          "name": "_new",
          "type": "address"
        }
      ],
      "name": "setStakingAddress",
      "outputs": [],
      "stateMutability": "nonpayable",
      "type": "function"
    },
    {
      "inputs": [
        {
          "internalType": "uint256",
          "name": "taxFee",
          "type": "uint256"
        }
      ],
      "name": "setTaxFeePercent",
      "outputs": [],
      "stateMutability": "nonpayable",
      "type": "function"
    },
    {
      "inputs": [],
      "name": "stakingMinimum",
      "outputs": [
        {
          "internalType": "uint256",
          "name": "",
          "type": "uint256"
        }
      ],
      "stateMutability": "view",
      "type": "function"
    },
    {
      "inputs": [
        {
          "internalType": "address",
          "name": "_routerAddress",
          "type": "address"
        },
        {
          "internalType": "uint256",
          "name": "tokenAmount",
          "type": "uint256"
        },
        {
          "internalType": "address",
          "name": "_usdtAddress",
          "type": "address"
        }
      ],
      "name": "swapTokensForUSDT",
      "outputs": [],
      "stateMutability": "nonpayable",
      "type": "function"
    },
    {
      "inputs": [],
      "name": "symbol",
      "outputs": [
        {
          "internalType": "string",
          "name": "",
          "type": "string"
        }
      ],
      "stateMutability": "view",
      "type": "function"
    },
    {
      "inputs": [
        {
          "internalType": "uint256",
          "name": "rAmount",
          "type": "uint256"
        }
      ],
      "name": "tokenFromReflection",
      "outputs": [
        {
          "internalType": "uint256",
          "name": "",
          "type": "uint256"
        }
      ],
      "stateMutability": "view",
      "type": "function"
    },
    {
      "inputs": [],
      "name": "totalFees",
      "outputs": [
        {
          "internalType": "uint256",
          "name": "",
          "type": "uint256"
        }
      ],
      "stateMutability": "view",
      "type": "function"
    },
    {
      "inputs": [],
      "name": "totalSupply",
      "outputs": [
        {
          "internalType": "uint256",
          "name": "",
          "type": "uint256"
        }
      ],
      "stateMutability": "view",
      "type": "function"
    },
    {
      "inputs": [
        {
          "internalType": "address",
          "name": "recipient",
          "type": "address"
        },
        {
          "internalType": "uint256",
          "name": "amount",
          "type": "uint256"
        }
      ],
      "name": "transfer",
      "outputs": [
        {
          "internalType": "bool",
          "name": "",
          "type": "bool"
        }
      ],
      "stateMutability": "nonpayable",
      "type": "function"
    },
    {
      "inputs": [
        {
          "internalType": "address",
          "name": "sender",
          "type": "address"
        },
        {
          "internalType": "address",
          "name": "recipient",
          "type": "address"
        },
        {
          "internalType": "uint256",
          "name": "amount",
          "type": "uint256"
        }
      ],
      "name": "transferFrom",
      "outputs": [
        {
          "internalType": "bool",
          "name": "",
          "type": "bool"
        }
      ],
      "stateMutability": "nonpayable",
      "type": "function"
    },
    {
      "inputs": [
        {
          "internalType": "address",
          "name": "newOwner",
          "type": "address"
        }
      ],
      "name": "transferOwnership",
      "outputs": [],
      "stateMutability": "nonpayable",
      "type": "function"
    },
    {
      "inputs": [],
      "name": "usdtAddress",
      "outputs": [
        {
          "internalType": "address",
          "name": "",
          "type": "address"
        }
      ],
      "stateMutability": "view",
      "type": "function"
    }
  ],
  "bytecode": "0x610120604052600760e0819052664f64696e65756d60c81b6101009081526200002a91908162000598565b506040805180820190915260048082526327a224a760e11b6020909201918252620000589160089162000598565b506009805460ff191660129081179091556200007690600a620007c0565b6200008690633b9aca006200087f565b600a8190556200009990600019620008f8565b620000a790600019620008a1565b600b556000600d556101f4600e819055600f819055610320601081905560115561012c60128190556013819055601482905560158290556040805160c081018252603281526064602082015260969181019190915260c86060820152608081019190915260a08101919091526200012390601690600662000627565b506016805462000136916017916200066b565b50620001756064620001616103e8620001616001600a546200052360201b620016851790919060201c565b6200053a60201b620016911790919060201c565b60185560646019818155601a91909155601b55604b601c55600954620001a09060ff16600a620007c0565b620001b0906301312d006200087f565b601d55601e80546001600160a01b03191673bda2e26669eb6db2a460a9018b16495bcccf6f0a179055600954620001ec9060ff16600a620007c0565b620001fb90620f42406200087f565b602155600954620002119060ff16600a620007c0565b6200021f906127106200087f565b602255600954620002359060ff16600a620007c0565b62000243906127106200087f565b6023556024805460ff191690553480156200025d57600080fd5b5060405162003d6238038062003d628339810160408190526200028091620006ec565b6200028b3362000548565b8042106200029857600080fd5b60268190556001600160601b0319606086901b1660c052600980546001600160a01b0385811661010002610100600160a81b0319909216919091179091556040805163c45a015560e01b81529051869283169163c45a0155916004808301926020929190829003018186803b1580156200031157600080fd5b505afa15801562000326573d6000803e3d6000fd5b505050506040513d601f19601f820116820180604052508101906200034c9190620006c5565b6009546040516364e329cb60e11b81523060048201526001600160a01b036101009092048216602482015291169063c9c6539690604401602060405180830381600087803b1580156200039e57600080fd5b505af1158015620003b3573d6000803e3d6000fd5b505050506040513d601f19601f82011682018060405250810190620003d99190620006c5565b6001600160601b0319606091821b811660a0529082901b16608052600b5460016000620004033390565b6001600160a01b0390811682526020808301939093526040918201600090812094909455601e54601f80546001600160a01b0319908116928416928317825585548a8516911617855590855260028452828520859055541683526001918290528220829055906004906200047f6000546001600160a01b031690565b6001600160a01b0316815260208082019290925260409081016000908120805494151560ff199586161790553081526004909252902080549091166001179055620004c73390565b6001600160a01b031660006001600160a01b03167fddf252ad1be2c89b69c2b068fc378daa952ba7f163c4a11628f55a4df523b3ef600a546040516200050f91815260200190565b60405180910390a350505050505062000954565b60006200053182846200087f565b90505b92915050565b600062000531828462000760565b600080546001600160a01b038381166001600160a01b0319831681178455604051919092169283917f8be0079c531659141344cd1fd0a4f28419497f9722a3daafe3b4186f6b6457e09190a35050565b828054620005a690620008bb565b90600052602060002090601f016020900481019282620005ca576000855562000615565b82601f10620005e557805160ff191683800117855562000615565b8280016001018555821562000615579182015b8281111562000615578251825591602001919060010190620005f8565b5062000623929150620006ae565b5090565b82805482825590600052602060002090810192821562000615579160200282015b8281111562000615578251829061ffff1690559160200191906001019062000648565b828054828255906000526020600020908101928215620006155760005260206000209182015b828111156200061557825482559160010191906001019062000691565b5b80821115620006235760008155600101620006af565b600060208284031215620006d857600080fd5b8151620006e5816200093b565b9392505050565b600080600080600060a086880312156200070557600080fd5b855162000712816200093b565b602087015190955062000725816200093b565b604087015190945062000738816200093b565b60608701519093506200074b816200093b565b80925050608086015190509295509295909350565b60008262000772576200077262000925565b500490565b600181815b80851115620007b85781600019048211156200079c576200079c6200090f565b80851615620007aa57918102915b93841c93908002906200077c565b509250929050565b60006200053160ff841683600082620007dc5750600162000534565b81620007eb5750600062000534565b81600181146200080457600281146200080f576200082f565b600191505062000534565b60ff8411156200082357620008236200090f565b50506001821b62000534565b5060208310610133831016604e8410600b841016171562000854575081810a62000534565b62000860838362000777565b80600019048211156200087757620008776200090f565b029392505050565b60008160001904831182151516156200089c576200089c6200090f565b500290565b600082821015620008b657620008b66200090f565b500390565b600181811c90821680620008d057607f821691505b60208210811415620008f257634e487b7160e01b600052602260045260246000fd5b50919050565b6000826200090a576200090a62000925565b500690565b634e487b7160e01b600052601160045260246000fd5b634e487b7160e01b600052601260045260246000fd5b6001600160a01b03811681146200095157600080fd5b50565b60805160601c60a05160601c60c05160601c61337a620009e8600039600081816105a601528181610bd301528181610d5d01528181611126015281816119a80152612bd901526000818161064b01528181611db80152611e0901526000818161067b015281816112d90152818161258e015281816126670152818161285b01528181612ab90152612cc0015261337a6000f3fe608060405234801561001057600080fd5b50600436106103275760003560e01c80636cd8ceb5116101b8578063a457c2d711610104578063ce03d3df116100a2578063ea2f0b371161007c578063ea2f0b37146106fc578063ecf501351461070f578063f2fde38b14610717578063f4e0d9ac1461072a57600080fd5b8063ce03d3df1461069d578063d543dbeb146106b0578063dd62ed3e146106c357600080fd5b8063b120200a116100de578063b120200a14610633578063b8c9d25c14610646578063c03712361461066d578063c21ebd071461067657600080fd5b8063a457c2d714610604578063a9059cbb14610617578063ae8502811461062a57600080fd5b80638a2d81a71161017157806395d89b411161014b57806395d89b41146105c85780639ab4a445146105d05780639d88f3a1146105e8578063a400fc21146105fb57600080fd5b80638a2d81a71461057d5780638da5cb5b146105905780639035a211146105a157600080fd5b80636cd8ceb51461050d57806370a082311461051a578063715018a61461052d5780637867a1c2146105355780637d1db4a51461054857806388f820201461055157600080fd5b806333fddf9a1161027757806351fde4bb116102305780635342acb41161020a5780635342acb4146104bc5780635be7aad6146104e85780635dacf9a3146104f15780636b2d7a1a146104fa57600080fd5b806351fde4bb1461049757806352390c02146104a057806352dc21d7146104b357600080fd5b806333fddf9a146104395780633685d4191461044257806339509351146104555780633b124fe714610468578063437823ec146104715780634c524be41461048457600080fd5b806318160ddd116102e45780632d838119116102be5780632d838119146103f55780632ffcd37b14610408578063305bfa8c1461041b578063313ce5671461042457600080fd5b806318160ddd146103c25780631a6d7617146103ca57806323b872dd146103e257600080fd5b8063061c82d01461032c57806306fdde0314610341578063095ea7b31461035f5780630e9ed68b1461038257806313114a9d146103a757806314eeb887146103b9575b600080fd5b61033f61033a366004612fd8565b61073d565b005b610349610775565b604051610356919061306f565b60405180910390f35b61037261036d366004612f4d565b610807565b6040519015158152602001610356565b6020546001600160a01b03165b6040516001600160a01b039091168152602001610356565b600c545b604051908152602001610356565b6103ab60235481565b600a546103ab565b60245461038f9061010090046001600160a01b031681565b6103726103f0366004612f0c565b61081e565b6103ab610403366004612fd8565b610888565b60255461038f906001600160a01b031681565b6103ab60225481565b60095460405160ff9091168152602001610356565b6103ab601c5481565b61033f610450366004612e99565b610905565b610372610463366004612f4d565b610abc565b6103ab60105481565b61033f61047f366004612e99565b610af2565b61038f610492366004612fd8565b610b40565b6103ab600e5481565b61033f6104ae366004612e99565b610de1565b6103ab60195481565b6103726104ca366004612e99565b6001600160a01b031660009081526004602052604090205460ff1690565b6103ab601b5481565b6103ab60215481565b61033f610508366004612fd8565b610f34565b6024546103729060ff1681565b6103ab610528366004612e99565b610f63565b61033f610fc2565b61033f610543366004612e99565b610ff8565b6103ab601d5481565b61037261055f366004612e99565b6001600160a01b031660009081526005602052604090205460ff1690565b61033f61058b366004612f79565b61124b565b6000546001600160a01b031661038f565b61038f7f000000000000000000000000000000000000000000000000000000000000000081565b610349611351565b60095461038f9061010090046001600160a01b031681565b61033f6105f6366004612ed3565b611360565b6103ab60265481565b610372610612366004612f4d565b6113c2565b610372610625366004612f4d565b611411565b6103ab60145481565b6103ab61064136600461300a565b61141e565b61038f7f000000000000000000000000000000000000000000000000000000000000000081565b6103ab60125481565b61038f7f000000000000000000000000000000000000000000000000000000000000000081565b6103ab6106ab366004612fd8565b6114aa565b61033f6106be366004612fd8565b6114cb565b6103ab6106d1366004612ed3565b6001600160a01b03918216600090815260036020908152604080832093909416825291909152205490565b61033f61070a366004612e99565b611515565b61033f611560565b61033f610725366004612e99565b61159e565b61033f610738366004612e99565b611639565b6000546001600160a01b031633146107705760405162461bcd60e51b8152600401610767906130c4565b60405180910390fd5b601055565b60606007805461078490613212565b80601f01602080910402602001604051908101604052809291908181526020018280546107b090613212565b80156107fd5780601f106107d2576101008083540402835291602001916107fd565b820191906000526020600020905b8154815290600101906020018083116107e057829003601f168201915b5050505050905090565b600061081433848461169d565b5060015b92915050565b600061082b8484846117c1565b61087d8433610878856040518060600160405280602881526020016132f8602891396001600160a01b038a1660009081526003602090815260408083203384529091529020549190611ad8565b61169d565b5060015b9392505050565b6000600b548211156108ef5760405162461bcd60e51b815260206004820152602a60248201527f416d6f756e74206d757374206265206c657373207468616e20746f74616c207260448201526965666c656374696f6e7360b01b6064820152608401610767565b60006108f9611b0f565b90506108818382611691565b6000546001600160a01b0316331461092f5760405162461bcd60e51b8152600401610767906130c4565b6001600160a01b03811660009081526005602052604090205460ff166109975760405162461bcd60e51b815260206004820152601b60248201527f4163636f756e7420697320616c7265616479206578636c7564656400000000006044820152606401610767565b60005b600654811015610ab857816001600160a01b0316600682815481106109c1576109c16132be565b6000918252602090912001546001600160a01b03161415610aa657600680546109ec906001906131fb565b815481106109fc576109fc6132be565b600091825260209091200154600680546001600160a01b039092169183908110610a2857610a286132be565b600091825260208083209190910180546001600160a01b0319166001600160a01b039485161790559184168152600282526040808220829055600590925220805460ff191690556006805480610a8057610a806132a8565b600082815260209020810160001990810180546001600160a01b03191690550190555050565b80610ab08161324d565b91505061099a565b5050565b3360008181526003602090815260408083206001600160a01b038716845290915281205490916108149185906108789086611b32565b6000546001600160a01b03163314610b1c5760405162461bcd60e51b8152600401610767906130c4565b6001600160a01b03166000908152600460205260409020805460ff19166001179055565b60245460009060ff1615610b8b5760405162461bcd60e51b81526020600482015260126024820152712637ba3a32b93c9034b9903830bab9b2b21760711b6044820152606401610767565b60245461010090046001600160a01b0316331480610bb357506025546001600160a01b031633145b610bcf5760405162461bcd60e51b8152600401610767906130f9565b60007f00000000000000000000000000000000000000000000000000000000000000006001600160a01b03166318160ddd6040518163ffffffff1660e01b815260040160206040518083038186803b158015610c2a57600080fd5b505afa158015610c3e573d6000803e3d6000fd5b505050506040513d601f19601f82011682018060405250810190610c629190612ff1565b905060018111610cc25760405162461bcd60e51b815260206004820152602560248201527f486f6c6465727320617265206e6f7420656e6f75676820746f2072756e206c6f604482015264747465727960d81b6064820152608401610767565b6000610ccf6001836131fb565b90506000610d3982424441610ce54360016131b0565b6040805160208101959095528401929092526001600160a01b0316606083015240608082015260a081018890524360c082015260e00160408051601f19818403018152919052805160209091012090611b3e565b6040516331a9108f60e11b8152600481018290529091506000906001600160a01b037f00000000000000000000000000000000000000000000000000000000000000001690636352211e9060240160206040518083038186803b158015610d9f57600080fd5b505afa158015610db3573d6000803e3d6000fd5b505050506040513d601f19601f82011682018060405250810190610dd79190612eb6565b9695505050505050565b6000546001600160a01b03163314610e0b5760405162461bcd60e51b8152600401610767906130c4565b6001600160a01b03811660009081526005602052604090205460ff1615610e745760405162461bcd60e51b815260206004820152601b60248201527f4163636f756e7420697320616c7265616479206578636c7564656400000000006044820152606401610767565b6001600160a01b03811660009081526001602052604090205415610ece576001600160a01b038116600090815260016020526040902054610eb490610888565b6001600160a01b0382166000908152600260205260409020555b6001600160a01b03166000818152600560205260408120805460ff191660019081179091556006805491820181559091527ff652222313e28459528d920b65115c16c04f3efc82aaedc97be59f3f377c0d3f0180546001600160a01b0319169091179055565b6000546001600160a01b03163314610f5e5760405162461bcd60e51b8152600401610767906130c4565b602155565b6001600160a01b03811660009081526005602052604081205460ff1615610fa057506001600160a01b031660009081526002602052604090205490565b6001600160a01b03821660009081526001602052604090205461081890610888565b6000546001600160a01b03163314610fec5760405162461bcd60e51b8152600401610767906130c4565b610ff66000611b4a565b565b60245460ff16156110405760405162461bcd60e51b81526020600482015260126024820152712637ba3a32b93c9034b9903830bab9b2b21760711b6044820152606401610767565b60245461010090046001600160a01b031633148061106857506025546001600160a01b031633145b6110845760405162461bcd60e51b8152600401610767906130f9565b60215461109082610f63565b10156110f55760405162461bcd60e51b815260206004820152602e60248201527f43616e206e6f7420626520612077696e6e65722066726f6d207468652065666660448201526d696369656e742062616c616e636560901b6064820152608401610767565b60008061110130610f63565b60405163df61108360e01b81526001600160a01b0385811660048301529192506000917f0000000000000000000000000000000000000000000000000000000000000000169063df6110839060240160206040518083038186803b15801561116857600080fd5b505afa15801561117c573d6000803e3d6000fd5b505050506040513d601f19601f820116820180604052508101906111a09190612ff1565b90508015806111af5750600681115b156111ba5750505050565b600060166111c96001846131fb565b815481106111d9576111d96132be565b600091825260209091200154601b546024549192509061010090046001600160a01b0316336001600160a01b031614156112125750601c545b6112346305f5e10061122e836112288887611685565b90611685565b90611691565b94506112433087876001611b9a565b505050505050565b6040805160028082526060820183526000926020830190803683370190505090503081600081518110611280576112806132be565b60200260200101906001600160a01b031690816001600160a01b03168152505081816001815181106112b4576112b46132be565b6001600160a01b039283166020918202929092010152604051635c11d79560e01b81527f000000000000000000000000000000000000000000000000000000000000000090911690635c11d7959061131990869060009086903090429060040161313f565b600060405180830381600087803b15801561133357600080fd5b505af1158015611347573d6000803e3d6000fd5b5050505050505050565b60606008805461078490613212565b6000546001600160a01b0316331461138a5760405162461bcd60e51b8152600401610767906130c4565b60248054610100600160a81b0319166101006001600160a01b0394851602179055602580546001600160a01b03191691909216179055565b6000610814338461087885604051806060016040528060258152602001613320602591393360009081526003602090815260408083206001600160a01b038d1684529091529020549190611ad8565b60006108143384846117c1565b6000600a548411156114725760405162461bcd60e51b815260206004820152601f60248201527f416d6f756e74206d757374206265206c657373207468616e20737570706c79006044820152606401610767565b61147a612da8565b83611493576114898584611d08565b5191506108819050565b61149d8584611d08565b6020015191506108819050565b601681815481106114ba57600080fd5b600091825260209091200154905081565b6000546001600160a01b031633146114f55760405162461bcd60e51b8152600401610767906130c4565b61150f606461122e83600a5461168590919063ffffffff16565b601d5550565b6000546001600160a01b0316331461153f5760405162461bcd60e51b8152600401610767906130c4565b6001600160a01b03166000908152600460205260409020805460ff19169055565b6000546001600160a01b0316331461158a5760405162461bcd60e51b8152600401610767906130c4565b6024805460ff19811660ff90911615179055565b6000546001600160a01b031633146115c85760405162461bcd60e51b8152600401610767906130c4565b6001600160a01b03811661162d5760405162461bcd60e51b815260206004820152602660248201527f4f776e61626c653a206e6577206f776e657220697320746865207a65726f206160448201526564647265737360d01b6064820152608401610767565b61163681611b4a565b50565b6000546001600160a01b031633146116635760405162461bcd60e51b8152600401610767906130c4565b602080546001600160a01b0319166001600160a01b0392909216919091179055565b600061088182846131dc565b600061088182846131c8565b6001600160a01b0383166116ff5760405162461bcd60e51b8152602060048201526024808201527f45524332303a20617070726f76652066726f6d20746865207a65726f206164646044820152637265737360e01b6064820152608401610767565b6001600160a01b0382166117605760405162461bcd60e51b815260206004820152602260248201527f45524332303a20617070726f766520746f20746865207a65726f206164647265604482015261737360f01b6064820152608401610767565b6001600160a01b0383811660008181526003602090815260408083209487168084529482529182902085905590518481527f8c5be1e5ebec7d5bd14f71427d1e84f3dd0314c0f7b2291e5b200ac8c7c3b925910160405180910390a3505050565b6001600160a01b0383166118255760405162461bcd60e51b815260206004820152602560248201527f45524332303a207472616e736665722066726f6d20746865207a65726f206164604482015264647265737360d81b6064820152608401610767565b6001600160a01b0382166118875760405162461bcd60e51b815260206004820152602360248201527f45524332303a207472616e7366657220746f20746865207a65726f206164647260448201526265737360e81b6064820152608401610767565b600081116118e95760405162461bcd60e51b815260206004820152602960248201527f5472616e7366657220616d6f756e74206d7573742062652067726561746572206044820152687468616e207a65726f60b81b6064820152608401610767565b6000546001600160a01b0384811691161480159061191557506000546001600160a01b03838116911614155b1561197d57601d5481111561197d5760405162461bcd60e51b815260206004820152602860248201527f5472616e7366657220616d6f756e74206578636565647320746865206d6178546044820152673c20b6b7bab73a1760c11b6064820152608401610767565b6026544211611a71576040516370a0823160e01b81526001600160a01b0383811660048301526000917f0000000000000000000000000000000000000000000000000000000000000000909116906370a082319060240160206040518083038186803b1580156119ec57600080fd5b505afa158015611a00573d6000803e3d6000fd5b505050506040513d601f19601f82011682018060405250810190611a249190612ff1565b11611a715760405162461bcd60e51b815260206004820181905260248201527f52656365697069656e74206d7573742062652061204e465420686f6c6465722e6044820152606401610767565b611a7b8383611d8c565b6001600160a01b03831660009081526004602052604090205460019060ff1680611abd57506001600160a01b03831660009081526004602052604090205460ff165b15611ac6575060005b611ad284848484611b9a565b50505050565b60008184841115611afc5760405162461bcd60e51b8152600401610767919061306f565b50611b0783856131fb565b949350505050565b6000806000611b1c611e52565b9092509050611b2b8282611691565b9250505090565b600061088182846131b0565b60006108818284613268565b600080546001600160a01b038381166001600160a01b0319831681178455604051919092169283917f8be0079c531659141344cd1fd0a4f28419497f9722a3daafe3b4186f6b6457e09190a35050565b80611ba757611ba7611fd4565b6001600160a01b03841660009081526005602052604090205460ff168015611be857506001600160a01b03831660009081526005602052604090205460ff16155b15611bfd57611bf8848484612068565b611cfb565b6001600160a01b03841660009081526005602052604090205460ff16158015611c3e57506001600160a01b03831660009081526005602052604090205460ff165b15611c4e57611bf88484846121ae565b6001600160a01b03841660009081526005602052604090205460ff16158015611c9057506001600160a01b03831660009081526005602052604090205460ff16155b15611ca057611bf8848484612253565b6001600160a01b03841660009081526005602052604090205460ff168015611ce057506001600160a01b03831660009081526005602052604090205460ff165b15611cf057611bf8848484612287565b611cfb848484612253565b80611ad257611ad26123a3565b611d10612da8565b6000806000806000611d2288886123d4565b94509450945094509450600080600080611d3f8c8989898961243e565b6040805161012081018252948552602085019390935291830152606082015260808101999099525050505060a085019390935260c084019190915260e08301526101008201529392505050565b6000611d9730610f63565b9050601d548110611da75750601d545b60185481108015908190611ded57507f00000000000000000000000000000000000000000000000000000000000000006001600160a01b0316846001600160a01b031614155b8015611e3f57506001600160a01b03841630148015611e3d57507f00000000000000000000000000000000000000000000000000000000000000006001600160a01b0316836001600160a01b0316145b155b15611ad2576018549150611ad2826124c6565b600b54600a546000918291825b600654811015611fa457826001600060068481548110611e8157611e816132be565b60009182526020808320909101546001600160a01b031683528201929092526040019020541180611eec5750816002600060068481548110611ec557611ec56132be565b60009182526020808320909101546001600160a01b03168352820192909252604001902054115b15611f0257600b54600a54945094505050509091565b611f486001600060068481548110611f1c57611f1c6132be565b60009182526020808320909101546001600160a01b0316835282019290925260400190205484906126fc565b9250611f906002600060068481548110611f6457611f646132be565b60009182526020808320909101546001600160a01b0316835282019290925260400190205483906126fc565b915080611f9c8161324d565b915050611e5f565b50600a54600b54611fb491611691565b821015611fcb57600b54600a549350935050509091565b90939092509050565b601054611fdd57565b600e54600f5560105460115560125460135560168054611fff91601791612df4565b50601954601a55601480546015556000600e81905560108190556012819055908190556040805160c08101825282815260208101839052908101829052606081018290526080810182905260a0810191909152612060906016906006612e44565b506000601955565b60006120748284611d08565b6001600160a01b03851660009081526002602052604090205490915061209a90836126fc565b6001600160a01b03851660009081526002602090815260408083209390935583516001909152919020546120cd916126fc565b6001600160a01b038086166000908152600160209081526040808320949094558401519186168152919091205461210391611b32565b6001600160a01b03841660009081526001602052604090205560c081015161212a90612708565b6121378160e00151612735565b61214981604001518260a0015161296c565b612157816101000151612990565b826001600160a01b0316846001600160a01b03167fddf252ad1be2c89b69c2b068fc378daa952ba7f163c4a11628f55a4df523b3ef83608001516040516121a091815260200190565b60405180910390a350505050565b60006121ba8284611d08565b80516001600160a01b0386166000908152600160205260409020549192506121e291906126fc565b6001600160a01b038086166000908152600160209081526040808320949094556080850151928716825260029052919091205461221e91611b32565b6001600160a01b0384166000908152600260209081526040808320939093558381015160019091529190205461210391611b32565b600061225f8284611d08565b80516001600160a01b0386166000908152600160205260409020549192506120cd91906126fc565b60006122938284611d08565b6001600160a01b0385166000908152600260205260409020549091506122b990836126fc565b6001600160a01b03851660009081526002602090815260408083209390935583516001909152919020546122ec916126fc565b6001600160a01b038086166000908152600160209081526040808320949094556080850151928716825260029052919091205461232891611b32565b6001600160a01b0384166000908152600260209081526040808320939093558381015160019091529190205461235d91611b32565b6001600160a01b03841660009081526001602052604090205560c081015161238490612708565b6123918160e00151612735565b61215781604001518260a0015161296c565b600f54600e55601154601055601354601255601554601455601780546123cb91601691612df4565b50601a54601955565b60008080808086816123e582612b7b565b905060006123f28a612b98565b905060006124008b8b612bb5565b9050600061240d8c612c99565b9050600061242982612423858188818c8c6126fc565b906126fc565b9d949c50929a50909850965090945050505050565b600080600080600061244e611b0f565b9050600061245c8b83611685565b9050600061246a8b84611685565b905060006124788b85611685565b905060006124868b86611685565b905060006124948b87611685565b905060006124aa82612423858188818c8c6126fc565b959a509498509296509194505050505095509550955095915050565b60006124d3826002611691565b905060006124e6600261122e85856126fc565b905060006124f484836126fc565b905060006125028484611b32565b6009546040516370a0823160e01b81523060048201529192506000916101009091046001600160a01b0316906370a082319060240160206040518083038186803b15801561254f57600080fd5b505afa158015612563573d6000803e3d6000fd5b505050506040513d601f19601f820116820180604052508101906125879190612ff1565b90506125c97f000000000000000000000000000000000000000000000000000000000000000083600960019054906101000a90046001600160a01b031661124b565b6009546040516370a0823160e01b815230600482015260009161265191849161010090046001600160a01b0316906370a08231906024015b60206040518083038186803b15801561261957600080fd5b505afa15801561262d573d6000803e3d6000fd5b505050506040513d601f19601f820116820180604052508101906124239190612ff1565b90506000612660826003611691565b90506126b17f00000000000000000000000000000000000000000000000000000000000000006126986000546001600160a01b031690565b600954889061010090046001600160a01b031685612cb6565b60408051878152602081018490529081018690527f17bbfb9a6069321b6ded73bd96327c9e6b7212a5cd51ff219cd61370acafb5619060600160405180910390a15050505050505050565b600061088182846131fb565b600d546127159082611b32565b600d819055601854116116365761272d600d546124c6565b6000600d5550565b600061273f611b0f565b9050600061274d8383611685565b601f546001600160a01b03166000908152600160205260409020549091506127759082611b32565b601f546001600160a01b039081166000908152600160205260408082209390935560095492516370a0823160e01b815230600482015290926101009004909116906370a082319060240160206040518083038186803b1580156127d757600080fd5b505afa1580156127eb573d6000803e3d6000fd5b505050506040513d601f19601f8201168201806040525081019061280f9190612ff1565b602254601f546001600160a01b031660009081526001602052604090205491925011611ad257601f546001600160a01b03908116600090815260016020526040902054600954612887927f0000000000000000000000000000000000000000000000000000000000000000929161010090041661124b565b6009546040516370a0823160e01b81523060048201526000916128c391849161010090046001600160a01b0316906370a0823190602401612601565b601f80546001600160a01b03908116600090815260016020526040808220919091556009549254905163a9059cbb60e01b8152908216600482015260248101849052929350610100909104169063a9059cbb906044015b602060405180830381600087803b15801561293457600080fd5b505af1158015612948573d6000803e3d6000fd5b505050506040513d601f19601f820116820180604052508101906112439190612fbb565b600b5461297990836126fc565b600b55600c546129899082611b32565b600c555050565b600061299a611b0f565b905060006129a88383611685565b602080546001600160a01b03166000908152600190915260409020549091506129d19082611b32565b602080546001600160a01b039081166000908152600190925260408083209390935560095492516370a0823160e01b81523060048201529192610100900416906370a082319060240160206040518083038186803b158015612a3257600080fd5b505afa158015612a46573d6000803e3d6000fd5b505050506040513d601f19601f82011682018060405250810190612a6a9190612ff1565b602354602080546001600160a01b031660009081526001909152604090205491925011611ad257602080546001600160a01b0390811660009081526001909252604090912054600954612ae5927f0000000000000000000000000000000000000000000000000000000000000000929161010090041661124b565b6009546040516370a0823160e01b8152306004820152600091612b2191849161010090046001600160a01b0316906370a0823190602401612601565b602080546001600160a01b039081166000908152600183526040808220919091556009549254905163a9059cbb60e01b8152908216600482015260248101849052929350610100909104169063a9059cbb9060440161291a565b600061081861271061122e600e548561168590919063ffffffff16565b600061081861271061122e6019548561168590919063ffffffff16565b6040516370a0823160e01b81526001600160a01b03828116600483015260009182917f000000000000000000000000000000000000000000000000000000000000000016906370a082319060240160206040518083038186803b158015612c1b57600080fd5b505afa158015612c2f573d6000803e3d6000fd5b505050506040513d601f19601f82011682018060405250810190612c539190612ff1565b90508015612c7e57612c7661271061122e6012548761168590919063ffffffff16565b915050610818565b612c7661271061122e6010548761168590919063ffffffff16565b600061081861271061122e6014548561168590919063ffffffff16565b6001600160a01b037f00000000000000000000000000000000000000000000000000000000000000001663e8e33700308486856000808b612cf9426101686131b0565b60405160e08a901b6001600160e01b03191681526001600160a01b039889166004820152968816602488015260448701959095526064860193909352608485019190915260a484015290921660c482015260e481019190915261010401606060405180830381600087803b158015612d7057600080fd5b505af1158015612d84573d6000803e3d6000fd5b505050506040513d601f19601f820116820180604052508101906113479190613041565b6040518061012001604052806000815260200160008152602001600081526020016000815260200160008152602001600081526020016000815260200160008152602001600081525090565b828054828255906000526020600020908101928215612e345760005260206000209182015b82811115612e34578254825591600101919060010190612e19565b50612e40929150612e84565b5090565b828054828255906000526020600020908101928215612e34579160200282015b82811115612e34578251829060ff16905591602001919060010190612e64565b5b80821115612e405760008155600101612e85565b600060208284031215612eab57600080fd5b8135610881816132d4565b600060208284031215612ec857600080fd5b8151610881816132d4565b60008060408385031215612ee657600080fd5b8235612ef1816132d4565b91506020830135612f01816132d4565b809150509250929050565b600080600060608486031215612f2157600080fd5b8335612f2c816132d4565b92506020840135612f3c816132d4565b929592945050506040919091013590565b60008060408385031215612f6057600080fd5b8235612f6b816132d4565b946020939093013593505050565b600080600060608486031215612f8e57600080fd5b8335612f99816132d4565b9250602084013591506040840135612fb0816132d4565b809150509250925092565b600060208284031215612fcd57600080fd5b8151610881816132e9565b600060208284031215612fea57600080fd5b5035919050565b60006020828403121561300357600080fd5b5051919050565b60008060006060848603121561301f57600080fd5b833592506020840135613031816132e9565b91506040840135612fb0816132d4565b60008060006060848603121561305657600080fd5b8351925060208401519150604084015190509250925092565b600060208083528351808285015260005b8181101561309c57858101830151858201604001528201613080565b818111156130ae576000604083870101525b50601f01601f1916929092016040019392505050565b6020808252818101527f4f776e61626c653a2063616c6c6572206973206e6f7420746865206f776e6572604082015260600190565b60208082526026908201527f43616e206f6e6c792062652063616c6c6564206279206c6f747465727920636f6040820152651b9d1c9858dd60d21b606082015260800190565b600060a082018783526020878185015260a0604085015281875180845260c086019150828901935060005b8181101561318f5784516001600160a01b03168352938301939183019160010161316a565b50506001600160a01b03969096166060850152505050608001529392505050565b600082198211156131c3576131c361327c565b500190565b6000826131d7576131d7613292565b500490565b60008160001904831182151516156131f6576131f661327c565b500290565b60008282101561320d5761320d61327c565b500390565b600181811c9082168061322657607f821691505b6020821081141561324757634e487b7160e01b600052602260045260246000fd5b50919050565b60006000198214156132615761326161327c565b5060010190565b60008261327757613277613292565b500690565b634e487b7160e01b600052601160045260246000fd5b634e487b7160e01b600052601260045260246000fd5b634e487b7160e01b600052603160045260246000fd5b634e487b7160e01b600052603260045260246000fd5b6001600160a01b038116811461163657600080fd5b801515811461163657600080fdfe45524332303a207472616e7366657220616d6f756e74206578636565647320616c6c6f77616e636545524332303a2064656372656173656420616c6c6f77616e63652062656c6f77207a65726fa264697066735822122075f9ecbf8d0a260a5df3e54da96d1b11539f09e5866830e1829a2a4c38f3282564736f6c63430008070033",
  "linkReferences": {},
  "deployedLinkReferences": {}
}