{
  "_format": "hh-sol-artifact-1",
  "contractName": "BCNFTMarketplace",
  "sourceName": "contracts/BCNFTMarketplace.sol",
  "abi": [
    {
      "inputs": [
        {
          "internalType": "address",
          "name": "nftContract_",
          "type": "address"
        },
        {
          "internalType": "address",
          "name": "adminRecoveryAddress_",
          "type": "address"
        },
        {
          "internalType": "address",
          "name": "bcPaymentAddress_",
          "type": "address"
        },
        {
          "internalType": "address",
          "name": "bcTokenAddress_",
          "type": "address"
        },
        {
          "internalType": "address",
          "name": "developmentAddress_",
          "type": "address"
        }
      ],
      "stateMutability": "nonpayable",
      "type": "constructor"
    },
    {
      "anonymous": false,
      "inputs": [
        {
          "indexed": true,
          "internalType": "uint256",
          "name": "tokenId",
          "type": "uint256"
        },
        {
          "indexed": false,
          "internalType": "address",
          "name": "nftContractAddress",
          "type": "address"
        },
        {
          "indexed": false,
          "internalType": "address",
          "name": "sender",
          "type": "address"
        },
        {
          "indexed": false,
          "internalType": "uint256",
          "name": "value",
          "type": "uint256"
        }
      ],
      "name": "AuctionBid",
      "type": "event"
    },
    {
      "anonymous": false,
      "inputs": [
        {
          "indexed": true,
          "internalType": "uint256",
          "name": "tokenId",
          "type": "uint256"
        },
        {
          "indexed": false,
          "internalType": "address",
          "name": "nftContractAddress",
          "type": "address"
        },
        {
          "indexed": false,
          "internalType": "address",
          "name": "Creator",
          "type": "address"
        }
      ],
      "name": "AuctionCanceled",
      "type": "event"
    },
    {
      "anonymous": false,
      "inputs": [
        {
          "indexed": true,
          "internalType": "uint256",
          "name": "tokenId",
          "type": "uint256"
        },
        {
          "indexed": false,
          "internalType": "uint256",
          "name": "auctionStart",
          "type": "uint256"
        },
        {
          "indexed": false,
          "internalType": "uint256",
          "name": "duration",
          "type": "uint256"
        },
        {
          "indexed": false,
          "internalType": "uint256",
          "name": "reservePrice",
          "type": "uint256"
        },
        {
          "indexed": false,
          "internalType": "string",
          "name": "paymentType",
          "type": "string"
        },
        {
          "indexed": false,
          "internalType": "address",
          "name": "Creator",
          "type": "address"
        }
      ],
      "name": "AuctionCreated",
      "type": "event"
    },
    {
      "anonymous": false,
      "inputs": [
        {
          "indexed": true,
          "internalType": "uint256",
          "name": "tokenId",
          "type": "uint256"
        },
        {
          "indexed": false,
          "internalType": "address",
          "name": "nftContractAddress",
          "type": "address"
        },
        {
          "indexed": false,
          "internalType": "address",
          "name": "Creator",
          "type": "address"
        },
        {
          "indexed": false,
          "internalType": "address",
          "name": "winner",
          "type": "address"
        },
        {
          "indexed": false,
          "internalType": "uint256",
          "name": "amount",
          "type": "uint256"
        },
        {
          "indexed": false,
          "internalType": "address",
          "name": "nftCreator",
          "type": "address"
        }
      ],
      "name": "AuctionEnded",
      "type": "event"
    },
    {
      "anonymous": false,
      "inputs": [
        {
          "indexed": false,
          "internalType": "uint256",
          "name": "nftID",
          "type": "uint256"
        }
      ],
      "name": "Burned",
      "type": "event"
    },
    {
      "anonymous": false,
      "inputs": [
        {
          "indexed": true,
          "internalType": "uint256",
          "name": "tokenId",
          "type": "uint256"
        },
        {
          "indexed": false,
          "internalType": "address",
          "name": "Creator",
          "type": "address"
        },
        {
          "indexed": false,
          "internalType": "uint256",
          "name": "amount",
          "type": "uint256"
        }
      ],
      "name": "CreatorFeePercentTransfer",
      "type": "event"
    },
    {
      "anonymous": false,
      "inputs": [
        {
          "indexed": true,
          "internalType": "address",
          "name": "sender",
          "type": "address"
        },
        {
          "indexed": true,
          "internalType": "address",
          "name": "receiver",
          "type": "address"
        },
        {
          "indexed": false,
          "internalType": "uint256",
          "name": "tokenId",
          "type": "uint256"
        }
      ],
      "name": "Giveaway",
      "type": "event"
    },
    {
      "anonymous": false,
      "inputs": [
        {
          "indexed": true,
          "internalType": "address",
          "name": "minter",
          "type": "address"
        },
        {
          "indexed": false,
          "internalType": "uint256",
          "name": "nftID",
          "type": "uint256"
        },
        {
          "indexed": false,
          "internalType": "bool",
          "name": "status",
          "type": "bool"
        }
      ],
      "name": "Minted",
      "type": "event"
    },
    {
      "anonymous": false,
      "inputs": [
        {
          "indexed": true,
          "internalType": "address",
          "name": "owner",
          "type": "address"
        },
        {
          "indexed": false,
          "internalType": "uint256",
          "name": "nftID",
          "type": "uint256"
        },
        {
          "indexed": false,
          "internalType": "bool",
          "name": "isListed",
          "type": "bool"
        }
      ],
      "name": "NftListStatus",
      "type": "event"
    },
    {
      "anonymous": false,
      "inputs": [
        {
          "indexed": true,
          "internalType": "address",
          "name": "previousOwner",
          "type": "address"
        },
        {
          "indexed": true,
          "internalType": "address",
          "name": "newOwner",
          "type": "address"
        }
      ],
      "name": "OwnershipTransferred",
      "type": "event"
    },
    {
      "anonymous": false,
      "inputs": [
        {
          "indexed": false,
          "internalType": "address",
          "name": "account",
          "type": "address"
        }
      ],
      "name": "Paused",
      "type": "event"
    },
    {
      "anonymous": false,
      "inputs": [
        {
          "indexed": true,
          "internalType": "address",
          "name": "owner",
          "type": "address"
        },
        {
          "indexed": false,
          "internalType": "uint256",
          "name": "oldPrice",
          "type": "uint256"
        },
        {
          "indexed": false,
          "internalType": "uint256",
          "name": "newPrice",
          "type": "uint256"
        },
        {
          "indexed": false,
          "internalType": "uint256",
          "name": "nftID",
          "type": "uint256"
        }
      ],
      "name": "PriceUpdate",
      "type": "event"
    },
    {
      "anonymous": false,
      "inputs": [
        {
          "indexed": true,
          "internalType": "address",
          "name": "previousOwner",
          "type": "address"
        },
        {
          "indexed": true,
          "internalType": "address",
          "name": "newOwner",
          "type": "address"
        },
        {
          "indexed": false,
          "internalType": "uint256",
          "name": "price",
          "type": "uint256"
        },
        {
          "indexed": false,
          "internalType": "uint256",
          "name": "nftID",
          "type": "uint256"
        }
      ],
      "name": "Purchase",
      "type": "event"
    },
    {
      "anonymous": false,
      "inputs": [
        {
          "indexed": false,
          "internalType": "address",
          "name": "",
          "type": "address"
        },
        {
          "indexed": false,
          "internalType": "uint256",
          "name": "",
          "type": "uint256"
        }
      ],
      "name": "Received",
      "type": "event"
    },
    {
      "anonymous": false,
      "inputs": [
        {
          "indexed": false,
          "internalType": "uint256",
          "name": "amount",
          "type": "uint256"
        },
        {
          "indexed": false,
          "internalType": "address",
          "name": "wallet",
          "type": "address"
        }
      ],
      "name": "TokensWithdrawn",
      "type": "event"
    },
    {
      "anonymous": false,
      "inputs": [
        {
          "indexed": false,
          "internalType": "address",
          "name": "account",
          "type": "address"
        }
      ],
      "name": "Unpaused",
      "type": "event"
    },
    {
      "anonymous": false,
      "inputs": [
        {
          "indexed": false,
          "internalType": "uint256",
          "name": "amount",
          "type": "uint256"
        },
        {
          "indexed": false,
          "internalType": "address",
          "name": "wallet",
          "type": "address"
        }
      ],
      "name": "Withdrawn",
      "type": "event"
    },
    {
      "inputs": [],
      "name": "MIN_BID_INCREMENT_PERCENT",
      "outputs": [
        {
          "internalType": "uint8",
          "name": "",
          "type": "uint8"
        }
      ],
      "stateMutability": "view",
      "type": "function"
    },
    {
      "inputs": [],
      "name": "TIME_BUFFER",
      "outputs": [
        {
          "internalType": "uint16",
          "name": "",
          "type": "uint16"
        }
      ],
      "stateMutability": "view",
      "type": "function"
    },
    {
      "inputs": [
        {
          "internalType": "uint256[]",
          "name": "_newtokenIds",
          "type": "uint256[]"
        },
        {
          "internalType": "address[]",
          "name": "_creators",
          "type": "address[]"
        },
        {
          "internalType": "uint256[]",
          "name": "_prices",
          "type": "uint256[]"
        },
        {
          "internalType": "address[]",
          "name": "_owners",
          "type": "address[]"
        },
        {
          "internalType": "uint256[]",
          "name": "_royalties",
          "type": "uint256[]"
        },
        {
          "internalType": "bool[]",
          "name": "_listedMap",
          "type": "bool[]"
        }
      ],
      "name": "addCreatorMap",
      "outputs": [],
      "stateMutability": "nonpayable",
      "type": "function"
    },
    {
      "inputs": [],
      "name": "adminRecoveryAddress",
      "outputs": [
        {
          "internalType": "address",
          "name": "",
          "type": "address"
        }
      ],
      "stateMutability": "view",
      "type": "function"
    },
    {
      "inputs": [],
      "name": "adminRecoveryEnabled",
      "outputs": [
        {
          "internalType": "bool",
          "name": "",
          "type": "bool"
        }
      ],
      "stateMutability": "view",
      "type": "function"
    },
    {
      "inputs": [
        {
          "internalType": "uint256",
          "name": "",
          "type": "uint256"
        }
      ],
      "name": "auctions",
      "outputs": [
        {
          "internalType": "uint256",
          "name": "amount",
          "type": "uint256"
        },
        {
          "internalType": "uint256",
          "name": "duration",
          "type": "uint256"
        },
        {
          "internalType": "uint256",
          "name": "firstBidTime",
          "type": "uint256"
        },
        {
          "internalType": "uint256",
          "name": "reservePrice",
          "type": "uint256"
        },
        {
          "internalType": "string",
          "name": "paymentType",
          "type": "string"
        },
        {
          "internalType": "uint8",
          "name": "CreatorFeePercent",
          "type": "uint8"
        },
        {
          "internalType": "address",
          "name": "Creator",
          "type": "address"
        },
        {
          "internalType": "address payable",
          "name": "bidder",
          "type": "address"
        },
        {
          "internalType": "address payable",
          "name": "fundsRecipient",
          "type": "address"
        }
      ],
      "stateMutability": "view",
      "type": "function"
    },
    {
      "inputs": [
        {
          "internalType": "uint256",
          "name": "_id",
          "type": "uint256"
        }
      ],
      "name": "burn",
      "outputs": [],
      "stateMutability": "nonpayable",
      "type": "function"
    },
    {
      "inputs": [
        {
          "internalType": "uint256",
          "name": "_id",
          "type": "uint256"
        },
        {
          "internalType": "uint256",
          "name": "_price",
          "type": "uint256"
        },
        {
          "internalType": "string",
          "name": "paymentType",
          "type": "string"
        }
      ],
      "name": "buy",
      "outputs": [],
      "stateMutability": "payable",
      "type": "function"
    },
    {
      "inputs": [
        {
          "internalType": "uint256",
          "name": "tokenId",
          "type": "uint256"
        }
      ],
      "name": "cancelAuction",
      "outputs": [],
      "stateMutability": "nonpayable",
      "type": "function"
    },
    {
      "inputs": [
        {
          "internalType": "uint256",
          "name": "_id",
          "type": "uint256"
        }
      ],
      "name": "closeTrade",
      "outputs": [],
      "stateMutability": "nonpayable",
      "type": "function"
    },
    {
      "inputs": [
        {
          "internalType": "uint256",
          "name": "tokenId",
          "type": "uint256"
        },
        {
          "internalType": "uint256",
          "name": "duration",
          "type": "uint256"
        },
        {
          "internalType": "uint256",
          "name": "reservePrice",
          "type": "uint256"
        },
        {
          "internalType": "string",
          "name": "paymentType",
          "type": "string"
        },
        {
          "internalType": "address",
          "name": "Creator",
          "type": "address"
        }
      ],
      "name": "createAuction",
      "outputs": [],
      "stateMutability": "nonpayable",
      "type": "function"
    },
    {
      "inputs": [
        {
          "internalType": "uint256",
          "name": "tokenId",
          "type": "uint256"
        },
        {
          "internalType": "string",
          "name": "paymentType",
          "type": "string"
        },
        {
          "internalType": "uint256",
          "name": "amount",
          "type": "uint256"
        }
      ],
      "name": "createBid",
      "outputs": [],
      "stateMutability": "payable",
      "type": "function"
    },
    {
      "inputs": [
        {
          "internalType": "uint256",
          "name": "",
          "type": "uint256"
        }
      ],
      "name": "creatorMap",
      "outputs": [
        {
          "internalType": "address",
          "name": "",
          "type": "address"
        }
      ],
      "stateMutability": "view",
      "type": "function"
    },
    {
      "inputs": [],
      "name": "developmentAddress",
      "outputs": [
        {
          "internalType": "address",
          "name": "",
          "type": "address"
        }
      ],
      "stateMutability": "view",
      "type": "function"
    },
    {
      "inputs": [
        {
          "internalType": "uint256",
          "name": "tokenId",
          "type": "uint256"
        }
      ],
      "name": "endAuction",
      "outputs": [],
      "stateMutability": "nonpayable",
      "type": "function"
    },
    {
      "inputs": [
        {
          "internalType": "uint256",
          "name": "_id",
          "type": "uint256"
        }
      ],
      "name": "getIsListed",
      "outputs": [
        {
          "internalType": "bool",
          "name": "",
          "type": "bool"
        }
      ],
      "stateMutability": "view",
      "type": "function"
    },
    {
      "inputs": [
        {
          "internalType": "uint256",
          "name": "_tokenId",
          "type": "uint256"
        }
      ],
      "name": "getSalePrice",
      "outputs": [
        {
          "internalType": "uint256",
          "name": "",
          "type": "uint256"
        }
      ],
      "stateMutability": "view",
      "type": "function"
    },
    {
      "inputs": [
        {
          "internalType": "uint256",
          "name": "_tokenId",
          "type": "uint256"
        }
      ],
      "name": "getTokenPaymentType",
      "outputs": [
        {
          "internalType": "string",
          "name": "",
          "type": "string"
        }
      ],
      "stateMutability": "view",
      "type": "function"
    },
    {
      "inputs": [
        {
          "internalType": "uint256",
          "name": "_tokenId",
          "type": "uint256"
        }
      ],
      "name": "getTokenPrice",
      "outputs": [
        {
          "internalType": "uint256",
          "name": "",
          "type": "uint256"
        }
      ],
      "stateMutability": "view",
      "type": "function"
    },
    {
      "inputs": [],
      "name": "getVersion",
      "outputs": [
        {
          "internalType": "uint256",
          "name": "version",
          "type": "uint256"
        }
      ],
      "stateMutability": "pure",
      "type": "function"
    },
    {
      "inputs": [
        {
          "internalType": "address",
          "name": "_to",
          "type": "address"
        },
        {
          "internalType": "uint256",
          "name": "_id",
          "type": "uint256"
        }
      ],
      "name": "giveaway",
      "outputs": [],
      "stateMutability": "nonpayable",
      "type": "function"
    },
    {
      "inputs": [
        {
          "internalType": "uint256",
          "name": "",
          "type": "uint256"
        }
      ],
      "name": "listedMap",
      "outputs": [
        {
          "internalType": "bool",
          "name": "",
          "type": "bool"
        }
      ],
      "stateMutability": "view",
      "type": "function"
    },
    {
      "inputs": [],
      "name": "marketFeeForBNB",
      "outputs": [
        {
          "internalType": "uint256",
          "name": "",
          "type": "uint256"
        }
      ],
      "stateMutability": "view",
      "type": "function"
    },
    {
      "inputs": [],
      "name": "marketFeeForToken",
      "outputs": [
        {
          "internalType": "uint256",
          "name": "",
          "type": "uint256"
        }
      ],
      "stateMutability": "view",
      "type": "function"
    },
    {
      "inputs": [
        {
          "internalType": "uint256",
          "name": "number",
          "type": "uint256"
        },
        {
          "internalType": "uint256[]",
          "name": "_level",
          "type": "uint256[]"
        }
      ],
      "name": "mint",
      "outputs": [],
      "stateMutability": "payable",
      "type": "function"
    },
    {
      "inputs": [],
      "name": "mintPrice",
      "outputs": [
        {
          "internalType": "uint256",
          "name": "",
          "type": "uint256"
        }
      ],
      "stateMutability": "view",
      "type": "function"
    },
    {
      "inputs": [],
      "name": "nftContract",
      "outputs": [
        {
          "internalType": "address",
          "name": "",
          "type": "address"
        }
      ],
      "stateMutability": "view",
      "type": "function"
    },
    {
      "inputs": [
        {
          "internalType": "uint256",
          "name": "_id",
          "type": "uint256"
        },
        {
          "internalType": "uint256",
          "name": "_price",
          "type": "uint256"
        },
        {
          "internalType": "string",
          "name": "paymentType",
          "type": "string"
        }
      ],
      "name": "openTrade",
      "outputs": [],
      "stateMutability": "nonpayable",
      "type": "function"
    },
    {
      "inputs": [],
      "name": "owner",
      "outputs": [
        {
          "internalType": "address",
          "name": "",
          "type": "address"
        }
      ],
      "stateMutability": "view",
      "type": "function"
    },
    {
      "inputs": [
        {
          "internalType": "uint256",
          "name": "",
          "type": "uint256"
        }
      ],
      "name": "ownerMap",
      "outputs": [
        {
          "internalType": "address",
          "name": "",
          "type": "address"
        }
      ],
      "stateMutability": "view",
      "type": "function"
    },
    {
      "inputs": [],
      "name": "pauseContract",
      "outputs": [],
      "stateMutability": "nonpayable",
      "type": "function"
    },
    {
      "inputs": [],
      "name": "paused",
      "outputs": [
        {
          "internalType": "bool",
          "name": "",
          "type": "bool"
        }
      ],
      "stateMutability": "view",
      "type": "function"
    },
    {
      "inputs": [
        {
          "internalType": "uint256",
          "name": "",
          "type": "uint256"
        }
      ],
      "name": "paymentTokenMap",
      "outputs": [
        {
          "internalType": "string",
          "name": "",
          "type": "string"
        }
      ],
      "stateMutability": "view",
      "type": "function"
    },
    {
      "inputs": [
        {
          "internalType": "string",
          "name": "",
          "type": "string"
        }
      ],
      "name": "payoutAddressMap",
      "outputs": [
        {
          "internalType": "address",
          "name": "",
          "type": "address"
        }
      ],
      "stateMutability": "view",
      "type": "function"
    },
    {
      "inputs": [
        {
          "internalType": "uint256",
          "name": "",
          "type": "uint256"
        }
      ],
      "name": "price",
      "outputs": [
        {
          "internalType": "uint256",
          "name": "",
          "type": "uint256"
        }
      ],
      "stateMutability": "view",
      "type": "function"
    },
    {
      "inputs": [
        {
          "internalType": "uint256",
          "name": "amount",
          "type": "uint256"
        }
      ],
      "name": "recoverBNB",
      "outputs": [
        {
          "internalType": "bool",
          "name": "success",
          "type": "bool"
        }
      ],
      "stateMutability": "nonpayable",
      "type": "function"
    },
    {
      "inputs": [
        {
          "internalType": "uint256",
          "name": "tokenId",
          "type": "uint256"
        }
      ],
      "name": "recoverNFT",
      "outputs": [],
      "stateMutability": "nonpayable",
      "type": "function"
    },
    {
      "inputs": [],
      "name": "renounceOwnership",
      "outputs": [],
      "stateMutability": "nonpayable",
      "type": "function"
    },
    {
      "inputs": [],
      "name": "royaltyFee",
      "outputs": [
        {
          "internalType": "uint256",
          "name": "",
          "type": "uint256"
        }
      ],
      "stateMutability": "view",
      "type": "function"
    },
    {
      "inputs": [
        {
          "internalType": "uint256",
          "name": "",
          "type": "uint256"
        }
      ],
      "name": "royaltyMap",
      "outputs": [
        {
          "internalType": "uint256",
          "name": "",
          "type": "uint256"
        }
      ],
      "stateMutability": "view",
      "type": "function"
    },
    {
      "inputs": [
        {
          "internalType": "uint256",
          "name": "",
          "type": "uint256"
        }
      ],
      "name": "salePrice",
      "outputs": [
        {
          "internalType": "uint256",
          "name": "",
          "type": "uint256"
        }
      ],
      "stateMutability": "view",
      "type": "function"
    },
    {
      "inputs": [
        {
          "internalType": "uint256",
          "name": "_newMarketFeeForBNB",
          "type": "uint256"
        }
      ],
      "name": "setMarketFeeForBNB",
      "outputs": [],
      "stateMutability": "nonpayable",
      "type": "function"
    },
    {
      "inputs": [
        {
          "internalType": "uint256",
          "name": "_newMarketFeeForToken",
          "type": "uint256"
        }
      ],
      "name": "setMarketFeeForToken",
      "outputs": [],
      "stateMutability": "nonpayable",
      "type": "function"
    },
    {
      "inputs": [
        {
          "internalType": "string",
          "name": "_paymentToken",
          "type": "string"
        },
        {
          "internalType": "address",
          "name": "_tokenAddress",
          "type": "address"
        },
        {
          "internalType": "address",
          "name": "_payoutAddress",
          "type": "address"
        }
      ],
      "name": "setTokenAddress",
      "outputs": [],
      "stateMutability": "nonpayable",
      "type": "function"
    },
    {
      "inputs": [],
      "name": "stakingPool",
      "outputs": [
        {
          "internalType": "address",
          "name": "",
          "type": "address"
        }
      ],
      "stateMutability": "view",
      "type": "function"
    },
    {
      "inputs": [
        {
          "internalType": "string",
          "name": "",
          "type": "string"
        }
      ],
      "name": "tokenAddressMap",
      "outputs": [
        {
          "internalType": "address",
          "name": "",
          "type": "address"
        }
      ],
      "stateMutability": "view",
      "type": "function"
    },
    {
      "inputs": [
        {
          "internalType": "address",
          "name": "newOwner",
          "type": "address"
        }
      ],
      "name": "transferOwnership",
      "outputs": [],
      "stateMutability": "nonpayable",
      "type": "function"
    },
    {
      "inputs": [],
      "name": "turnOffAdminRecovery",
      "outputs": [],
      "stateMutability": "nonpayable",
      "type": "function"
    },
    {
      "inputs": [],
      "name": "unpauseContract",
      "outputs": [],
      "stateMutability": "nonpayable",
      "type": "function"
    },
    {
      "inputs": [
        {
          "internalType": "uint256",
          "name": "_tokenId",
          "type": "uint256"
        },
        {
          "internalType": "bool",
          "name": "shouldBeListed",
          "type": "bool"
        }
      ],
      "name": "updateListingStatus",
      "outputs": [
        {
          "internalType": "bool",
          "name": "",
          "type": "bool"
        }
      ],
      "stateMutability": "nonpayable",
      "type": "function"
    },
    {
      "inputs": [
        {
          "internalType": "uint256",
          "name": "_tokenId",
          "type": "uint256"
        },
        {
          "internalType": "uint256",
          "name": "_price",
          "type": "uint256"
        },
        {
          "internalType": "string",
          "name": "paymentType",
          "type": "string"
        }
      ],
      "name": "updatePrice",
      "outputs": [
        {
          "internalType": "bool",
          "name": "",
          "type": "bool"
        }
      ],
      "stateMutability": "nonpayable",
      "type": "function"
    },
    {
      "inputs": [],
      "name": "withdraw",
      "outputs": [],
      "stateMutability": "nonpayable",
      "type": "function"
    },
    {
      "inputs": [
        {
          "internalType": "string",
          "name": "_tokenName",
          "type": "string"
        },
        {
          "internalType": "uint256",
          "name": "_amount",
          "type": "uint256"
        }
      ],
      "name": "withdrawToken",
      "outputs": [],
      "stateMutability": "nonpayable",
      "type": "function"
    },
    {
      "stateMutability": "payable",
      "type": "receive"
    }
  ],
  "bytecode": "0x60806040526001600055604660035560466004556005805560166006553480156200002957600080fd5b5060405162004c6538038062004c658339810160408190526200004c916200029e565b62000057336200022f565b6040516301ffc9a760e01b81526380ac58cd60e01b60048201526001600160a01b038616906301ffc9a79060240160206040518083038186803b1580156200009e57600080fd5b505afa158015620000b3573d6000803e3d6000fd5b505050506040513d601f19601f82011682018060405250810190620000d991906200030e565b620001505760405162461bcd60e51b815260206004820152603f60248201527f436f6e7472616374206174206e6674436f6e74726163745f206164647265737360448201527f20646f6573206e6f7420737570706f7274204e465420696e7465726661636500606482015260840160405180910390fd5b600780546001600160a01b038088166001600160a01b031992831617909255600880549287169290911691909117905560405183906014906200019b9061424360f01b815260020190565b90815260405190819003602001812080546001600160a01b03939093166001600160a01b03199093169290921790915561424360f01b8152829060129060020190815260405190819003602001902080546001600160a01b039283166001600160a01b0319909116179055600a80546001600160b01b0319169290911691909117600160a01b179055506200033992505050565b600180546001600160a01b038381166001600160a01b0319831681179093556040519116919082907f8be0079c531659141344cd1fd0a4f28419497f9722a3daafe3b4186f6b6457e090600090a35050565b80516001600160a01b03811681146200029957600080fd5b919050565b600080600080600060a08688031215620002b757600080fd5b620002c28662000281565b9450620002d26020870162000281565b9350620002e26040870162000281565b9250620002f26060870162000281565b9150620003026080870162000281565b90509295509295909350565b6000602082840312156200032157600080fd5b815180151581146200033257600080fd5b9392505050565b61491c80620003496000396000f3fe60806040526004361061031e5760003560e01c80639037bab2116101ab578063ba8a12b4116100f7578063d56d229d11610095578063f2fde38b1161006f578063f2fde38b14610a19578063f603939b14610a39578063f8eb5fc514610a59578063fafe0d1f14610a8657600080fd5b8063d56d229d146109ac578063edf85f51146109cc578063f27da5e5146109f957600080fd5b8063bc996819116100d1578063bc99681914610918578063c457fb371461093f578063c97a413a1461096c578063ca1ce2af1461098c57600080fd5b8063ba8a12b4146108a8578063bb7adeb4146108c8578063bc8ba28f146108e857600080fd5b806399331fdf11610164578063a6e9d5461161013e578063a6e9d54614610830578063b33712c51461085d578063b8997a9714610872578063b9a2de3a1461088857600080fd5b806399331fdf146107c75780639a8bfa2b146107da578063a39cea841461081057600080fd5b80639037bab2146106fb578063941d66db146107115780639486e0a41461075257806396b5a7551461077257806398214bcb1461079257806398c05591146107b257600080fd5b8063536531311161026a5780636817c76c11610223578063808d6d29116101fd578063808d6d291461067a57806382b465b7146106a7578063892d5d94146106c75780638da5cb5b146106dd57600080fd5b80636817c76c14610630578063715018a6146106465780637788a3871461065b57600080fd5b8063536531311461053257806353a636dd1461055b578063571a26a01461057b5780635c975abb146105b0578063638b1b14146105cf5780636749b0ba146105ef57600080fd5b806326a49e37116102d757806338a4cb5b116102b157806338a4cb5b146104b25780633ccfd60b146104e857806342966c68146104fd578063439766ce1461051d57600080fd5b806326a49e371461045f5780632d69044f1461048c57806333209e651461049f57600080fd5b8063050225ea146103625780630c56ae3b146103845780630d6b3378146103c15780630d8e6e2c146103e157806317aa7f03146103ff578063194a97161461041f57600080fd5b3661035d57604080513381523460208201527f88a5966d370b9919b20f3e2c13ff65706f196a4e32cc2c12bf57088f88525874910160405180910390a1005b600080fd5b34801561036e57600080fd5b5061038261037d366004614088565b610aa6565b005b34801561039057600080fd5b506009546103a4906001600160a01b031681565b6040516001600160a01b0390911681526020015b60405180910390f35b3480156103cd57600080fd5b506103826103dc3660046142ac565b610c3b565b3480156103ed57600080fd5b5060015b6040519081526020016103b8565b34801561040b57600080fd5b5061038261041a3660046142ac565b610cba565b34801561042b57600080fd5b5061044f61043a3660046142ac565b6000908152600d602052604090205460ff1690565b60405190151581526020016103b8565b34801561046b57600080fd5b506103f161047a3660046142ac565b600b6020526000908152604090205481565b61038261049a3660046142de565b610d39565b6103826104ad366004614355565b610f9e565b3480156104be57600080fd5b506103a46104cd3660046142ac565b600f602052600090815260409020546001600160a01b031681565b3480156104f457600080fd5b50610382611686565b34801561050957600080fd5b506103826105183660046142ac565b6116e3565b34801561052957600080fd5b50610382611785565b34801561053e57600080fd5b5061054861038481565b60405161ffff90911681526020016103b8565b34801561056757600080fd5b5061044f6105763660046143a5565b61180d565b34801561058757600080fd5b5061059b6105963660046142ac565b6118f6565b6040516103b8999897969594939291906146d6565b3480156105bc57600080fd5b50600a54600160a81b900460ff1661044f565b3480156105db57600080fd5b50600a546103a4906001600160a01b031681565b3480156105fb57600080fd5b506103a461060a3660046141c6565b80516020818301810180516014825292820191909301209152546001600160a01b031681565b34801561063c57600080fd5b506103f160065481565b34801561065257600080fd5b506103826119da565b34801561066757600080fd5b50600a54600160a01b900460ff1661044f565b34801561068657600080fd5b5061069a6106953660046142ac565b611a10565b6040516103b8919061456c565b3480156106b357600080fd5b506103826106c23660046140b4565b611ab2565b3480156106d357600080fd5b506103f160035481565b3480156106e957600080fd5b506001546001600160a01b03166103a4565b34801561070757600080fd5b506103f160045481565b34801561071d57600080fd5b506103a461072c3660046141c6565b80516020818301810180516012825292820191909301209152546001600160a01b031681565b34801561075e57600080fd5b5061038261076d3660046142ac565b611ec3565b34801561077e57600080fd5b5061038261078d3660046142ac565b611f70565b34801561079e57600080fd5b5061044f6107ad366004614325565b6121ff565b3480156107be57600080fd5b5061038261233c565b6103826107d53660046143a5565b61238a565b3480156107e657600080fd5b506103a46107f53660046142ac565b6011602052600090815260409020546001600160a01b031681565b34801561081c57600080fd5b5061038261082b3660046142ac565b612bc7565b34801561083c57600080fd5b506103f161084b3660046142ac565b60106020526000908152604090205481565b34801561086957600080fd5b50610382612d6d565b34801561087e57600080fd5b506103f160055481565b34801561089457600080fd5b506103826108a33660046142ac565b612de9565b3480156108b457600080fd5b506103826108c3366004614203565b61354e565b3480156108d457600080fd5b506103826108e33660046143f5565b613600565b3480156108f457600080fd5b5061044f6109033660046142ac565b600d6020526000908152604090205460ff1681565b34801561092457600080fd5b5061092d600a81565b60405160ff90911681526020016103b8565b34801561094b57600080fd5b506103f161095a3660046142ac565b6000908152600b602052604090205490565b34801561097857600080fd5b50610382610987366004614267565b613843565b34801561099857600080fd5b5061069a6109a73660046142ac565b613a08565b3480156109b857600080fd5b506007546103a4906001600160a01b031681565b3480156109d857600080fd5b506103f16109e73660046142ac565b600c6020526000908152604090205481565b348015610a0557600080fd5b50610382610a143660046143a5565b613aa2565b348015610a2557600080fd5b50610382610a3436600461404e565b613bcb565b348015610a4557600080fd5b5061044f610a543660046142ac565b613c63565b348015610a6557600080fd5b506103f1610a743660046142ac565b6000908152600c602052604090205490565b348015610a9257600080fd5b506008546103a4906001600160a01b031681565b6000818152600d602052604090205460ff16610b27576007546040516323b872dd60e01b81526001600160a01b03909116906323b872dd90610af090339086908690600401614548565b600060405180830381600087803b158015610b0a57600080fd5b505af1158015610b1e573d6000803e3d6000fd5b50505050610bd7565b6000818152601160205260409020546001600160a01b03163314610b665760405162461bcd60e51b8152600401610b5d906145b4565b60405180910390fd5b6007546040516323b872dd60e01b81526001600160a01b03909116906323b872dd90610b9a90309086908690600401614548565b600060405180830381600087803b158015610bb457600080fd5b505af1158015610bc8573d6000803e3d6000fd5b505050600082905250600d6020525b60008181526011602090815260409182902080546001600160a01b0319166001600160a01b038616908117909155915183815233917f4abe537933cf6821c78fd52b40560aa40ad6f997168b53f9ea55a9b34420069b910160405180910390a35050565b6001546001600160a01b03163314610c655760405162461bcd60e51b8152600401610b5d9061457f565b60018111610cb55760405162461bcd60e51b815260206004820152601b60248201527f496e76616c6964204d61726b657446656520466f7220546f6b656e00000000006044820152606401610b5d565b600455565b6001546001600160a01b03163314610ce45760405162461bcd60e51b8152600401610b5d9061457f565b60018111610d345760405162461bcd60e51b815260206004820152601960248201527f496e76616c6964204d61726b657446656520466f7220424e42000000000000006044820152606401610b5d565b600355565b610d6b6064610d65670de0b6b3a7640000610d5f86600654613cc190919063ffffffff16565b90613cc1565b90613cd4565b341015610dba5760405162461bcd60e51b815260206004820152601960248201527f4e6f206861766520656e6f7567682073756666696369656e74000000000000006044820152606401610b5d565b60005b82811015610f5f576000610dd060025490565b6000818152600f602090815260408083208054336001600160a01b031991821681179092556011845282852080549091169091179055600d8252808320805460ff19169055600554601090925290912055600654909150610e4090606490610d6590670de0b6b3a7640000613cc1565b6000828152600b602052604090205560075483516001600160a01b03909116906394bf804d90859085908110610e7857610e78614897565b6020026020010151336040518363ffffffff1660e01b8152600401610eb09291909182526001600160a01b0316602082015260400190565b602060405180830381600087803b158015610eca57600080fd5b505af1158015610ede573d6000803e3d6000fd5b505050506040513d601f19601f82011682018060405250810190610f0291906142c5565b50610f11600280546001019055565b604080518281526000602082015233917f53ad8893610de0fa6656f026deb942f5cde3d84f4c68f80c8b376f70c1a0f389910160405180910390a25080610f5781614866565b915050610dbd565b506008546040516001600160a01b03909116903480156108fc02916000818181858888f19350505050158015610f99573d6000803e3d6000fd5b505050565b6001600080828254610fb0919061478f565b9091555050600054600a54600160a81b900460ff1615610fe25760405162461bcd60e51b8152600401610b5d9061466b565b8361100b816000908152600e602052604090206005015461010090046001600160a01b03161590565b156110505760405162461bcd60e51b8152602060048201526015602482015274105d58dd1a5bdb88191bd95cdb89dd08195e1a5cdd605a1b6044820152606401610b5d565b6000858152600e602052604090206002015485901580611077575061107481613ce0565b42105b6110b55760405162461bcd60e51b815260206004820152600f60248201526e105d58dd1a5bdb88195e1c1a5c9959608a1b6044820152606401610b5d565b600084116111055760405162461bcd60e51b815260206004820152601d60248201527f416d6f756e74206d7573742062652067726561746572207468616e20300000006044820152606401610b5d565b6000868152600e602090815260409182902091516111279260040191016144ac565b604051602081830303815290604052805190602001208560405160200161114e9190614490565b60405160208183030381529060405280519060200120146111b15760405162461bcd60e51b815260206004820152601d60248201527f5061796d656e7454797065206973206e6f74206d69736d6174636865640000006044820152606401610b5d565b6040516221272160e91b602082015260230160405160208183030381529060405280519060200120856040516020016111ea9190614490565b60405160208183030381529060405280519060200120141561125a573484146112555760405162461bcd60e51b815260206004820152601e60248201527f416d6f756e7420646f65736e277420657175616c206d73672e76616c756500006044820152606401610b5d565b61133c565b60128560405161126a9190614490565b908152604051908190036020018120546370a0823160e01b82523360048301526001600160a01b0316906370a082319060240160206040518083038186803b1580156112b557600080fd5b505afa1580156112c9573d6000803e3d6000fd5b505050506040513d601f19601f820116820180604052508101906112ed91906142c5565b84101561133c5760405162461bcd60e51b815260206004820152601a60248201527f496e73756666696369656e7420746f6b656e2062616c616e63650000000000006044820152606401610b5d565b6000868152600e60205260409020546113b5576000868152600e60205260409020600301548410156113b05760405162461bcd60e51b815260206004820152601d60248201527f4d7573742062696420726573657276655072696365206f72206d6f72650000006044820152606401610b5d565b6115a3565b6000868152600e60205260409020546113ef906113da90606490610d6590600a613cc1565b6000888152600e602052604090205490613cfe565b8410156114645760405162461bcd60e51b815260206004820152603f60248201527f4d75737420626964206d6f7265207468616e206c61737420626964206279204d60448201527f494e5f4249445f494e4352454d454e545f50455243454e5420616d6f756e74006064820152608401610b5d565b6040516221272160e91b6020820152602301604051602081830303815290604052805190602001208560405160200161149d9190614490565b6040516020818303038152906040528051906020012014156114e7576000868152600e60205260409020600681015490546114e1916001600160a01b031690613d0a565b506115a3565b6012856040516114f79190614490565b90815260408051602092819003830181205460008a8152600e909452919092206006810154905463a9059cbb60e01b84526001600160a01b0391821660048501526024840152169063a9059cbb90604401602060405180830381600087803b15801561156257600080fd5b505af1158015611576573d6000803e3d6000fd5b505050506040513d601f19601f8201168201806040525081019061159a91906141a9565b6115a357600080fd5b6000868152600e6020526040902084815560060180546001600160a01b031916331790556115d342610384613cfe565b6115dc87613ce0565b1015611627576116006115ee87613ce0565b6115fa42610384613cfe565b90613d6d565b6000878152600e60205260408120600101805490919061162190849061478f565b90915550505b60075460405187917f3bb6f40a8aeb5dda33c401527cd8f6bd335757d2b1ed2827f0321a090c66b82491611668916001600160a01b03169033908990614548565b60405180910390a25050600054811461168057600080fd5b50505050565b6001546001600160a01b031633146116b05760405162461bcd60e51b8152600401610b5d9061457f565b6040514790339082156108fc029083906000818181858888f193505050501580156116df573d6000803e3d6000fd5b5050565b600754604051630852cd8d60e31b8152600481018390526001600160a01b03909116906342966c6890602401600060405180830381600087803b15801561172957600080fd5b505af115801561173d573d6000803e3d6000fd5b505050600091825250600f6020908152604080832080546001600160a01b0319908116909155601083528184208490556011835281842080549091169055600b909152812055565b6008546001600160a01b0316331480156117a85750600a54600160a01b900460ff165b6117c45760405162461bcd60e51b8152600401610b5d906145e1565b600a805460ff60a81b1916600160a81b1790556040513381527f62e78cea01bee320cd4e420270b5ea74000d11b0c9f74754ebdbfc544b05a258906020015b60405180910390a1565b6000838152600b602090815260408083205460119092528220546001600160a01b0316331461187e5760405162461bcd60e51b815260206004820152601c60248201527f4572726f722c20796f7520617265206e6f7420746865206f776e6572000000006044820152606401610b5d565b6000858152600b602090815260408083208790556013825290912084516118a792860190613dcb565b50604080518281526020810186905290810186905233907f8647dab5101cbe18afb171756e9753802f9d66725bf2346b079b8b1a275e01169060600160405180910390a2506001949350505050565b600e6020526000908152604090208054600182015460028301546003840154600485018054949593949293919261192c9061482b565b80601f01602080910402602001604051908101604052809291908181526020018280546119589061482b565b80156119a55780601f1061197a576101008083540402835291602001916119a5565b820191906000526020600020905b81548152906001019060200180831161198857829003601f168201915b50505060058401546006850154600790950154939460ff8216946001600160a01b036101009093048316945090821692501689565b6001546001600160a01b03163314611a045760405162461bcd60e51b8152600401610b5d9061457f565b611a0e6000613d79565b565b6000818152601360205260409020805460609190611a2d9061482b565b80601f0160208091040260200160405190810160405280929190818152602001828054611a599061482b565b8015611aa65780601f10611a7b57610100808354040283529160200191611aa6565b820191906000526020600020905b815481529060010190602001808311611a8957829003601f168201915b50505050509050919050565b6001546001600160a01b03163314611adc5760405162461bcd60e51b8152600401610b5d9061457f565b8451865114611b3e5760405162461bcd60e51b815260206004820152602860248201527f746f6b656e49447320616e642063726561746f727320617265206e6f74206d696044820152671cdb585d18da195960c21b6064820152608401610b5d565b8351865114611b9f5760405162461bcd60e51b815260206004820152602760248201527f746f6b656e49447320616e64205f70726963657320617265206e6f74206d69736044820152661b585d18da195960ca1b6064820152608401610b5d565b8251865114611c005760405162461bcd60e51b815260206004820152602760248201527f746f6b656e49447320616e64205f6f776e65727320617265206e6f74206d69736044820152661b585d18da195960ca1b6064820152608401610b5d565b8151865114611c645760405162461bcd60e51b815260206004820152602a60248201527f746f6b656e49447320616e64205f726f79616c7469657320617265206e6f74206044820152691b5a5cdb585d18da195960b21b6064820152608401610b5d565b8051865114611cc85760405162461bcd60e51b815260206004820152602a60248201527f746f6b656e49447320616e64205f6c69737465644d617020617265206e6f74206044820152691b5a5cdb585d18da195960b21b6064820152608401610b5d565b60005b8651811015611eba57611ce2600280546001019055565b858181518110611cf457611cf4614897565b6020026020010151600f6000898481518110611d1257611d12614897565b6020026020010151815260200190815260200160002060006101000a8154816001600160a01b0302191690836001600160a01b03160217905550848181518110611d5e57611d5e614897565b6020026020010151600b6000898481518110611d7c57611d7c614897565b6020026020010151815260200190815260200160002081905550838181518110611da857611da8614897565b602002602001015160116000898481518110611dc657611dc6614897565b6020026020010151815260200190815260200160002060006101000a8154816001600160a01b0302191690836001600160a01b03160217905550828181518110611e1257611e12614897565b602002602001015160106000898481518110611e3057611e30614897565b6020026020010151815260200190815260200160002081905550818181518110611e5c57611e5c614897565b6020026020010151600d6000898481518110611e7a57611e7a614897565b6020026020010151815260200190815260200160002060006101000a81548160ff0219169083151502179055508080611eb290614866565b915050611ccb565b50505050505050565b6008546001600160a01b031633148015611ee65750600a54600160a01b900460ff165b611f025760405162461bcd60e51b8152600401610b5d906145e1565b6007546008546040516323b872dd60e01b81526001600160a01b03928316926323b872dd92611f3b923092909116908690600401614548565b600060405180830381600087803b158015611f5557600080fd5b505af1158015611f69573d6000803e3d6000fd5b5050505050565b6001600080828254611f82919061478f565b909155505060005481611fb3816000908152600e602052604090206005015461010090046001600160a01b03161590565b15611ff85760405162461bcd60e51b8152602060048201526015602482015274105d58dd1a5bdb88191bd95cdb89dd08195e1a5cdd605a1b6044820152606401610b5d565b6000838152600e6020526040902060050154839061010090046001600160a01b031633146120385760405162461bcd60e51b8152600401610b5d90614626565b6000848152600e6020526040902054156120945760405162461bcd60e51b815260206004820152601760248201527f41756374696f6e20616c726561647920737461727465640000000000000000006044820152606401610b5d565b6000848152600e60205260408120600581015482825560018201839055600282018390556003820183905561010090046001600160a01b0316916120db6004830182613e4f565b506005810180546001600160a81b03191690556006810180546001600160a01b0319908116909155600791820180549091169055546040516323b872dd60e01b81526001600160a01b03909116906323b872dd9061214190309085908a90600401614548565b600060405180830381600087803b15801561215b57600080fd5b505af115801561216f573d6000803e3d6000fd5b5050506000868152600d60209081526040808320805460ff19169055601182529182902080546001600160a01b0319166001600160a01b03868116918217909255600754845192168252918101919091528792507f31e46b3372adff8978a18a1c543a6b3a925ee693bdf7a7c54df36f30f87d290e910160405180910390a250505060005481146116df57600080fd5b6007546040516331a9108f60e11b8152600481018490526000916001600160a01b031690636352211e9060240160206040518083038186803b15801561224457600080fd5b505afa158015612258573d6000803e3d6000fd5b505050506040513d601f19601f8201168201806040525081019061227c919061406b565b6001600160a01b0316336001600160a01b0316146122dc5760405162461bcd60e51b815260206004820152601c60248201527f4572726f722c20796f7520617265206e6f7420746865206f776e6572000000006044820152606401610b5d565b6000838152600d6020908152604091829020805460ff191685151590811790915582518681529182015233917f3fd63d9ca8dc693a1b9911e664951294721009a4f6239c862d6719a160a1edfc910160405180910390a250600192915050565b6008546001600160a01b03163314801561235f5750600a54600160a01b900460ff165b61237b5760405162461bcd60e51b8152600401610b5d906145e1565b600a805460ff60a01b19169055565b6000838152600d602052604090205460ff166123e85760405162461bcd60e51b815260206004820152601960248201527f4974656d206e6f74206c69737465642063757272656e746c79000000000000006044820152606401610b5d565b6007546040516331a9108f60e11b8152600481018590526001600160a01b0390911690636352211e9060240160206040518083038186803b15801561242c57600080fd5b505afa158015612440573d6000803e3d6000fd5b505050506040513d601f19601f82011682018060405250810190612464919061406b565b6001600160a01b0316336001600160a01b031614156124c55760405162461bcd60e51b815260206004820152601860248201527f43616e206e6f7420627579207768617420796f75206f776e00000000000000006044820152606401610b5d565b6000838152600c602052604090205482146125225760405162461bcd60e51b815260206004820152601960248201527f4572726f722c207072696365206973206e6f74206d61746368000000000000006044820152606401610b5d565b60008381526013602090815260409182902091516125419291016144ac565b60405160208183030381529060405280519060200120816040516020016125689190614490565b60405160208183030381529060405280519060200120146125cb5760405162461bcd60e51b815260206004820181905260248201527f4572726f722c205061796d656e742054797065206973206e6f74206d617463686044820152606401610b5d565b6000838152601160209081526040918290205491516001600160a01b039092169161260091016221272160e91b815260030190565b60405160208183030381529060405280519060200120826040516020016126279190614490565b604051602081830303815290604052805190602001201415612752576000848152600c60205260409020543410156126b45760405162461bcd60e51b815260206004820152602a60248201527f6d73672e76616c75652073686f756c6420626520657175616c20746f2074686560448201526908189d5e505b5bdd5b9d60b21b6064820152608401610b5d565b6003546000858152600c602052604081205490916126da916103e891610d659190613cc1565b6000868152600c6020526040812054919250906126f79083613d6d565b90506127038382613d0a565b50600854612729906001600160a01b03166127246007610d65866005613cc1565b613d0a565b50600a5461274a906001600160a01b03166127246007610d65866002613cc1565b505050612ad0565b6000848152600c602052604090819020549051601290612773908590614490565b908152604051908190036020018120546370a0823160e01b82523360048301526001600160a01b0316906370a082319060240160206040518083038186803b1580156127be57600080fd5b505afa1580156127d2573d6000803e3d6000fd5b505050506040513d601f19601f820116820180604052508101906127f691906142c5565b101561285f5760405162461bcd60e51b815260206004820152603260248201527f746f6b656e2062616c616e63652073686f756c642062652067726561746572206044820152711d1a185b881d1a1948189d5e505b5bdd5b9d60721b6064820152608401610b5d565b6004546000858152600c60205260408120549091612885916103e891610d659190613cc1565b6000868152600c6020526040812054919250906128a29083613d6d565b90506012846040516128b49190614490565b908152604051908190036020018120546323b872dd60e01b82526001600160a01b0316906323b872dd906128f090339087908690600401614548565b602060405180830381600087803b15801561290a57600080fd5b505af115801561291e573d6000803e3d6000fd5b505050506040513d601f19601f8201168201806040525081019061294291906141a9565b61294b57600080fd5b60128460405161295b9190614490565b908152604051908190036020019020546008546001600160a01b03918216916323b872dd913391166129936005610d5f886007613cd4565b6040518463ffffffff1660e01b81526004016129b193929190614548565b602060405180830381600087803b1580156129cb57600080fd5b505af11580156129df573d6000803e3d6000fd5b505050506040513d601f19601f82011682018060405250810190612a0391906141a9565b612a0c57600080fd5b601284604051612a1c9190614490565b90815260405190819003602001902054600a546001600160a01b03918216916323b872dd91339116612a546002610d5f886007613cd4565b6040518463ffffffff1660e01b8152600401612a7293929190614548565b602060405180830381600087803b158015612a8c57600080fd5b505af1158015612aa0573d6000803e3d6000fd5b505050506040513d601f19601f82011682018060405250810190612ac491906141a9565b612acd57600080fd5b50505b6007546040516323b872dd60e01b81526001600160a01b03909116906323b872dd90612b0490309033908990600401614548565b600060405180830381600087803b158015612b1e57600080fd5b505af1158015612b32573d6000803e3d6000fd5b505050600085815260116020908152604080832080546001600160a01b03191633908117909155600d8352818420805460ff19169055600b8352818420889055600c83529281902087905580518781529182018890529192506001600160a01b038416917f46661dab58311a6838247afecbee792192b4f27fc8b3e7168c66bc55ec2e404e910160405180910390a350505050565b6000818152601160205260409020546001600160a01b03163314612bfd5760405162461bcd60e51b8152600401610b5d906145b4565b6000818152600d602052604090205460ff161515600114612c515760405162461bcd60e51b815260206004820152600e60248201526d105b1c9958591e4818dbdb1cd95960921b6044820152606401610b5d565b6007546040516323b872dd60e01b81526001600160a01b03909116906323b872dd90612c8590309033908690600401614548565b600060405180830381600087803b158015612c9f57600080fd5b505af1158015612cb3573d6000803e3d6000fd5b5050506000828152600d60209081526040808320805460ff19169055600b825280832054600c835281842055600e90915290206005015461010090046001600160a01b03163314159050612d6a576000818152600e6020526040812081815560018101829055600281018290556003810182905590612d356004830182613e4f565b506005810180546001600160a81b03191690556006810180546001600160a01b03199081169091556007909101805490911690555b50565b6008546001600160a01b031633148015612d905750600a54600160a01b900460ff165b612dac5760405162461bcd60e51b8152600401610b5d906145e1565b600a805460ff60a81b191690556040513381527f5db9ee0a495bf2e6ff9c91a7834c1ba4fdd244a5e8aa4e537bd38aeae4b073aa90602001611803565b6001600080828254612dfb919061478f565b9091555050600054600a54600160a81b900460ff1615612e2d5760405162461bcd60e51b8152600401610b5d9061466b565b6000828152600e6020526040902060020154829015801590612e575750612e5381613ce0565b4210155b612ea35760405162461bcd60e51b815260206004820152601860248201527f41756374696f6e206861736e277420636f6d706c6574656400000000000000006044820152606401610b5d565b6000838152600e6020526040902060050154839061010090046001600160a01b0316331480612eeb57506000818152600e60205260409020600601546001600160a01b031633145b612f075760405162461bcd60e51b8152600401610b5d90614626565b6000848152600e60205260408120600681015481546005830154600490930180546001600160a01b03938416959294610100900490931692612f489061482b565b80601f0160208091040260200160405190810160405280929190818152602001828054612f749061482b565b8015612fc15780601f10612f9657610100808354040283529160200191612fc1565b820191906000526020600020905b815481529060010190602001808311612fa457829003601f168201915b50505060008b8152600e602052604081208181556001810182905560028101829055600381018290559394509150612ffe90506004830182613e4f565b506005810180546001600160a81b03191690556006810180546001600160a01b03199081169091556007909101805490911690556001600160a01b0384166130d2576007546040516323b872dd60e01b81526001600160a01b03909116906323b872dd9061307490309086908d90600401614548565b600060405180830381600087803b15801561308e57600080fd5b505af11580156130a2573d6000803e3d6000fd5b505050600089815260116020526040902080546001600160a01b0319166001600160a01b038516179055506134b6565b6007546040516323b872dd60e01b81526001600160a01b03909116906323b872dd9061310690309088908d90600401614548565b600060405180830381600087803b15801561312057600080fd5b505af1158015613134573d6000803e3d6000fd5b50505050604051602001613151906221272160e91b815260030190565b60405160208183030381529060405280519060200120816040516020016131789190614490565b60405160208183030381529060405280519060200120141561320a5760006131b16103e8610d6560035487613cc190919063ffffffff16565b90506131c1836127248684613d6d565b506008546131e2906001600160a01b03166127246007610d65856005613cc1565b50600a54613203906001600160a01b03166127246007610d65856002613cc1565b505061348e565b60006132276103e8610d6560045487613cc190919063ffffffff16565b90506012826040516132399190614490565b908152604051908190036020019020546001600160a01b031663a9059cbb846132628785613d6d565b6040516001600160e01b031960e085901b1681526001600160a01b0390921660048301526024820152604401602060405180830381600087803b1580156132a857600080fd5b505af11580156132bc573d6000803e3d6000fd5b505050506040513d601f19601f820116820180604052508101906132e091906141a9565b6132e957600080fd5b6012826040516132f99190614490565b908152604051908190036020019020546008546001600160a01b039182169163a9059cbb911661332f6007610d65866005613cc1565b6040516001600160e01b031960e085901b1681526001600160a01b0390921660048301526024820152604401602060405180830381600087803b15801561337557600080fd5b505af1158015613389573d6000803e3d6000fd5b505050506040513d601f19601f820116820180604052508101906133ad91906141a9565b6133b657600080fd5b600a546040516001600160a01b039091169063a9059cbb906014906133dc908690614490565b908152604051908190036020019020546001600160a01b03166134056007610d65866002613cc1565b6040516001600160e01b031960e085901b1681526001600160a01b0390921660048301526024820152604401602060405180830381600087803b15801561344b57600080fd5b505af115801561345f573d6000803e3d6000fd5b505050506040513d601f19601f8201168201806040525081019061348391906141a9565b61348c57600080fd5b505b600088815260116020526040902080546001600160a01b0319166001600160a01b0386161790555b6000888152600d60209081526040808320805460ff19169055600754600f8352928190205481516001600160a01b039485168152868516938101939093528784168383015260608301879052929092166080820152905189917f28e48213ce86ac133ca69274548aa4243a6e2433eee55213af64b46a2e719caf919081900360a00190a250505050505060005481146116df57600080fd5b6001546001600160a01b031633146135785760405162461bcd60e51b8152600401610b5d9061457f565b816012846040516135899190614490565b908152602001604051809103902060006101000a8154816001600160a01b0302191690836001600160a01b03160217905550806014846040516135cc9190614490565b90815260405190819003602001902080546001600160a01b03929092166001600160a01b0319909216919091179055505050565b6001600080828254613612919061478f565b9091555050600054600a54600160a81b900460ff16156136445760405162461bcd60e51b8152600401610b5d9061466b565b8561366d816000908152600e602052604090206005015461010090046001600160a01b03161590565b6136b25760405162461bcd60e51b815260206004820152601660248201527541756374696f6e20616c72656164792065786973747360501b6044820152606401610b5d565b6001600160a01b0383166136c557600080fd5b600087815260116020526040902080546001600160a01b031916331790556136ee878686613aa2565b6040805161012081018252600080825260208083018a815242848601818152606086018c8152608087018c8152603260a08901526001600160a01b03808d1660c08a015260e08901889052600854166101008901528f8752600e8652979095208651815592516001840155516002830155925160038201559351805192949261377d9260048501920190613dcb565b5060a082015160058201805460c085015160ff9093166001600160a81b0319909116176101006001600160a01b0393841681029190911790915560e08401516006840180546001600160a01b031990811692851692909217905593015160079092018054909316911617905560405188907faf28756bc1e562d40cb95e5867314a58926ea413130138ca11b3b2d6db787c61906138239084908b908b908b908b90614697565b60405180910390a25050600054811461383b57600080fd5b505050505050565b6001546001600160a01b0316331461386d5760405162461bcd60e51b8152600401610b5d9061457f565b600060128360405161387f9190614490565b908152604051908190036020018120546370a0823160e01b82523060048301526001600160a01b0316906370a082319060240160206040518083038186803b1580156138ca57600080fd5b505afa1580156138de573d6000803e3d6000fd5b505050506040513d601f19601f8201168201806040525081019061390291906142c5565b9050808211156139635760405162461bcd60e51b815260206004820152602660248201527f496e73756666696369656e7420746f6b656e2062616c616e636520746f20776960448201526574686472617760d01b6064820152608401610b5d565b6012836040516139739190614490565b9081526040519081900360200181205463a9059cbb60e01b8252336004830152602482018390526001600160a01b03169063a9059cbb90604401602060405180830381600087803b1580156139c757600080fd5b505af11580156139db573d6000803e3d6000fd5b505050506040513d601f19601f820116820180604052508101906139ff91906141a9565b610f9957600080fd5b60136020526000908152604090208054613a219061482b565b80601f0160208091040260200160405190810160405280929190818152602001828054613a4d9061482b565b8015613a9a5780601f10613a6f57610100808354040283529160200191613a9a565b820191906000526020600020905b815481529060010190602001808311613a7d57829003601f168201915b505050505081565b6000838152601160205260409020546001600160a01b03163314613ad85760405162461bcd60e51b8152600401610b5d906145b4565b6000838152600d602052604090205460ff1615613b285760405162461bcd60e51b815260206004820152600e60248201526d105b1c9958591e481bdc195b995960921b6044820152606401610b5d565b6007546040516323b872dd60e01b81526001600160a01b03909116906323b872dd90613b5c90339030908890600401614548565b600060405180830381600087803b158015613b7657600080fd5b505af1158015613b8a573d6000803e3d6000fd5b5050506000848152600d60209081526040808320805460ff19166001179055600c825280832086905560138252909120835161168093509091840190613dcb565b6001546001600160a01b03163314613bf55760405162461bcd60e51b8152600401610b5d9061457f565b6001600160a01b038116613c5a5760405162461bcd60e51b815260206004820152602660248201527f4f776e61626c653a206e6577206f776e657220697320746865207a65726f206160448201526564647265737360d01b6064820152608401610b5d565b612d6a81613d79565b6008546000906001600160a01b031633148015613c895750600a54600160a01b900460ff165b613ca55760405162461bcd60e51b8152600401610b5d906145e1565b600854613cbb906001600160a01b031683613d0a565b92915050565b6000613ccd82846147c9565b9392505050565b6000613ccd82846147a7565b6000818152600e602052604081206001810154600290910154613cbb915b6000613ccd828461478f565b600080836001600160a01b03168361753090604051600060405180830381858888f193505050503d8060008114613d5d576040519150601f19603f3d011682016040523d82523d6000602084013e613d62565b606091505b509095945050505050565b6000613ccd82846147e8565b600180546001600160a01b038381166001600160a01b0319831681179093556040519116919082907f8be0079c531659141344cd1fd0a4f28419497f9722a3daafe3b4186f6b6457e090600090a35050565b828054613dd79061482b565b90600052602060002090601f016020900481019282613df95760008555613e3f565b82601f10613e1257805160ff1916838001178555613e3f565b82800160010185558215613e3f579182015b82811115613e3f578251825591602001919060010190613e24565b50613e4b929150613e85565b5090565b508054613e5b9061482b565b6000825580601f10613e6b575050565b601f016020900490600052602060002090810190612d6a91905b5b80821115613e4b5760008155600101613e86565b600082601f830112613eab57600080fd5b81356020613ec0613ebb8361476b565b61473a565b80838252828201915082860187848660051b8901011115613ee057600080fd5b60005b85811015613f08578135613ef6816148c3565b84529284019290840190600101613ee3565b5090979650505050505050565b600082601f830112613f2657600080fd5b81356020613f36613ebb8361476b565b80838252828201915082860187848660051b8901011115613f5657600080fd5b60005b85811015613f08578135613f6c816148d8565b84529284019290840190600101613f59565b600082601f830112613f8f57600080fd5b81356020613f9f613ebb8361476b565b80838252828201915082860187848660051b8901011115613fbf57600080fd5b60005b85811015613f0857813584529284019290840190600101613fc2565b600082601f830112613fef57600080fd5b813567ffffffffffffffff811115614009576140096148ad565b61401c601f8201601f191660200161473a565b81815284602083860101111561403157600080fd5b816020850160208301376000918101602001919091529392505050565b60006020828403121561406057600080fd5b8135613ccd816148c3565b60006020828403121561407d57600080fd5b8151613ccd816148c3565b6000806040838503121561409b57600080fd5b82356140a6816148c3565b946020939093013593505050565b60008060008060008060c087890312156140cd57600080fd5b863567ffffffffffffffff808211156140e557600080fd5b6140f18a838b01613f7e565b9750602089013591508082111561410757600080fd5b6141138a838b01613e9a565b9650604089013591508082111561412957600080fd5b6141358a838b01613f7e565b9550606089013591508082111561414b57600080fd5b6141578a838b01613e9a565b9450608089013591508082111561416d57600080fd5b6141798a838b01613f7e565b935060a089013591508082111561418f57600080fd5b5061419c89828a01613f15565b9150509295509295509295565b6000602082840312156141bb57600080fd5b8151613ccd816148d8565b6000602082840312156141d857600080fd5b813567ffffffffffffffff8111156141ef57600080fd5b6141fb84828501613fde565b949350505050565b60008060006060848603121561421857600080fd5b833567ffffffffffffffff81111561422f57600080fd5b61423b86828701613fde565b935050602084013561424c816148c3565b9150604084013561425c816148c3565b809150509250925092565b6000806040838503121561427a57600080fd5b823567ffffffffffffffff81111561429157600080fd5b61429d85828601613fde565b95602094909401359450505050565b6000602082840312156142be57600080fd5b5035919050565b6000602082840312156142d757600080fd5b5051919050565b600080604083850312156142f157600080fd5b82359150602083013567ffffffffffffffff81111561430f57600080fd5b61431b85828601613f7e565b9150509250929050565b6000806040838503121561433857600080fd5b82359150602083013561434a816148d8565b809150509250929050565b60008060006060848603121561436a57600080fd5b83359250602084013567ffffffffffffffff81111561438857600080fd5b61439486828701613fde565b925050604084013590509250925092565b6000806000606084860312156143ba57600080fd5b8335925060208401359150604084013567ffffffffffffffff8111156143df57600080fd5b6143eb86828701613fde565b9150509250925092565b600080600080600060a0868803121561440d57600080fd5b853594506020860135935060408601359250606086013567ffffffffffffffff81111561443957600080fd5b61444588828901613fde565b9250506080860135614456816148c3565b809150509295509295909350565b6000815180845261447c8160208601602086016147ff565b601f01601f19169290920160200192915050565b600082516144a28184602087016147ff565b9190910192915050565b600080835481600182811c9150808316806144c857607f831692505b60208084108214156144e857634e487b7160e01b86526022600452602486fd5b8180156144fc576001811461450d5761453a565b60ff1986168952848901965061453a565b60008a81526020902060005b868110156145325781548b820152908501908301614519565b505084890196505b509498975050505050505050565b6001600160a01b039384168152919092166020820152604081019190915260600190565b602081526000613ccd6020830184614464565b6020808252818101527f4f776e61626c653a2063616c6c6572206973206e6f7420746865206f776e6572604082015260600190565b60208082526013908201527239b2b73232b91034b9903737ba1037bbb732b960691b604082015260600190565b60208082526025908201527f43616c6c657220646f6573206e6f7420686176652061646d696e2070726976696040820152646c6567657360d81b606082015260800190565b60208082526025908201527f43616e206f6e6c792062652063616c6c65642062792061756374696f6e20437260408201526432b0ba37b960d91b606082015260800190565b60208082526012908201527110dbdb9d1c9858dd081a5cc81c185d5cd95960721b604082015260600190565b85815284602082015283604082015260a0606082015260006146bc60a0830185614464565b905060018060a01b03831660808301529695505050505050565b60006101208b83528a602084015289604084015288606084015280608084015261470281840189614464565b60ff9790971660a084015250506001600160a01b0393841660c082015291831660e08301529091166101009091015295945050505050565b604051601f8201601f1916810167ffffffffffffffff81118282101715614763576147636148ad565b604052919050565b600067ffffffffffffffff821115614785576147856148ad565b5060051b60200190565b600082198211156147a2576147a2614881565b500190565b6000826147c457634e487b7160e01b600052601260045260246000fd5b500490565b60008160001904831182151516156147e3576147e3614881565b500290565b6000828210156147fa576147fa614881565b500390565b60005b8381101561481a578181015183820152602001614802565b838111156116805750506000910152565b600181811c9082168061483f57607f821691505b6020821081141561486057634e487b7160e01b600052602260045260246000fd5b50919050565b600060001982141561487a5761487a614881565b5060010190565b634e487b7160e01b600052601160045260246000fd5b634e487b7160e01b600052603260045260246000fd5b634e487b7160e01b600052604160045260246000fd5b6001600160a01b0381168114612d6a57600080fd5b8015158114612d6a57600080fdfea26469706673582212201ddc8bdca4d4e83e7a545f4a84011ef75ccbe881f1fcf7406ff6215ccab5dfbb64736f6c63430008070033",
  "linkReferences": {},
  "deployedLinkReferences": {}
}